:020000040800F2
:1000000000500020952B0008592300085F230008AA
:10001000652300086B23000871230008000000001E
:10002000000000000000000000000000772300082E
:1000300083230008000000008F2300089B23000892
:10004000DD2B0008DD2B0008DD2B0008DD2B000870
:10005000DD2B0008DD2B0008A7230008DD2B00089E
:10006000DD2B0008DD2B0008DD2B0008DD2B000850
:10007000DD2B0008DD2B0008DD2B0008DD2B000840
:10008000DD2B0008DD2B0008DD2B0008DD2B000830
:10009000DD2B0008DD2B0008DD2B0008DD2B000820
:1000A000DD2B0008DD2B0008DD2B0008DD2B000810
:1000B000B5230008DD2B0008DD2B0008DD2B000830
:1000C000DD2B0008DD2B0008DD2B0008DD2B0008F0
:1000D000DD2B0008DD2B0008C9230008DD2B0008FC
:1000E000DD2B0008DD2B0008DD2B000800000000E0
:1000F0000000000000000000000000000000000000
:0C01000000000000000000005FF808F1A3
:1001100010B5054C237833B9044B13B10448AFF341
:1001200000800123237010BD70000020000000003B
:10013000B466000808B5034B1BB103490348AFF38D
:10014000008008BD0000000074000020B4660008B4
:1001500070B54FF0FF0C4CF4E06C1CEA11541DBF5D
:100160001CEA135594EA0C0F95EA0C0F00F0DEF828
:100170002C4481EA030621EA4C5123EA4C5350EA0D
:10018000013518BF52EA033541F4801143F480135E
:1001900038D0A0FB02CE4FF00005E1FB02E506F0EF
:1001A0000042E0FB03E54FF00006E1FB03569CF044
:1001B000000F18BF4EF0010EA4F1FF04B6F5007F4A
:1001C00064F5407404D25FEA4E0E6D4146EB0606BC
:1001D00042EAC62141EA55514FEAC52040EA5E5045
:1001E0004FEACE2EB4F1FD0C88BFBCF5E06F1ED8EF
:1001F000BEF1004F08BF5FEA500E50F1000041EB26
:10020000045170BD06F0004646EA010140EA0200D2
:1002100081EA0301B4EB5C04C2BFD4EB0C0541EAF4
:10022000045170BD41F480114FF0000E013C00F309
:10023000AB8014F1360FDEBF002001F0004170BD2D
:10024000C4F10004203C35DA0C341BDC04F1140446
:10025000C4F1200500FA05F320FA04F001FA05F2D2
:1002600040EA020001F0004221F0004110EBD3709F
:1002700021FA04F642EB06015EEA430E08BF20EACB
:10028000D37070BDC4F10C04C4F1200500FA04F36E
:1002900020FA05F001FA04F240EA020001F0004100
:1002A00010EBD37041F100015EEA430E08BF20EA73
:1002B000D37070BDC4F1200500FA05F24EEA020EBB
:1002C00020FA04F301FA05F243EA020321FA04F0EA
:1002D00001F0004121FA04F220EA020000EBD370A1
:1002E0005EEA430E08BF20EAD37070BD94F0000FA1
:1002F0000FD101F00046400041EB010111F4801FD5
:1003000008BF013CF7D041EA060195F0000F18BF85
:10031000704703F00046520043EB030313F4801FC1
:1003200008BF013DF7D043EA0603704794EA0C0F7B
:100330000CEA135518BF95EA0C0F0CD050EA410691
:1003400018BF52EA4306D1D181EA030101F000410E
:100350004FF0000070BD50EA410606BF1046194636
:1003600052EA430619D094EA0C0F02D150EA013642
:1003700013D195EA0C0F05D152EA03361CBF104683
:1003800019460AD181EA030101F0004141F0FE4122
:1003900041F470014FF0000070BD41F0FE4141F4A6
:1003A000780170BD81F0004102E000BF83F000439E
:1003B00030B54FEA41044FEA430594EA050F08BF00
:1003C00090EA020F1FBF54EA000C55EA020C7FEAC4
:1003D000645C7FEA655C00F0E2804FEA5454D4EB41
:1003E0005555B8BF6D420CDD2C4480EA020281EA0B
:1003F000030382EA000083EA010180EA020281EA43
:100400000303362D88BF30BD11F0004F4FEA013194
:100410004FF4801C4CEA113102D0404261EB4101A3
:1004200013F0004F4FEA03334CEA133302D0524229
:1004300063EB430394EA050F00F0A780A4F10104E5
:10044000D5F1200E0DDB02FA0EFC22FA05F280181F
:1004500041F1000103FA0EF2801843FA05F3594105
:100460000EE0A5F120050EF1200E012A03FA0EFC84
:1004700028BF4CF0020C43FA05F3C01851EBE371AE
:1004800001F0004507D54FF0000EDCF1000C7EEBCB
:1004900000006EEB0101B1F5801F1BD3B1F5001F09
:1004A0000CD349085FEA30004FEA3C0C04F1010428
:1004B0004FEA445212F5800F80F09A80BCF1004F51
:1004C00008BF5FEA500C50F1000041EB045141EAD3
:1004D000050130BD5FEA4C0C404141EB0101013C9C
:1004E00028BFB1F5801FE9D291F0000F04BF01468B
:1004F0000020B1FA81F308BF2033A3F10B03B3F15D
:1005000020020CDA0C3208DD02F1140CC2F10C02EC
:1005100001FA0CF021FA02F10CE002F11402D8BF4A
:10052000C2F1200C01FA02F120FA0CFCDCBF41EA16
:100530000C019040E41AA2BF01EB0451294330BDE5
:100540006FEA04041F3C1CDA0C340EDC04F11404C2
:10055000C4F1200220FA04F001FA02F340EA030099
:1005600021FA04F345EA030130BDC4F10C04C4F1DF
:10057000200220FA02F001FA04F340EA03002946BF
:1005800030BD21FA04F0294630BD94F0000F83F409
:10059000801306BF81F480110134013D4EE77FEAEC
:1005A000645C18BF7FEA655C29D094EA050F08BF38
:1005B00090EA020F05D054EA000C04BF1946104619
:1005C00030BD91EA030F1EBF0021002030BD5FEA5D
:1005D000545C05D14000494128BF41F0004130BD85
:1005E00014F580043CBF01F5801130BD01F00045D9
:1005F00045F0FE4141F470014FF0000030BD7FEA4C
:10060000645C1ABF194610467FEA655C1CBF0B4646
:10061000024650EA013406BF52EA033591EA030F5D
:1006200041F4002130BD00BF90F0000F04BF002155
:10063000704730B54FF4806404F132044FF0000588
:100640004FF0000150E700BF90F0000F04BF002101
:10065000704730B54FF4806404F1320410F0004567
:1006600048BF40424FF000013EE700BF42004FEA62
:10067000E2014FEA31014FEA02701FBF12F07F43DF
:1006800093F07F4F81F06051704732F07F4208BF96
:10069000704793F07F4F04BF41F40021704730B59D
:1006A0004FF4607401F0004521F000411CE700BFE9
:1006B00050EA010208BF704730B54FF000050AE06C
:1006C00050EA010208BF704730B511F0004502D56D
:1006D000404261EB41014FF4806404F132045FEA6F
:1006E000915C3FF4D8AE4FF003025FEADC0C18BF18
:1006F00003325FEADC0C18BF033202EBDC02C2F10A
:10070000200300FA03FC20FA02F001FA03FE40EA9B
:100710000E0021FA02F11444BDE600BF4A0011D2D6
:1007200012F5001211D20DD56FF47873B3EB62524B
:100730000ED44FEAC12343F0004343EA505323FA57
:1007400002F070474FF00000704750EA013002D1CC
:100750004FF0FF3070474FF00000704780B58AB00F
:1007600000AF07F1180300221A605A609A60DA603D
:10077000744B9B69734A43F040039361714B9B69CF
:1007800003F040037B617B696E4B9B696D4A43F0CC
:10079000040393616B4B9B6903F004033B613B696A
:1007A000684B9B69674A43F010039361654B9B69F3
:1007B00003F01003FB60FB68624B9B69614A43F0E6
:1007C000080393615F4B9B6903F00803BB60BB6840
:1007D0005C4B9B695B4A43F020039361594B9B69D7
:1007E00003F020037B607B6800227021564802F0F2
:1007F000D6FD00223021554802F0D1FD0022032110
:10080000534802F0CCFD00224FF40041514802F061
:10081000C6FD01220121504802F0C1FD7023BB61D9
:100820000123FB6100233B6202237B6207F1180373
:100830001946454802F018FC0123BB61474BFB6198
:1008400000233B6207F118031946424802F00CFCF2
:100850003023BB610123FB6100233B6202237B62E7
:1008600007F118031946394802F0FEFB0323BB6168
:100870000123FB6100233B6202237B6207F1180323
:100880001946334802F0F0FB4FF48073BB6100233C
:10089000FB6100233B6207F1180319462A4802F066
:1008A000E3FB40F20143BB610023FB6102233B6297
:1008B00007F118031946244802F0D6FB4FF47043A1
:1008C000BB610023FB6102233B6207F11803194659
:1008D0001F4802F0C9FB4FF47063BB610023FB614A
:1008E00002233B6207F1180319461B4802F0BCFBC8
:1008F0004FF40043BB610123FB6100233B620223F1
:100900007B6207F118031946124802F0ADFB012380
:10091000BB610123FB6100233B6202237B6207F181
:10092000180319460C4802F09FFB00220F210620F5
:1009300002F0B3FA062002F0CCFA00BF2837BD4619
:1009400080BD00BF001002400018014000100140AF
:10095000000C01400008014000140140000021107B
:1009600080B500AF124B134A1A60114B124A5A60FD
:100970000F4B00229A600E4B0022DA600C4B4FF4B2
:1009800080421A610A4B00225A61094B00229A6187
:10099000074B0022DA61064B00221A62044802F07B
:1009A0002FFD0346002B01D001F09EFC00BF80BD4F
:1009B0008C00002000540040A086010080B588B063
:1009C00000AF786007F1100300221A605A609A6045
:1009D000DA607B681B68154A934223D1144B9B69EC
:1009E000134A43F008039361114B9B6903F008031A
:1009F000FB60FB68C0233B6112237B610323FB6127
:100A000007F1100319460B4802F02EFB084BDB6977
:100A1000074A43F40013D361054BDB6903F4001369
:100A2000BB60BB6800BF2037BD4680BD005400409E
:100A300000100240000C014080B582B000AF02F00F
:100A4000CFF800F0ADF8FFF789FE01F0CDFC01F022
:100A5000DBFD01F06FFE02F011F801F089FDFFF7F8
:100A60007FFF0021434804F00DFA0C21414804F0B7
:100A700009FA0C21404804F005FA08213D4804F029
:100A800001FA08213C4804F0FDF90421394804F03A
:100A9000F9F90421384804F0F5F90021364804F04A
:100AA000F1F90021354804F0EDF90421334804F050
:100AB000E9F9334B1A782F4B1B685A63304B1A787D
:100AC0002C4B1B681A642E4B1A782B4B1B681A642C
:100AD0002B4B1A78274B1B68DA63294B1A78264B65
:100AE0001B68DA63264B1A78224B1B689A63244BE7
:100AF0001A78214B1B689A63224B1A781E4B1B688D
:100B00005A63204B1A781D4B1B685A631B4B1B689A
:100B100000229A6301F024FB01221B491B4805F0C7
:100B200045F900F095F800F0A3FE00F031FF01F068
:100B300055F8174B1B78012BEED102F0A9F878601D
:100B4000144B1B78012B03D1124B00221A70E3E7E0
:100B5000114B1B687A68D31A4AF6C8729342DBD9E4
:100B60000D4A7B6813600D4B01221A7000F054F897
:100B7000D2E700BF1C030020640300208C02002089
:100B8000010000206F02002059020020AC03002069
:100B90006C02002064020020680200206502002030
:100BA00080B590B000AF07F1180328220021184645
:100BB00005F078FD3B1D00221A605A609A60DA60E9
:100BC0001A610223BB610123BB621023FB62002375
:100BD0007B6307F11803184603F012FC0346002B51
:100BE00001D001F081FB0F237B600023BB60002359
:100BF000FB6000233B6100237B613B1D0021184605
:100C000003F080FE0346002B01D001F06DFB00BF16
:100C10004037BD4680BD000080B500AF0A4B1B7851
:100C2000012B0FD1084B00221A7000220121074826
:100C300002F0B5FB322002F035F801220121034811
:100C400002F0ADFB00BF80BD650200200014014032
:100C500080B582B000AF4FF48061A04802F088FBFD
:100C60000346002B4AD0012B58D19D4B1B78002BFB
:100C70000CD10121012000F053FA02F009F80346DB
:100C8000984A1360984B00221A700FE0944B1B781F
:100C9000022B0BD10021012000F042FA01F0F8FFF5
:100CA0000346904A1360904B00221A704FF4806103
:100CB0008A4802F05DFB0346012B1BD1884B1B7851
:100CC000012B03D0864B1B78032B13D1864B1B784B
:100CD000002B0FD101F0DCFF7860824B1B687A6833
:100CE000D31A41F28832934204D97F4B01221A7001
:100CF00000F0EEFC0A2001F0D5FF12E0784B1B78E3
:100D0000012B03D1764B02221A7009E0744B1B7839
:100D1000032B05D1724B00221A7001E000BF00E0E6
:100D200000BF4FF48041714802F022FB0346002BC4
:100D300042D0012B50D16A4B5B78002B0CD10121A2
:100D4000022000F0EDF96A4B00221A7001F0A0FFBA
:100D50000346684A13600FE0614B5B78022B0BD1AE
:100D60000021022000F0DCF9614B00221A7001F032
:100D70008FFF03465F4A13604FF480415B4802F0E7
:100D8000F7FA0346012B13D1594B1B78002B0FD1D7
:100D900001F07EFF3860574B1B683A68D31A41F266
:100DA0008832934204D9524B01221A7000F090FC11
:100DB0000A2001F077FF12E0494B5B78012B03D149
:100DC000474B02225A7009E0454B5B78032B05D153
:100DD000434B00225A7001E000BF00E000BF4FF417
:100DE0008051424802F0C4FA0346002B15D0012B73
:100DF00022D13B4B9B78002B03D10121032000F033
:100E00008FF9374B9B78022B03D10021032000F090
:100E100087F90A2001F046FF11E0314B9B78012B46
:100E200002D12F4B02229A702D4B9B78032B05D1B8
:100E30002B4B00229A7001E000BF00E000BF4FF48E
:100E400000412A4802F094FA0346002B15D0012BEA
:100E500022D1234BDB78002B03D10121042000F0A9
:100E60005FF91F4BDB78022B03D10021042000F037
:100E700057F90A2001F016FF11E0194BDB78012B1E
:100E800002D1174B0222DA70154BDB78032B05D108
:100E9000134B0022DA7001E000BF00E000BF4FF406
:100EA0000051124802F064FA0346002B24D0012BB3
:100EB00031D10B4B1B79002B03D10121052000F010
:100EC0002FF9074B1B79022B03D10021052000F0DD
:100ED00027F90A2001F0E6FE20E000BF00180140DB
:100EE000E40000207402002078020020000C014081
:100EF000790200207C020020814B1B79012B02D15A
:100F00007F4B02221A717E4B1B79032B05D17C4B40
:100F100000221A7101E000BF00E000BF4FF48071B1
:100F2000784802F025FA0346002B15D0012B22D178
:100F3000734B5B79002B03D10121062000F0F0F800
:100F40006F4B5B79022B03D10021062000F0E8F8FB
:100F50000A2001F0A7FE11E0694B5B79012B02D159
:100F6000674B02225A71664B5B79032B05D1644BA8
:100F700000225A7101E000BF00E000BF4FF40061A1
:100F8000604802F0F5F90346002B15D0012B22D161
:100F90005B4B9B79002B03D10121072000F0C0F8A7
:100FA000574B9B79022B03D10021072000F0B8F8A2
:100FB000052001F077FE11E0514B9B79012B02D106
:100FC0004F4B02229A714E4B9B79032B05D14C4B10
:100FD00000229A7101E000BF00E000BF4A4B1B787D
:100FE000012B40F081804FF48061464802F0C0F947
:100FF0000346002B28D0012B33D1414BDB79002B4A
:1010000031D13F4B0122DA71404B1A78404B1B68BB
:101010005A63404B1B78632B25D83E4B1B78053316
:10102000DAB23C4B1A703B4B1B78642B02D9394B1C
:1010300064221A70374B1B781946012000F020FA01
:101040000A2001F02FFE0EE02D4BDB79012B0CD195
:101050002B4B0022DA71304B1A782D4B1B685A63E8
:1010600003E000BF02E000BF00E000BF4FF40071EA
:10107000244802F07DF90346002B28D0012B35D1FE
:101080001F4B1B7A002B33D11D4B01221A721F4BB1
:101090001A78224B1B685A631E4B1B78012B27D9E9
:1010A0001C4B1B78053BDAB21A4B1A70194B1B7894
:1010B000002B02D1174B01221A70164B1B781946D0
:1010C000012000F0DDF90A2001F0ECFD10E00C4BEE
:1010D0001B7A012B0ED10A4B00221A720E4B1A7882
:1010E0000E4B1B685A6305E000BF04E000BF02E03E
:1010F00000BF00E000BF00BF0837BD4680BD00BF95
:10110000E400002000140140E10000200200002063
:101110008C020020E0000020010000206403002079
:1011200080B586B004AF03460A46FB711346BB7117
:10113000FB799AB26423029301230193BB1D0093B0
:101140001023A021AE4802F09FFA0346002B02D1E3
:10115000142001F0A7FDFB79013B062B00F27881FA
:1011600001A252F823F000BF85110008E711000822
:1011700049120008AB120008171300087913000881
:10118000D9130008BB79012B14D19E4B01221A7090
:101190009D4B1A789D4B1B681A64012202219C48C2
:1011A00002F0FDF80121012000F0A0FA322001F048
:1011B00079FD4FE1BB79002B40F04C81914B03222C
:1011C0001A70944B1A78914B1B681A640022022102
:1011D0008F4802F0E4F80021012000F087FA322065
:1011E00001F060FD36E1BB79012B14D1854B012262
:1011F0005A70854B1A78854B1B685A63012201216E
:10120000834802F0CCF80121022000F06FFA32206E
:1012100001F048FD20E1BB79002B40F01D81794BA6
:1012200003225A707B4B1A78784B1B685A63002252
:101230000121774802F0B3F80021022000F056FAAD
:10124000322001F02FFD07E1BB79012B14D16D4B4A
:1012500001229A706C4B1A786C4B1B68DA6301227E
:1012600010216D4802F09BF80121032000F03EFAA6
:10127000322001F017FDF1E0BB79002B40F0EE8049
:10128000604B03229A70634B1A78604B1B68DA63D9
:1012900000221021604802F082F80021032000F0B3
:1012A00025FA322001F0FEFCD8E0BB79012B19D1E0
:1012B000544B0122DA70544B1A78584B1B681A644D
:1012C00001222021544802F06AF8012240215248AC
:1012D00002F065F80121042000F008FA322001F044
:1012E000E1FCBDE0BB79002B40F0BA80454B032206
:1012F000DA70484B1A78494B1B681A640022402167
:10130000454802F04CF80021042000F0EFF93220AB
:1013100001F0C8FCA4E0BB79012B14D1394B0122A8
:101320001A71394B1A78394B1B689A6301222021B4
:101330003B4802F034F80121052000F0D7F93220B3
:1013400001F0B0FC8EE0BB79002B40F08B802D4B80
:1013500003221A712F4B1A782C4B1B689A630022B8
:1013600020212F4802F01BF80021052000F0BEF9D3
:10137000322001F097FC75E0BB79012B14D1214B91
:1013800001225A71204B1A78244B1B68DA63012220
:101390001021234802F003F80121062000F0A6F9ED
:1013A000322001F07FFC5FE0BB79002B5CD1154B54
:1013B00003225A71174B1A78184B1B68DA63002204
:1013C0001021174801F0EBFF0021062000F08EF9F4
:1013D000322001F067FC47E0BB79012B24D1094B97
:1013E00001229A710F4B1B781946012000F048F832
:1013F0000121072000F07AF9322001F053FC35E09A
:101400008C000020E4000020020000201C030020CB
:10141000000C01400100002000180140640300207E
:1014200000100140E0000020BB79002B1ED1124BC0
:1014300003229A71114B1B781946002000F020F806
:101440000021072000F052F9322001F02BFC0DE0C2
:1014500000BF0CE000BF0AE000BF08E000BF06E0EC
:1014600000BF04E000BF02E000BF00E000BF00BF1B
:101470000837BD4680BD00BFE4000020E00000202A
:1014800080B588B004AF03460A46FB711346BB71B2
:10149000554ABB791370BB79013B1846FFF7D4F866
:1014A0004FA3D3E90023FEF753FE02460B464FF04D
:1014B00000004E49FEF77AFF02460B4610461946D9
:1014C000FFF72CF90346DAB2494B1A70FB793B73EC
:1014D000BB797B730A2302930223019307F10C0368
:1014E000009310231722A021424802F0CDF80346B2
:1014F000002B02D1142001F0D5FBFB79012B3ED14A
:101500003D4B1B78002B11D13B4B01221A703B4BFA
:101510001A783B4B1B689A633A4B1A783A4B1B6814
:101520005A63384B1A78364B1B685A63BB79642B65
:1015300012D1364B01221A70354B00221A70354BEE
:1015400000221A700C2001F0ADFB01224FF4004183
:10155000314801F024FF3AE0BB79632B37D80022F1
:101560004FF400412C4801F01AFF284B01221A7059
:10157000274B01221A70274B01221A7027E0FB79B2
:10158000002B24D11C4B1B78012B11D11A4B0022AC
:101590001A701C4B1A781A4B1B689A631F4B1A78E7
:1015A000194B1B685A631D4B1A78154B1B685A63FD
:1015B000174B00221A7000224FF40041164801F028
:1015C000EEFE124B00221A70124B00221A70BB79E9
:1015D000184600F0CDF800BF1037BD4680BD00BFF3
:1015E000333333333333E33FE000002000405040D7
:1015F000000000208C00002080020020020000205B
:1016000064030020010000208C020020E100002083
:10161000E3000020E2000020000801406F020020EB
:1016200080B582B000AF0346FB80FB88012B1FD141
:10163000114B1B78012B14D10F4B00221A700F4B4A
:101640001B78042B0DD90D4B1B78412B09D80B4B64
:101650001A780B4B1B68DA62084B1B781A46084B4A
:10166000DA60084B1B78012B02D1054803F032FBEE
:1016700000BF0837BD4680BDE2000020000000200A
:10168000D4020020E300002080B582B000AF786073
:101690007B681B68B3F1804F11D10B4803F06CFBE2
:1016A00001224FF40041094801F079FE012001F0C8
:1016B000F9FA00224FF40041044801F070FE00BF27
:1016C0000837BD4680BD00BFD4020020000801409D
:1016D00080B500AF64230A220249034804F0D4FA1B
:1016E00000BF80BD48000020AC03002080B588B05A
:1016F00000AF03460A46FB711346BB711A4A07F155
:101700000C0307CA83E807000023BB76FB79072B8D
:1017100002D16523BB7401E0FB79BB74BB79BB7557
:101720000023FB610023FB760BE0FB7E20333B4470
:1017300013F8143C1A46FB691344FB61FB7E01332A
:10174000FB76FB7E0B2BF0D9FB69BB76BB7EFB7572
:1017500007F10C0164230C22044804F095FA00BF41
:101760002037BD4680BD00BFCC660008AC0300201A
:1017700090B58BB000AF0346FB71234B07F10C040F
:101780000FCB07C4238002341B0C2370002387F87F
:101790002230FB79FB61FB691B0EDBB2BB75FB6979
:1017A0001B0CDBB2FB75FB691B0ADBB23B76FB69EA
:1017B000DBB27B7600237B62002387F823300EE0C8
:1017C00097F8233028333B4413F81C3C1A467B6AB5
:1017D00013447B6297F82330013387F8233097F85E
:1017E00023300E2BECD97B6A87F8223097F8223011
:1017F000BB7607F10C0164230F22044804F044FA7D
:1018000000BF2C37BD4690BDD8660008AC03002051
:1018100080B582B000AF7860104B1B781A46104B31
:101820001978104B99540D4B1B7801335A42DBB297
:10183000D2B258BF5342DAB2084B1A700A4B1B7827
:101840000133DAB2084B1A7001220549074804F047
:10185000ADFA00BF0837BD4680BD00BFED000020D7
:1018600059020020F0000020EF000020AC0300200F
:1018700080B400AF3A4B1B78002B6CD0394B1B78EF
:101880001A46394B9A5C394B1A70364B1B78013328
:101890005A42DBB2D2B258BF5342DAB2314B1A705D
:1018A0002F4B1B78013BDAB22D4B1A702C4B1B7857
:1018B000002B03D12E4B1A782A4B1A702B4B1A7817
:1018C0002C4B1A702B4B1B78AA2B16D12A4B1B784A
:1018D000552B12D1294B00221A70294B01221A7064
:1018E000264B1B781A46244B1978264B9954234BC8
:1018F0001B780133DAB2214B1A70214B1B78012B74
:1019000025D11E4B1B781A46184B19781D4B99543C
:101910001A4B1B78052B06D1184B1B781A46194B0E
:101920009A5C194B1A70154B1B781A46164B1B788C
:1019300006339A4205D1124B00221A70134B012232
:101940001A700E4B1B780133DAB20C4B1A70094B2C
:101950001A78094B1A7000BFBD4680BC704700BFA3
:10196000EF000020EE000020F000002059020020CF
:10197000ED000020F1010020F001002058020020BD
:101980005B020020F40100205A0200205C020020CB
:1019900080B584B000AF814B1B78012B40F0FA80FA
:1019A0000023FB600023BB727C4B00221A700023D3
:1019B000FB7209E0FB7A7A4AD35C1A46FB6813444F
:1019C000FB60FB7A0133FB72FA7A764B1B78013BA2
:1019D0009A42EFDBFB68BB72724B1B78013B704A8B
:1019E000D35CBA7A9A4240F0D2806E4B1B78042BBB
:1019F00040F2CD806A4BDB78002B3FD16A4B1B78DD
:101A0000002B0ED1642308226849694804F03CF990
:101A1000654B01221A7001F03BF90346654A1360D9
:101A200023E001F035F97860624B1B687A68D31ABD
:101A3000B3F5FA6F0CD25C4B00221A7064230822B3
:101A40005A495B4804F020F95A4B1B687B600CE054
:101A5000554B1B78012B08D1642308225649544862
:101A600004F012F9534B1B687B60544B01221A702F
:101A700001F00EF90346524A136088E0484BDB78C8
:101A8000012B09D1642332224E49494804F0FCF865
:101A90004D4B01221A707AE0414BDB78022B06D1C4
:101AA000642307224949424804F0EEF86FE03C4BBA
:101AB000DB78032B26D13A4B9B79002B02D1444B88
:101AC00002221A70364B9B79012B03D1404B032223
:101AD0001A7010E0324B9B79022B03D13C4B012250
:101AE0001A7008E02E4B9B79042B04D100F018F9F2
:101AF000374B00221A706423072236492C4804F021
:101B0000C3F844E0264BDB78062B3AD1244B9B7973
:101B10000D2B05D1224B9B7A184600F00DF936E0CB
:101B20001F4B9B796F2B05D11D4B5B7B184600F03B
:101B300075F92CE01A4B9B79702B05D1184B5B7B08
:101B4000184600F0E7F922E0154B9B796A2B08D183
:101B5000214B1B78124A527B11461846FFF790FC26
:101B600015E00F4B9B79652B02D10D4B07229A7123
:101B70000B4B9B790A4A927A11461846FFF7D0FA26
:101B800005E0074BDB78082B01D100F03FFA054B4D
:101B900000221A7000BF1037BD4680BD5C020020D5
:101BA000F4010020580200205D02002054000020B3
:101BB000AC030020600200205C00002064020020D2
:101BC00068020020040000206C0200203800002081
:101BD0006D02002040000020E100002080B582B0AE
:101BE00000AF00237B60484B1B78012B36D101F0FE
:101BF0004FF87860454B1B687A68D31A322B7ED930
:101C0000424A7B681360424B1B785A00414B1B6869
:101C10009A633F4B1B78322B03D13F4B01221A7042
:101C200006E03B4B1B78012B02D13B4B00221A7084
:101C3000394B1B78002B06D1354B1B780133DAB2B8
:101C4000334B1A705BE0344B1B78012B57D1304B70
:101C50001B78013BDAB22E4B1A7050E02A4B1B78EE
:101C6000022B23D101F014F87860284B1B687A68A6
:101C7000D31AFA2B43D9254A7B681360274B1B786C
:101C8000002B07D1254B01221A70224B1B686422BE
:101C90009A6334E0214B1B78012B30D11F4B00227B
:101CA0001A701C4B1B6814229A6328E0164B1B7891
:101CB000032B24D100F0ECFF7860144B1B687A688A
:101CC000D31A40F2DC52934219D9104A7B68136050
:101CD000124B1B78002B07D1104B01221A700D4BB1
:101CE0001B6864229A630AE00C4B1B78012B06D117
:101CF0000A4B00221A70074B1B6814229A6300BF1C
:101D00000837BD4680BD00BF6D0200208402002060
:101D1000880200208C020020890200206E02002030
:101D200080B500AF034B1B6800229A6300F06EF988
:101D300000BF80BD8C02002080B588B000AF034694
:101D4000FB71344A07F1080307CA83E80700002340
:101D5000FB75FB79BB74BB7C012B1CD101210120DD
:101D6000FFF7DEF901210220FFF7DAF90121032054
:101D7000FFF7D6F901210420FFF7D2F90121052050
:101D8000FFF7CEF901210620FFF7CAF9012107204C
:101D9000FFF7C6F91BE000210120FFF7C1F9002180
:101DA0000220FFF7BDF900210320FFF7B9F9002158
:101DB0000420FFF7B5F900210520FFF7B1F9002154
:101DC0000620FFF7ADF900210720FFF7A9F900234E
:101DD000FB610023BB610BE007F10802BB69134400
:101DE0001B781A46FB691344FB61BB690133BB6175
:101DF000BB690C2BF0D9FB69FB75FB7DFB7407F10C
:101E0000080164230C22044803F03EFF00BF203782
:101E1000BD4680BDE8660008AC03002080B586B0F2
:101E200004AF0346FB71354AFB79137064230293B8
:101E300001230193314B009310231522A021304838
:101E400001F022FC0346002B02D1142000F02AFFEF
:101E50002C4B1B78022B04D1284B1A782A4B1B6879
:101E60005A63284B5B78022B04D1244B1A78264BFB
:101E70001B681A64234B9B78022B04D11F4B1A78E2
:101E8000224B1B681A641F4BDB78022B04D11B4BBF
:101E90001A781D4B1B68DA631A4B1B79022B04D18D
:101EA000164B1A78194B1B68DA63164B5B79022BB9
:101EB00004D1124B1A78144B1B689A63114B9B790F
:101EC000022B04D10D4B1A78104B1B689A630D4BF3
:101ED000DB79022B04D1094B1A780C4B1B685A632F
:101EE000084B1B7A022B04D1044B1A78084B1B6851
:101EF0005A6300BF0837BD4680BD00BF0200002006
:101F00008C000020E40000201C030020640300205B
:101F10008C02002080B586B004AF0346FB71354AC1
:101F2000FB7913706423029301230193314B0093D7
:101F300010231422A021304801F0A6FB0346002BF9
:101F400002D1142000F0AEFE2C4B1B78002B04D1E4
:101F5000284B1A782A4B1B685A63284B5B78002B56
:101F600004D1244B1A78264B1B681A64234B9B78A8
:101F7000002B04D11F4B1A78224B1B681A641F4B8D
:101F8000DB78002B04D11B4B1A781D4B1B68DA63DE
:101F90001A4B1B79002B04D1164B1A78194B1B686E
:101FA000DA63164B5B79002B04D1124B1A78144B71
:101FB0001B689A63114B9B79002B04D10D4B1A7847
:101FC000104B1B689A630D4BDB79002B04D1094B36
:101FD0001A780C4B1B685A63084B1B7A002B04D1F0
:101FE000044B1A78084B1B685A6300BF0837BD467C
:101FF00080BD00BF010000208C000020E400002014
:102000001C030020640300208C020020B0B596B0B1
:1020100004AF504B07F10C041D460FCD0FC40FCD7C
:102020000FC495E8070003C4228007F1360300229D
:102030001A605A60002387F8403000237B64002335
:10204000FB70002387F84330012387F8423024E0F7
:1020500097F842309AB20A23029301230193FB1CA2
:1020600000931023A0213C4801F008FC0346002BFC
:102070000ED1142000F016FE97F84330FA7848335A
:102080003B4403F8442C97F84330013387F843303E
:1020900097F84230013387F8423097F84230072BE7
:1020A000D6D900233B800A230293022301933B46A7
:1020B000009310231722A021274801F0DFFB0346DD
:1020C000002B02D1142000F0EDFD3B79BB757B792C
:1020D000FB76BB7987F82030FB7987F825303B7A8F
:1020E00087F82A307B7A87F82F30BB7A87F834302C
:1020F000BB7887F83D30002387F841300EE097F831
:10210000413048333B4413F83C3C1A467B6C134443
:102110007B6497F84130013387F8413097F84130BC
:10212000322BECD97B6C87F8403097F8403087F839
:102130003E3007F10C0164233222084803F0A4FD6D
:10214000002387F8403000237B6400BF4837BD463A
:10215000B0BD00BFF46600088C000020AC03002076
:1021600080B586B004AF64230293012301935A4BD8
:10217000009310231622A021584801F07FFB03464C
:10218000002B02D1322000F08DFD534B1B78012B28
:1021900038D0514B01221A700A2302930123019374
:1021A0004F4B009310231422A0214C4801F06CFAED
:1021B0000346002B02D1142000F074FD0A23029381
:1021C00001230193474B009310231522A02143487C
:1021D00001F05AFA0346002B02D1142000F062FDF0
:1021E00064230293012301933B4B00931023162297
:1021F000A0213A4801F048FA0346002B02D11420EE
:1022000000F050FD0A23029301230193344B009305
:1022100010231422A021314801F030FB0346002B8B
:1022200002D1142000F03EFD0A2302930123019302
:102230002C4B009310231522A021284801F01EFBEF
:102240000346002B02D1142000F02CFD0123FB716A
:1022500020E00A2000F026FD0023FB70FB799AB2F3
:102260000A23029301230193FB1C00931023A02156
:102270001A4801F003FB0346002B08D1142000F09C
:1022800011FDFA78FB7911461846FEF749FFFB79F4
:102290000133FB71FB79072BDBD90023BB800A23B9
:1022A0000293022301933B1D009310231722A021C8
:1022B0000A4801F0E9F90346002B08D1142000F088
:1022C000F1FC3B797A7911461846FFF7D9F800BF3F
:1022D0000837BD4680BD00BF700200208C00002082
:1022E000010000200200002080B400AF72B600BFE1
:1022F000FEE7000080B485B000AF154B9B69144A1F
:1023000043F001039361124B9B6903F00103BB602F
:10231000BB680F4BDB690E4A43F08053D3610C4B13
:10232000DB6903F080537B607B680A4B5B68FB6072
:10233000FB6823F0E063FB60FB6843F00073FB6025
:10234000044AFB68536000BF1437BD4680BC704729
:10235000001002400000014080B400AFFEE780B4EE
:1023600000AFFEE780B400AFFEE780B400AFFEE749
:1023700080B400AFFEE780B400AF00BFBD4680BCB4
:10238000704780B400AF00BFBD4680BC704780B4CA
:1023900000AF00BFBD4680BC704780B500AF00F005
:1023A00065FC00BF80BD80B500AF012001F010F8D2
:1023B00000BF80BD80B500AF024802F005FE00BF3F
:1023C00080BD00BFD402002080B500AF024803F0FA
:1023D0001DFD00BF80BD00BFAC03002080B400AF76
:1023E00000BFBD4680BC704780B596B000AF07F116
:1023F000480300221A605A609A60DA6007F14003CD
:1024000000221A605A6007F1240300221A605A6001
:102410009A60DA601A615A619A613B1D202200219C
:10242000184604F03FF9504B504A1A604E4B1422A4
:102430005A604D4B00229A604B4B6422DA604A4B43
:1024400000221A61484B00225A61474B00229A61D0
:10245000454802F0EFFB0346002B01D0FFF744FF95
:102460004FF48053BB6407F1480319463E4802F01D
:1024700071FF0346002B01D0FFF736FF3A4802F008
:10248000A9FC0346002B01D0FFF72EFF00233B647D
:1024900000237B6407F140031946334803F0E6FA52
:1024A0000346002B01D0FFF71FFF60237B62002350
:1024B000BB620023FB6200233B6300237B6300239A
:1024C000BB630023FB6307F124030022194626485F
:1024D00002F082FE0346002B01D0FFF705FF07F153
:1024E000240304221946204802F076FE0346002BFE
:1024F00001D0FFF7F9FE07F12403082219461A4814
:1025000002F06AFE0346002B01D0FFF7EDFE07F153
:1025100024030C221946144802F05EFE0346002BE9
:1025200001D0FFF7E1FE00237B600023BB600023A6
:10253000FB6000233B6100237B614FF40053BB61D0
:1025400000233B623B1D1946074803F0EDFA0346A2
:10255000002B01D0FFF7C8FE034800F0E1F900BFEF
:102560005837BD4680BD00BF8C020020002C0140C2
:1025700080B586B000AF07F1080300221A605A60E8
:102580009A60DA603B4600221A605A601D4B4FF099
:1025900080421A601B4B40F21F325A60194B0022D6
:1025A0009A60184B4122DA60164B00221A61154BD3
:1025B00080229A61134802F03DFB0346002B01D0B4
:1025C000FFF792FE4FF48053BB6007F108031946F2
:1025D0000C4802F0BFFE0346002B01D0FFF784FE3B
:1025E00000233B6000237B603B461946054803F00F
:1025F0003DFA0346002B01D0FFF776FE00BF1837E7
:10260000BD4680BDD402002080B58EB000AF07F17A
:10261000280300221A605A609A60DA6007F12003EA
:1026200000221A605A603B1D00221A605A609A60AC
:10263000DA601A615A619A613C4B3D4A1A603B4B21
:1026400014225A60394B00229A60384B6422DA60B7
:10265000364B00221A61354B00229A61334802F052
:10266000E9FA0346002B01D0FFF73EFE4FF48053FA
:10267000BB6207F1280319462C4802F06BFE0346A3
:10268000002B01D0FFF730FE284802F0A3FB0346E1
:10269000002B01D0FFF728FE00233B6200237B6262
:1026A00007F120031946214803F0E0F90346002B07
:1026B00001D0FFF719FE60237B600023BB6000237D
:1026C000FB6000237B613B1D00221946174802F086
:1026D00083FD0346002B01D0FFF706FE3B1D0422BD
:1026E0001946124802F078FD0346002B01D0FFF78F
:1026F000FBFD3B1D082219460C4802F06DFD034608
:10270000002B01D0FFF7F0FD3B1D0C2219460748B6
:1027100002F062FD0346002B01D0FFF7E5FD034800
:1027200000F0FEF800BF3837BD4680BD1C03002016
:102730000004004080B58EB000AF07F128030022EE
:102740001A605A609A60DA6007F1200300221A606A
:102750005A603B1D00221A605A609A60DA601A6162
:102760005A619A613C4B3D4A1A603B4B14225A60B5
:10277000394B00229A60384B6422DA60364B0022D3
:102780001A61354B00229A61334802F053FA03462E
:10279000002B01D0FFF7A8FD4FF48053BB6207F177
:1027A000280319462C4802F0D5FD0346002B01D022
:1027B000FFF79AFD284802F00DFB0346002B01D0DD
:1027C000FFF792FD00233B6200237B6207F12003A9
:1027D0001946214803F04AF90346002B01D0FFF7C0
:1027E00083FD60237B600023BB600023FB6000232C
:1027F0007B613B1D00221946174802F0EDFC0346A1
:10280000002B01D0FFF770FD3B1D04221946124832
:1028100002F0E2FC0346002B01D0FFF765FD3B1DF3
:10282000082219460C4802F0D7FC0346002B01D0C1
:10283000FFF75AFD3B1D0C221946074802F0CCFC5D
:102840000346002B01D0FFF74FFD034800F068F866
:1028500000BF3837BD4680BD64030020000800403B
:1028600080B586B000AF78607B681B68284A9342C9
:102870000CD1284B9B69274A43F400639361254B95
:102880009B6903F400637B617B693CE07B681B68A8
:10289000B3F1804F14D11F4BDB691E4A43F0010393
:1028A000D3611C4BDB6903F001033B613B690022F0
:1028B0000F211C2000F0F1FA1C2000F00AFB22E09E
:1028C0007B681B68144A93420CD1124BDB69114A96
:1028D00043F00203D3610F4BDB6903F00203FB609B
:1028E000FB6810E07B681B680C4A93420BD1094BD4
:1028F000DB69084A43F00403D361064BDB6903F04C
:102900000403BB60BB6800BF1837BD4680BD00BF75
:10291000002C01400010024000040040000800406C
:1029200080B58CB000AF786007F1140300221A6004
:102930005A609A60DA607B681B68484A93422BD1E0
:10294000474B9B69464A43F040039361444B9B6964
:1029500003F040033B613B694FF4D4437B610223A6
:10296000BB6102233B6207F1140319463D4800F0A6
:102970007BFB3D4B5B687B627B6A23F0C0037B6221
:102980007B6A43F0E0637B627B6A43F0C0037B6257
:10299000354A7B6A53605CE07B681B68334A93422C
:1029A0002BD12F4B9B692E4A43F0100393612C4B84
:1029B0009B6903F01003FB60FB684FF470737B614D
:1029C0000223BB6102233B6207F114031946284826
:1029D00000F04AFB244B5B68BB62BB6A23F4406394
:1029E000BB62BB6A43F0E063BB62BB6A43F4406313
:1029F000BB621D4ABB6A53602BE07B681B681D4AA3
:102A0000934226D1164B9B69154A43F020039361EC
:102A1000134B9B6903F02003BB60BB684FF470430A
:102A20007B610223BB6102233B6207F11403194659
:102A3000114800F019FB0C4B5B68FB62FB6A43F02A
:102A4000E063FB62FB6A43F48053FB62064AFB6A65
:102A5000536000BF3037BD4680BD00BF002C014031
:102A60000010024000180140000001400004004036
:102A700000100140000800400014014080B500AF84
:102A8000114B124A1A60104B4FF416525A600E4BFB
:102A900000229A600C4B0022DA600B4B00221A6174
:102AA000094B0C225A61084B00229A61064B002206
:102AB000DA61054803F09BF80346002B01D0FFF7CD
:102AC00013FC00BF80BD00BFAC03002000440040E9
:102AD00080B58AB000AF786007F1140300221A6055
:102AE0005A609A60DA607B681B68264A934245D137
:102AF000254BDB69244A43F40033D361224BDB6965
:102B000003F400333B613B691F4B9B691E4A43F052
:102B1000200393611C4B9B6903F02003FB60FB685F
:102B200020237B610223BB6103233B6207F1140373
:102B30001946164800F098FA40237B610023BB61D8
:102B40000023FB6107F114031946104800F08CFACA
:102B50000F4B5B687B627B6A43F0E0637B627B6A5E
:102B600043F008037B620A4A7B6A5360002200211B
:102B7000262000F092F9262000F0ABF900BF28379C
:102B8000BD4680BD004400400010024000140140DA
:102B9000000001400C480D490D4A002302E0D458C2
:102BA000C4500433C4188C42F9D30A4A0A4C002397
:102BB00001E013600432A242FBD3FFF70FFC03F0E5
:102BC0004DFDFDF739FF7047000000207000002028
:102BD0005867000870000020F4030020FEE70000A2
:102BE00080B500AF084B1B68074A43F01003136021
:102BF000032000F047F90D2000F008F8FFF77AFBFA
:102C00000023184680BD00BF0020024080B582B07E
:102C100000AF7860124B1A68124B1B7819464FF4BC
:102C20007A73B3FBF1F3B2FBF3F3184600F05FF9EC
:102C30000346002B01D001230EE07B680F2B0AD83E
:102C4000002279684FF0FF3000F027F9064A7B68D0
:102C50001360002300E0012318460837BD4680BDFD
:102C6000640000206C0000206800002080B400AFE9
:102C7000054B1B781A46054B1B681344034A136027
:102C800000BFBD4680BC70476C000020F0030020F0
:102C900080B400AF024B1B681846BD4680BC70472D
:102CA000F003002080B584B000AF7860FFF7F0FF3C
:102CB000B8607B68FB60FB68B3F1FF3F05D00A4B4F
:102CC0001B781A46FB681344FB6000BFFFF7E0FF68
:102CD0000246BB68D31AFA689A42F7D800BF00BF11
:102CE0001037BD4680BD00BF6C00002080B485B0A9
:102CF00000AF78607B6803F00703FB600C4BDB6878
:102D0000BB60BA684FF6FF031340BB60FB681A0252
:102D1000BB68134343F0BF6343F40033BB60044A12
:102D2000BB68D36000BF1437BD4680BC704700BF8E
:102D300000ED00E080B400AF044BDB681B0A03F039
:102D400007031846BD4680BC704700BF00ED00E099
:102D500080B483B000AF0346FB7197F90730002BB6
:102D60000BDBFB7903F01F02064997F907305B097B
:102D7000012000FA02F241F8232000BF0C37BD46C3
:102D800080BC704700E100E080B483B000AF034630
:102D90003960FB7197F90730002B0ADB3B68DAB228
:102DA0000C4997F907301201D2B20B4483F8002383
:102DB0000AE03B68DAB20849FB7903F00F03043BF1
:102DC0001201D2B20B441A7600BF0C37BD4680BC4C
:102DD000704700BF00E100E000ED00E080B489B082
:102DE00000AFF860B9607A60FB6803F00703FB612D
:102DF000FB69C3F10703042B28BF0423BB61FB69F4
:102E00000433062B02D9FB69033B00E000237B61FE
:102E10004FF0FF32BB6902FA03F3DA43BB681A4092
:102E20007B699A404FF0FF317B6901FA03F3D94384
:102E30007B680B40134318462437BD4680BC70475F
:102E400080B582B000AF78607B68013BB3F1807FD2
:102E500001D301230FE00A4A7B68013B53600F2135
:102E60004FF0FF30FFF790FF054B00229A60044BB4
:102E700007221A60002318460837BD4680BD00BFF0
:102E800010E000E080B582B000AF78607868FFF7AE
:102E90002DFF00BF0837BD4680BD80B586B000AFAE
:102EA0000346B9607A60FB7300237B61FFF742FF42
:102EB00078617A68B9687869FFF790FF024697F9F8
:102EC0000F3011461846FFF75FFF00BF1837BD46A9
:102ED00080BD80B582B000AF0346FB7197F9073023
:102EE0001846FFF735FF00BF0837BD4680BD80B5E7
:102EF00082B000AF78607868FFF7A2FF03461846FB
:102F00000837BD4680BD80B485B000AF786000232F
:102F1000FB737B6893F82130022B08D07B68042276
:102F20009A637B68002283F82020012320E07B68DD
:102F30001B681A687B681B6822F00E021A607B68A7
:102F40001B681A687B681B6822F001021A607B68A4
:102F50001A6C7B68DB6B012101FA02F25A607B6814
:102F6000012283F821207B68002283F82020FB7B4C
:102F700018461437BD4680BC7047000080B584B049
:102F800000AF78600023FB737B6893F82130022B3D
:102F900005D07B6804229A630123FB7351E07B68B0
:102FA0001B681A687B681B6822F00E021A607B6837
:102FB0001B681A687B681B6822F001021A607B6834
:102FC0001B68224A934229D07B681B68204A93429F
:102FD00022D07B681B681F4A93421AD07B681B680B
:102FE0001D4A934212D07B681B681C4A93420AD048
:102FF0007B681B681A4A934202D14FF480130EE09B
:103000004FF080730BE04FF4803308E04FF48053AF
:1030100005E04FF4807302E0102300E00123114A21
:1030200053607B68012283F821207B68002283F8AB
:1030300020207B685B6B002B03D07B685B6B786820
:103040009847FB7B18461037BD4680BD08000240FC
:103050001C00024030000240440002405800024080
:103060006C0002400000024080B48BB000AF78607A
:10307000396000237B6200233B6269E101227B6AA5
:1030800002FA03F3FB613B681B68FA691340BB61FA
:10309000BA69FB699A4240F058813B685B689A4A7A
:1030A00093425ED0984A934275D8984A934258D03A
:1030B000964A93426FD8964A934252D0944A93428A
:1030C00069D8944A93424CD0924A934263D8924A28
:1030D000934246D0904A93425DD8122B2AD8122BA5
:1030E00059D801A252F823F0633100083D3100089D
:1030F0004F310008913100089731000897310008DE
:10310000973100089731000897310008973100087F
:10311000973100089731000897310008973100086F
:1031200097310008973100089731000845310008B1
:1031300059310008794A934213D02CE03B68DB6890
:103140003B6229E03B68DB6804333B6224E03B6878
:10315000DB6808333B621FE03B68DB680C333B6293
:103160001AE03B689B68002B02D104233B6213E00A
:103170003B689B68012B05D108233B627B68FA6999
:103180001A6109E008233B627B68FA695A6103E02F
:1031900000233B6200E000BFBB69FF2B01D87B68C6
:1031A00001E07B6804337B61BB69FF2B02D87B6A3B
:1031B0009B0002E07B6A083B9B003B617B691A68CD
:1031C0000F213B6901FA03F3DB431A40396A3B697B
:1031D00001FA03F31A437B691A603B685B6803F0EA
:1031E0008053002B00F0B1804D4B9B694C4A43F05B
:1031F000010393614A4B9B6903F00103BB60BB6809
:10320000484A7B6A9B08023352F82330FB607B6A92
:1032100003F003039B000F2202FA03F3DB43FA6877
:103220001340FB607B68404A934213D07B683F4A5F
:1032300093420DD07B683E4A934207D07B683D4A5B
:10324000934201D1032306E0042304E0022302E0B9
:10325000012300E000237A6A02F003029200934007
:10326000FA681343FB602F497B6A9B080233FA68B4
:1032700041F823203B685B6803F48033002B06D0C1
:103280002D4B1A682C49BB6913430B6006E02A4B8F
:103290001A68BB69DB43284913400B603B685B68D5
:1032A00003F40033002B06D0234B5A682249BB6934
:1032B00013434B6006E0204B5A68BB69DB431E4951
:1032C00013404B603B685B6803F48013002B06D00F
:1032D000194B9A681849BB6913438B6006E0164B7B
:1032E0009A68BB69DB43144913408B603B685B6899
:1032F00003F40013002B21D00F4BDA680E49BB6991
:103300001343CB6021E000BF0000321000003110F9
:103310000000221000002110000012100000111007
:10332000001002400000014000080140000C014074
:103330000010014000140140000401400B4BDA680A
:10334000BB69DB4309491340CB607B6A01337B6275
:103350003B681A687B6A22FA03F3002B7FF48EAE77
:1033600000BF00BF2C37BD4680BC70470004014041
:1033700080B485B000AF78600B467B807B689A682C
:103380007B881340002B02D00123FB7301E0002354
:10339000FB73FB7B18461437BD4680BC704780B476
:1033A00083B000AF78600B467B8013467B707B78E0
:1033B000002B03D07A887B681A6103E07B881A04AB
:1033C0007B681A6100BF0C37BD4680BC70470000A7
:1033D00080B582B000AF0346FB80084B5A69FB887A
:1033E0001340002B06D0054AFB885361FB88184622
:1033F000FEF716F900BF0837BD4680BD0004014046
:1034000080B584B000AF78607B68002B01D10123C8
:103410002BE17B6893F83D30DBB2002B06D17B6853
:10342000002283F83C207868FDF7C8FA7B682422E4
:1034300083F83D207B681B681A687B681B6822F054
:1034400001021A607B681B681A687B681B6842F47B
:1034500000421A607B681B681A687B681B6822F44C
:1034600000421A6001F0A0FBF8607B685B68814A4B
:10347000934207D8FB68804A934294BF01230023FC
:10348000DBB206E0FB687D4A934294BF0123002330
:10349000DBB2002B01D00123E7E0FB68784AA2FBF6
:1034A00003239B0CBB607B681B685B6823F03F01B8
:1034B0007B681B68BA680A435A607B681B681B6A92
:1034C00023F03F017B685B686A4A934202D8BB687D
:1034D000013309E0BB684FF4967202FB03F3694ABB
:1034E000A2FB03239B0901337A6812680B43136222
:1034F0007B681B68DB6923F44F4222F0FF027B6884
:103500005B685C498B4219D8FB68591E7B685B6815
:103510005B00B1FBF3F3591C40F6FC730B40002B2E
:103520000AD0FB68591E7B685B685B00B1FBF3F354
:103530000133C3F30B0351E004234FE07B689B6826
:10354000002B11D1FB68581E7B6859680B465B0045
:103550000B44B0FBF3F30133C3F30B03002B0CBF9D
:1035600001230023DBB212E0FB68581E7B68596818
:103570000B469B000B4499000B44B0FBF3F3013363
:10358000C3F30B03002B0CBF01230023DBB2002B82
:1035900001D0012322E07B689B68002B0ED1FB68E1
:1035A000581E7B6859680B465B000B44B0FBF3F375
:1035B0000133C3F30B0343F400430FE0FB68581ED1
:1035C0007B6859680B469B000B4499000B44B0FB89
:1035D000F3F30133C3F30B0343F440437968096801
:1035E0001343CB617B681B681B6823F0C0017B68B9
:1035F000DA697B681B6A1A437B681B680A431A6096
:103600007B681B689B6823F4034323F0FF037A68FD
:1036100011697A68D26811437A6812680B43936023
:103620007B681B68DB6823F0FF017B685A697B6855
:103630009B691A437B681B680A43DA607B681B68D6
:103640001A687B681B6842F001021A607B680022DE
:103650001A647B68202283F83D207B6800221A636D
:103660007B68002283F83E20002318461037BD46B1
:1036700080BD00BFA08601007F841E00FF083D00C2
:1036800083DE1B43D34D621080B588B002AFF86073
:10369000084611461A4603467B810B463B8113467A
:1036A000FB80FFF7F5FA7861FB6893F83D30DBB2F9
:1036B000202B40F0D9807B690093192301226D49AA
:1036C000F86800F0C1FC0346002B01D00223CCE0D7
:1036D000FB6893F83C30012B01D10223C5E0FB6865
:1036E000012283F83C20FB681B681B6803F0010380
:1036F000012B07D0FB681B681A68FB681B6842F047
:1037000001021A60FB681B681A68FB681B6822F4D8
:1037100000621A60FB68212283F83D20FB6840228A
:1037200083F83E20FB6800221A64FB683A6A5A62FA
:10373000FB68BA8C5A85FB685B8D9AB2FB681A8568
:10374000FB684D4ADA62F8883A8979897B69019386
:10375000BB6A00930346F86800F0F8FA0346002BB2
:1037600052D0012381E07A69B96AF86800F042FD1D
:103770000346002B0DD0FB681B6C042B07D1FB68A4
:103780001B681A68FB681B6842F400721A60012308
:103790006BE0FB685B6A1A78FB681B681A61FB6860
:1037A0005B6A5A1CFB685A62FB681B8D013B9AB22C
:1037B000FB681A85FB685B8D9BB2013B9AB2FB6884
:1037C0005A85FB681B685B6903F00403042B1BD15B
:1037D000FB681B8D002B17D0FB685B6A1A78FB68AF
:1037E0001B681A61FB685B6A5A1CFB685A62FB68BB
:1037F0001B8D013B9AB2FB681A85FB685B8D9BB2FF
:10380000013B9AB2FB685A85FB681B8D002BAAD13D
:103810007A69B96AF86800F02EFD0346002B0DD0D6
:10382000FB681B6C042B07D1FB681B681A68FB68DC
:103830001B6842F400721A60012316E0FB681B68E3
:103840001A68FB681B6842F400721A60FB68202249
:1038500083F83D20FB68002283F83E20FB680022AD
:1038600083F83C20002300E0022318461837BD46A9
:1038700080BD00BF020010000000FFFF80B58CB0CB
:1038800002AFF860084611461A4603467B810B4694
:103890003B811346FB8000233B62FFF7F9F9786216
:1038A000FB6893F83D30DBB2202B40F044827B6A0A
:1038B0000093192301228249F86800F0C5FB0346F2
:1038C000002B01D0022337E2FB6893F83C30012B38
:1038D00001D1022330E2FB68012283F83C20FB681F
:1038E0001B681B6803F00103012B07D0FB681B68F2
:1038F0001A68FB681B6842F001021A60FB681B68CB
:103900001A68FB681B6822F400621A60FB682222B6
:1039100083F83D20FB68402283F83E20FB680022AC
:103920001A64FB683A6B5A62FB68BA8E5A85FB6868
:103930005B8D9AB2FB681A85FB68624ADA62F88886
:103940003A8979897B6A0193BB6B00930346F868D7
:1039500000F092FA0346002B01D00123ECE1FB6852
:103960001B8D002B13D10023FB61FB681B685B6977
:10397000FB61FB681B689B69FB61FB69FB681B685B
:103980001A68FB681B6842F400721A60C0E1FB68A9
:103990001B8D012B1ED1FB681B681A68FB681B6816
:1039A00022F480621A6072B600BF0023BB61FB681C
:1039B0001B685B69BB61FB681B689B69BB61BB697A
:1039C000FB681B681A68FB681B6842F400721A6087
:1039D00062B635E0FB681B8D022B1ED1FB681B68AD
:1039E0001A68FB681B6842F400621A6072B600BF76
:1039F00000237B61FB681B685B697B61FB681B685C
:103A00009B697B617B69FB681B681A68FB681B68A4
:103A100022F480621A6062B612E0FB681B681A68C2
:103A2000FB681B6842F480621A6000233B61FB68FC
:103A30001B685B693B61FB681B689B693B613B6979
:103A400066E1FB681B8D032B00F21F81FB681B8D59
:103A5000012B23D17A6AB96BF86800F04DFC03465C
:103A6000002B01D0012367E1FB681B681A69FB6822
:103A70005B6AD2B21A70FB685B6A5A1CFB685A62B6
:103A8000FB681B8D013B9AB2FB681A85FB685B8D56
:103A90009BB2013B9AB2FB685A8539E1FB681B8DEA
:103AA000022B52D17B6A0093BB6B00220649F86857
:103AB00000F0CAFA0346002B08D001233CE100BF06
:103AC000020010000000FFFF0400010072B600BFFA
:103AD000FB681B681A68FB681B6842F400721A6076
:103AE000FB681B681A69FB685B6AD2B21A70FB68D4
:103AF0005B6A5A1CFB685A62FB681B8D013B9AB2D9
:103B0000FB681A85FB685B8D9BB2013B9AB2FB6830
:103B10005A8562B600BFFB681B681A69FB685B6A5E
:103B2000D2B21A70FB685B6A5A1CFB685A62FB6867
:103B30001B8D013B9AB2FB681A85FB685B8D9BB2BB
:103B4000013B9AB2FB685A85E2E07B6A0093BB6B4B
:103B500000227B49F86800F077FA0346002B01D079
:103B60000123E9E0FB681B681A68FB681B6822F404
:103B700080621A6072B600BFFB681B681A69FB6836
:103B80005B6AD2B21A70FB685B6A5A1CFB685A62A5
:103B9000FB681B8D013B9AB2FB681A85FB685B8D45
:103BA0009BB2013B9AB2FB685A85664B1B68DB08E7
:103BB000654AA2FB03231A0A13469B001344DA004A
:103BC000D31A3B623B6A013B3B623B6A002B18D134
:103BD000FB6800221A63FB68202283F83D20FB6803
:103BE000002283F83E20FB681B6C43F02002FB6838
:103BF0001A6462B600BFFB68002283F83C200123F0
:103C00009AE0FB681B685B6903F00403042BD9D1BD
:103C1000FB681B681A68FB681B6842F400721A6034
:103C2000FB681B681A69FB685B6AD2B21A70FB6892
:103C30005B6A5A1CFB685A62FB681B8D013B9AB297
:103C4000FB681A85FB685B8D9BB2013B9AB2FB68EF
:103C50005A8562B600BFFB681B681A69FB685B6A1D
:103C6000D2B21A70FB685B6A5A1CFB685A62FB6826
:103C70001B8D013B9AB2FB681A85FB685B8D9BB27A
:103C8000013B9AB2FB685A8542E07A6AB96BF868E0
:103C900000F032FB0346002B01D001234CE0FB680F
:103CA0001B681A69FB685B6AD2B21A70FB685B6AB0
:103CB0005A1CFB685A62FB681B8D013B9AB2FB6879
:103CC0001A85FB685B8D9BB2013B9AB2FB685A85F3
:103CD000FB681B685B6903F00403042B18D1FB68C5
:103CE0001B681A69FB685B6AD2B21A70FB685B6A70
:103CF0005A1CFB685A62FB681B8D013B9AB2FB6839
:103D00001A85FB685B8D9BB2013B9AB2FB685A85B2
:103D1000FB681B8D002B7FF494AEFB68202283F898
:103D20003D20FB68002283F83E20FB68002283F8D8
:103D30003C20002300E0022318462837BD4680BD02
:103D4000040001006400002089B5F81480B588B033
:103D500002AFF860084611461A4603467B810B46BF
:103D60003B811346FB80FB681B681A68FB681B6875
:103D700042F480721A607B6A00933B6A00224FF023
:103D80000111F86800F060F90346002B0DD0FB68C4
:103D90001B681B6803F48073B3F5807F03D1FB6855
:103DA0004FF400721A6403235FE07B89DBB21A468A
:103DB000FB681B6802F0FE021A617B6A3A6A2D49B1
:103DC000F86800F098F90346002B01D001234CE07D
:103DD00000237B61FB681B685B697B61FB681B6878
:103DE0009B697B617B697A6A396AF86800F002FA3C
:103DF0000346002B0DD0FB681B6C042B07D1FB681E
:103E00001B681A68FB681B6842F400721A60012381
:103E10002BE0FB88012B05D13B89DAB2FB681B68DC
:103E20001A6121E03B891B0A9BB2DAB2FB681B686E
:103E30001A617A6A396AF86800F0DCF90346002BE7
:103E40000DD0FB681B6C042B07D1FB681B681A683C
:103E5000FB681B6842F400721A60012305E03B898D
:103E6000DAB2FB681B681A61002318461837BD4692
:103E700080BD00BF0200010080B588B002AFF860CD
:103E8000084611461A4603467B810B463B81134682
:103E9000FB80FB681B681A68FB681B6842F4806241
:103EA0001A60FB681B681A68FB681B6842F4807222
:103EB0001A607B6A00933B6A00224FF00111F86898
:103EC00000F0C2F80346002B0DD0FB681B681B688E
:103ED00003F48073B3F5807F03D1FB684FF4007265
:103EE0001A640323AAE07B89DBB21A46FB681B68CD
:103EF00002F0FE021A617B6A3A6A5249F86800F0E1
:103F0000FAF80346002B01D0012397E000237B61E0
:103F1000FB681B685B697B61FB681B689B697B6155
:103F20007B697A6A396AF86800F064F90346002B05
:103F30000DD0FB681B6C042B07D1FB681B681A684B
:103F4000FB681B6842F400721A60012376E0FB886C
:103F5000012B05D13B89DAB2FB681B681A6121E0AD
:103F60003B891B0A9BB2DAB2FB681B681A617A6A4A
:103F7000396AF86800F03EF90346002B0DD0FB6863
:103F80001B6C042B07D1FB681B681A68FB681B6855
:103F900042F400721A60012350E03B89DAB2FB68F8
:103FA0001B681A617A6A396AF86800F023F90346D7
:103FB000002B0DD0FB681B6C042B07D1FB681B6822
:103FC0001A68FB681B6842F400721A60012335E02E
:103FD000FB681B681A68FB681B6842F480721A60F1
:103FE0007B6A00933B6A00224FF00111F86800F0F1
:103FF0002BF80346002B0DD0FB681B681B6803F4ED
:104000008073B3F5807F03D1FB684FF400721A64AC
:10401000032313E07B89DBB243F00103DAB2FB68D0
:104020001B681A617B6A3A6A0649F86800F063F80F
:104030000346002B01D0012300E000231846183767
:10404000BD4680BD0200010080B584B000AFF860BD
:10405000B9603B601346FB7125E03B68B3F1FF3F5D
:1040600021D0FEF715FE0246BB69D31A3A689A4280
:1040700002D33B68002B16D1FB6800221A63FB6851
:10408000202283F83D20FB68002283F83E20FB6855
:104090001B6C43F02002FB681A64FB68002283F863
:1040A0003C20012323E0BB681B0CDBB2012B0DD1AC
:1040B000FB681B685B69DA43BB6813409BB2002B4B
:1040C0000CBF01230023DBB21A460CE0FB681B681F
:1040D0009B69DA43BB6813409BB2002B0CBF0123E2
:1040E0000023DBB21A46FB799A42B6D00023184669
:1040F0001037BD4680BD80B584B000AFF860B960B0
:104100007A603B6051E0FB681B685B6903F4806385
:10411000B3F5806F23D1FB681B681A68FB681B68C6
:1041200042F400721A60FB681B686FF480625A6187
:10413000FB6800221A63FB68202283F83D20FB689D
:10414000002283F83E20FB681B6C43F00402FB68EE
:104150001A64FB68002283F83C20012346E07B6858
:10416000B3F1FF3F21D0FEF793FD02463B68D31A1F
:104170007A689A4202D37B68002B16D1FB68002232
:104180001A63FB68202283F83D20FB68002283F835
:104190003E20FB681B6C43F02002FB681A64FB683E
:1041A000002283F83C20012320E0BB681B0CDBB21B
:1041B000012B0CD1FB681B685B69DA43BB681340B9
:1041C0009BB2002B14BF01230023DBB20BE0FB6882
:1041D0001B689B69DA43BB6813409BB2002B14BF7A
:1041E00001230023DBB2002B8DD1002318461037AA
:1041F000BD4680BD80B584B000AFF860B9607A601C
:104200002DE0F86800F0CEF80346002B01D0012322
:104210002DE0BB68B3F1FF3F21D0FEF739FD024628
:104220007B68D31ABA689A4202D3BB68002B16D1B6
:10423000FB6800221A63FB68202283F83D20FB689C
:10424000002283F83E20FB681B6C43F02002FB68D1
:104250001A64FB68002283F83C20012307E0FB6816
:104260001B685B6903F08003802BCAD100231846CA
:104270001037BD4680BD80B584B000AFF860B9602E
:104280007A602DE0F86800F08DF80346002B01D02D
:1042900001232DE0BB68B3F1FF3F21D0FEF7F8FC0E
:1042A00002467B68D31ABA689A4202D3BB68002BD5
:1042B00016D1FB6800221A63FB68202283F83D2098
:1042C000FB68002283F83E20FB681B6C43F0200251
:1042D000FB681A64FB68002283F83C20012307E096
:1042E000FB681B685B6903F00403042BCAD100233D
:1042F00018461037BD4680BD80B584B000AFF86069
:10430000B9607A6042E0FB681B685B6903F01003E8
:10431000102B19D1FB681B686FF010025A61FB6803
:1043200000221A63FB68202283F83D20FB680022EC
:1043300083F83E20FB681A6CFB681A64FB68002255
:1043400083F83C20012329E0FEF7A2FC02467B68AB
:10435000D31ABA689A4202D3BB68002B16D1FB6805
:1043600000221A63FB68202283F83D20FB680022AC
:1043700083F83E20FB681B6C43F02002FB681A6444
:10438000FB68002283F83C20012307E0FB681B68E0
:104390005B6903F04003402BB5D10023184610376A
:1043A000BD4680BD80B483B000AF78607B681B6879
:1043B0005B6903F48063B3F5806F1BD17B681B6876
:1043C0006FF480625A617B6800221A637B68202246
:1043D00083F83D207B68002283F83E207B681B6CBD
:1043E00043F004027B681A647B68002283F83C2057
:1043F000012300E0002318460C37BD4680BC7047FF
:1044000080B586B000AF78607B68002B01D10123B6
:1044100072E27B681B6803F00103002B00F08780C9
:10442000924B5B6803F00C03042B0CD08F4B5B6842
:1044300003F00C03082B12D18C4B5B6803F4803320
:10444000B3F5803F0BD1894B1B6803F40033002B7D
:104450006CD07B685B68002B68D101234CE27B68E1
:104460005B68B3F5803F06D1804B1B687F4A43F4FD
:10447000803313602EE07B685B68002B0CD17B4B94
:104480001B687A4A23F480331360784B1B68774AA1
:1044900023F4802313601DE07B685B68B3F5A02FD5
:1044A0000CD1724B1B68714A43F4802313606F4B2D
:1044B0001B686E4A43F4803313600BE06B4B1B6840
:1044C0006A4A23F480331360684B1B68674A23F4FD
:1044D000802313607B685B68002B13D0FEF7D8FB4A
:1044E000386108E0FEF7D4FB02463B69D31A642B1F
:1044F00001D9032300E25D4B1B6803F40033002B5A
:10450000F0D014E0FEF7C4FB386108E0FEF7C0FB12
:1045100002463B69D31A642B01D90323ECE1534BC8
:104520001B6803F40033002BF0D100E000BF7B6870
:104530001B6803F00203002B63D04C4B5B6803F055
:104540000C03002B0BD0494B5B6803F00C03082BCA
:104550001CD1464B5B6803F48033002B16D1434BD0
:104560001B6803F00203002B05D07B681B69012B3D
:1045700001D00123C0E13D4B1B6823F0F8027B68AA
:104580005B69DB00394913430B603AE07B681B69C8
:10459000002B20D0364B01221A60FEF779FB3861E0
:1045A00008E0FEF775FB02463B69D31A022B01D9DE
:1045B0000323A1E12D4B1B6803F00203002BF0D075
:1045C0002A4B1B6823F0F8027B685B69DB002749F4
:1045D00013430B6015E0264B00221A60FEF758FBD0
:1045E000386108E0FEF754FB02463B69D31A022B00
:1045F00001D9032380E11D4B1B6803F00203002B4C
:10460000F0D17B681B6803F00803002B3AD07B686D
:104610009B69002B19D0174B01221A60FEF738FB5B
:10462000386108E0FEF734FB02463B69D31A022BDF
:1046300001D9032360E10D4B5B6A03F00203002BF9
:10464000F0D0012000F0D8FA1CE00A4B00221A60DA
:10465000FEF71EFB38610FE0FEF71AFB02463B69CE
:10466000D31A022B08D9032346E100BF00100240F1
:104670000000424280044242924B5B6A03F0020314
:10468000002BE9D17B681B6803F00403002B00F0CA
:10469000A6800023FB758B4BDB6903F08053002B56
:1046A0000DD1884BDB69874A43F08053D361854B3A
:1046B000DB6903F08053BB60BB680123FB75824B51
:1046C0001B6803F48073002B18D17F4B1B687E4A54
:1046D00043F480731360FEF7DBFA386108E0FEF7FD
:1046E000D7FA02463B69D31A642B01D9032303E1AD
:1046F000754B1B6803F48073002BF0D07B68DB687C
:10470000012B06D16F4B1B6A6E4A43F00103136203
:104710002DE07B68DB68002B0CD16A4B1B6A694A71
:1047200023F001031362674B1B6A664A23F00403FC
:1047300013621CE07B68DB68052B0CD1614B1B6AA4
:10474000604A43F0040313625E4B1B6A5D4A43F008
:10475000010313620BE05B4B1B6A5A4A23F001030F
:104760001362584B1B6A574A23F0040313627B6899
:10477000DB68002B15D0FEF78BFA38610AE0FEF7F4
:1047800087FA02463B69D31A41F28832934201D933
:104790000323B1E04B4B1B6A03F00203002BEED066
:1047A00014E0FEF775FA38610AE0FEF771FA024686
:1047B0003B69D31A41F28832934201D903239BE02B
:1047C000404B1B6A03F00203002BEED1FB7D012B53
:1047D00005D13C4BDB693B4A23F08053D3617B68B6
:1047E000DB69002B00F08780364B5B6803F00C031D
:1047F000082B61D07B68DB69022B46D1334B00224A
:104800001A60FEF745FA386108E0FEF741FA024601
:104810003B69D31A022B01D903236DE0294B1B6896
:1048200003F00073002BF0D17B681B6AB3F5803F67
:1048300008D1244B5B6823F400327B689B682149D4
:1048400013434B601F4B5B6823F474127B68196A37
:104850007B685B6A0B431B4913434B601B4B012274
:104860001A60FEF715FA386108E0FEF711FA024601
:104870003B69D31A022B01D903233DE0114B1B687E
:1048800003F00073002BF0D035E0104B00221A60CB
:10489000FEF7FEF9386108E0FEF7FAF902463B69D7
:1048A000D31A022B01D9032326E0064B1B6803F021
:1048B0000073002BF0D11EE07B68DB69012B07D170
:1048C000012319E0001002400070004060004242E5
:1048D0000B4B5B68FB60FB6803F480327B681B6AF0
:1048E0009A4206D1FB6803F470127B685B6A9A42B5
:1048F00001D0012300E0002318461837BD4680BDD3
:104900000010024080B584B000AF786039607B68E9
:10491000002B01D10123D0E06A4B1B6803F0070391
:104920003A689A4210D9674B1B6823F00702654921
:104930003B6813430B60634B1B6803F007033A6843
:104940009A4201D00123B8E07B681B6803F00203A0
:10495000002B20D07B681B6803F00403002B05D0DC
:10496000594B5B68584A43F4E06353607B681B68AB
:1049700003F00803002B05D0534B5B68524A43F405
:1049800060535360504B5B6823F0F0027B689B6878
:104990004D4913434B607B681B6803F00103002BF8
:1049A00040D07B685B68012B07D1474B1B6803F441
:1049B0000033002B15D101237FE07B685B68022B5D
:1049C00007D1414B1B6803F00073002B09D1012371
:1049D00073E03D4B1B6803F00203002B01D1012360
:1049E0006BE0394B5B6823F003027B685B683649F8
:1049F00013434B60FEF74CF9F8600AE0FEF748F904
:104A00000246FB68D31A41F28832934201D903234C
:104A100053E02D4B5B6803F00C027B685B689B00E6
:104A20009A42EBD1274B1B6803F007033A689A427E
:104A300010D2244B1B6823F0070222493B68134322
:104A40000B60204B1B6803F007033A689A4201D0C1
:104A5000012332E07B681B6803F00403002B08D0BD
:104A6000194B5B6823F4E0627B68DB6816491343EB
:104A70004B607B681B6803F00803002B09D0124BC6
:104A80005B6823F460527B681B69DB000E491343AB
:104A90004B6000F021F802460B4B5B681B0903F0EA
:104AA0000F030A49CB5C22FA03F3094A1360094B4E
:104AB0001B681846FEF7AAF8002318461037BD46B3
:104AC00080BD00BF0020024000100240386700088F
:104AD000640000206800002090B48AB000AF294B29
:104AE0003C1D0FCB84E80F0040F201233B800023E4
:104AF000FB610023BB6100237B6200237B610023F9
:104B00003B62214B5B68FB61FB6903F00C03042BE8
:104B100002D0082B03D02BE01C4B3B622BE0FB693F
:104B20009B0C03F00F0328333B4413F8243C7B61B8
:104B3000FB6903F48033002B12D0134B5B685B0CD2
:104B400003F0010328333B4413F8283CBB617B6925
:104B50000E4A03FB02F2BB69B2FBF3F37B6204E093
:104B60007B690B4A02FB03F37B627B6A3B6202E0D8
:104B7000064B3B6200BF3B6A18462837BD4690BCD7
:104B8000704700BF286700080010024000127A003A
:104B900000093D0080B400AF024B1B681846BD46BB
:104BA00080BC70476400002080B500AFFFF7F2FFC3
:104BB0000246054B5B681B0A03F007030349CB5C05
:104BC00022FA03F3184680BD00100240486700082F
:104BD00080B500AFFFF7DEFF0246054B5B68DB0ADE
:104BE00003F007030349CB5C22FA03F3184680BDA8
:104BF000001002404867000880B485B000AF7860BC
:104C00000A4B1B680A4AA2FB03235B0A7A6802FB71
:104C100003F3FB6000BFFB685A1EFA60002BF9D15A
:104C200000BF00BF1437BD4680BC70476400002041
:104C3000D34D621080B582B000AF78607B68002BE6
:104C400001D1012341E07B6893F83D30DBB2002BBA
:104C500006D17B68002283F83C207868FDF700FECF
:104C60007B68022283F83D207B681A687B680433E6
:104C70001946104600F056FC7B68012283F8462056
:104C80007B68012283F83E207B68012283F83F2065
:104C90007B68012283F840207B68012283F8412051
:104CA0007B68012283F842207B68012283F843203D
:104CB0007B68012283F844207B68012283F8452029
:104CC0007B68012283F83D20002318460837BD4643
:104CD00080BD000080B485B000AF78607B6893F839
:104CE0003D30DBB2012B01D001233AE07B68022288
:104CF00083F83D207B681B68DA687B681B6842F09C
:104D00000102DA607B681B68184A93420ED07B6808
:104D10001B68B3F1804F09D07B681B68144A93422B
:104D200004D07B681B68134A934211D17B681B68CF
:104D30009B6803F00703FB60FB68062B10D07B68C1
:104D40001B681A687B681B6842F001021A6007E062
:104D50007B681B681A687B681B6842F001021A6056
:104D6000002318461437BD4680BC7047002C014014
:104D7000000400400008004080B483B000AF7860B9
:104D80007B681B68DA687B681B6822F00102DA60C6
:104D90007B681B681A6A41F211131340002B0FD174
:104DA0007B681B681A6A40F244431340002B07D10A
:104DB0007B681B681A687B681B6822F001021A6016
:104DC0007B68012283F83D20002318460C37BD463E
:104DD00080BC704780B582B000AF78607B68002BE4
:104DE00001D1012341E07B6893F83D30DBB2002B19
:104DF00006D17B68002283F83C20786800F039F8FF
:104E00007B68022283F83D207B681A687B68043344
:104E10001946104600F086FB7B68012283F8462085
:104E20007B68012283F83E207B68012283F83F20C3
:104E30007B68012283F840207B68012283F84120AF
:104E40007B68012283F842207B68012283F843209B
:104E50007B68012283F844207B68012283F8452087
:104E60007B68012283F83D20002318460837BD46A1
:104E700080BD80B483B000AF786000BF0C37BD4602
:104E800080BC704780B584B000AF786039603B6803
:104E9000002B09D17B6893F83E30DBB2012B14BFA5
:104EA00001230023DBB222E03B68042B09D17B689D
:104EB00093F83F30DBB2012B14BF01230023DBB298
:104EC00015E03B68082B09D17B6893F84030DBB2D2
:104ED000012B14BF01230023DBB208E07B6893F8A9
:104EE0004130DBB2012B14BF01230023DBB2002BC6
:104EF00001D001235EE03B68002B04D17B680222D5
:104F000083F83E2013E03B68042B04D17B68022227
:104F100083F83F200BE03B68082B04D17B6802221A
:104F200083F8402003E07B68022283F841207B68FD
:104F30001B6801223968184600F074FD7B681B6805
:104F40001E4A934207D17B681B685A6C7B681B68BA
:104F500042F400425A647B681B68184A93420ED0A0
:104F60007B681B68B3F1804F09D07B681B68144ACB
:104F7000934204D07B681B68124A934211D17B682C
:104F80001B689B6803F00703FB60FB68062B10D0CF
:104F90007B681B681A687B681B6842F001021A6014
:104FA00007E07B681B681A687B681B6842F0010297
:104FB0001A60002318461037BD4680BD002C014002
:104FC000000400400008004080B582B000AF786067
:104FD0007B681B681B6903F00203022B22D17B68EC
:104FE0001B68DB6803F00203022B1BD17B681B6884
:104FF0006FF002021A617B6801221A777B681B68D6
:105000009B6903F00303002B03D0786800F06FFA6C
:1050100005E0786800F062FA786800F071FA7B6861
:1050200000221A777B681B681B6903F00403042BBA
:1050300022D17B681B68DB6803F00403042B1BD1BF
:105040007B681B686FF004021A617B6802221A7782
:105050007B681B689B6903F44073002B03D078685E
:1050600000F045FA05E0786800F038FA786800F05A
:1050700047FA7B6800221A777B681B681B6903F07C
:105080000803082B22D17B681B68DB6803F0080348
:10509000082B1BD17B681B686FF008021A617B68C4
:1050A00004221A777B681B68DB6903F00303002B7B
:1050B00003D0786800F01BFA05E0786800F00EFA7B
:1050C000786800F01DFA7B6800221A777B681B68FD
:1050D0001B6903F01003102B22D17B681B68DB686F
:1050E00003F01003102B1BD17B681B686FF01002BC
:1050F0001A617B6808221A777B681B68DB6903F4F6
:105100004073002B03D0786800F0F1F905E078686F
:1051100000F0E4F9786800F0F3F97B6800221A7770
:105120007B681B681B6903F00103012B0ED17B68B0
:105130001B68DB6803F00103012B07D17B681B6848
:105140006FF001021A617868FCF79EFA7B681B68B1
:105150001B6903F08003802B0ED17B681B68DB6822
:1051600003F08003802B07D17B681B686FF08002FF
:105170001A61786800F032FD7B681B681B6903F0D8
:105180004003402B0ED17B681B68DB6803F04003B3
:10519000402B07D17B681B686FF040021A6178686A
:1051A00000F0B7F97B681B681B6903F02003202B14
:1051B0000ED17B681B68DB6803F02003202B07D12E
:1051C0007B681B686FF020021A61786800F0FDFCB4
:1051D00000BF0837BD4680BD80B584B000AFF86021
:1051E000B9607A60FB6893F83C30012B01D102234F
:1051F000ACE0FB68012283F83C207B680C2B00F2BA
:105200009F8001A252F823F03D520008415300084C
:1052100041530008415300087D52000841530008E3
:105220004153000841530008BF5200084153000891
:105230004153000841530008FF520008FB681B68F7
:10524000B968184600F0D0F9FB681B689A69FB68DA
:105250001B6842F008029A61FB681B689A69FB6848
:105260001B6822F004029A61FB681B689969BB689D
:105270001A69FB681B680A439A6162E0FB681B6855
:10528000B968184600F016FAFB681B689A69FB6853
:105290001B6842F400629A61FB681B689A69FB68AC
:1052A0001B6822F480629A61FB681B689969BB687D
:1052B0001B691A02FB681B680A439A6141E0FB689C
:1052C0001B68B968184600F05FFAFB681B68DA696A
:1052D000FB681B6842F00802DA61FB681B68DA6948
:1052E000FB681B6822F00402DA61FB681B68D9695D
:1052F000BB681A69FB681B680A43DA6121E0FB6836
:105300001B68B968184600F0A9FAFB681B68DA69DF
:10531000FB681B6842F40062DA61FB681B68DA69AB
:10532000FB681B6822F48062DA61FB681B68D9693C
:10533000BB681B691A02FB681B680A43DA6100E05C
:1053400000BFFB68002283F83C200023184610377A
:10535000BD4680BD80B584B000AF786039607B68A1
:1053600093F83C30012B01D10223B3E07B6801228A
:1053700083F83C207B68022283F83D207B681B6811
:105380009B68FB60FB6823F07703FB60FB6823F4FA
:105390007F43FB607B681B68FA689A603B681B6808
:1053A000B3F5005F3ED0B3F5005F00F28780B3F540
:1053B000805F00F08580B3F5805F7FD8702B1AD0B6
:1053C000702B7BD8602B50D0602B77D8502B3CD0E3
:1053D000502B73D8402B58D0402B6FD8302B64D033
:1053E000302B6BD8202B60D0202B67D8002B5CD0C3
:1053F000102B5AD062E07B6818683B6899683B685C
:105400005A683B68DB6800F0EEFA7B681B689B68B3
:10541000FB60FB6843F07703FB607B681B68FA68FE
:105420009A604EE07B6818683B6899683B685A68E8
:105430003B68DB6800F0D7FA7B681B689A687B687A
:105440001B6842F480429A603BE07B6818683B68C6
:1054500059683B68DB681A4600F04EFA7B681B68A7
:105460005021184600F0A5FA2BE07B6818683B68CD
:1054700059683B68DB681A4600F06CFA7B681B6869
:105480006021184600F095FA1BE07B6818683B68BD
:1054900059683B68DB681A4600F02EFA7B681B6887
:1054A0004021184600F085FA0BE07B681A683B68DB
:1054B0001B681946104600F07CFA02E000BF00E0CD
:1054C00000BF7B68012283F83D207B68002283F8BF
:1054D0003C20002318461037BD4680BD80B483B001
:1054E00000AF786000BF0C37BD4680BC704780B409
:1054F00083B000AF786000BF0C37BD4680BC7047FA
:1055000080B483B000AF786000BF0C37BD4680BC6C
:10551000704780B483B000AF786000BF0C37BD46E1
:1055200080BC704780B485B000AF786039607B681C
:105530001B68FB607B68294A93420BD07B68B3F100
:10554000804F07D07B68264A934203D07B68254A68
:10555000934208D1FB6823F07003FB603B685B68F3
:10556000FA681343FB607B681C4A93420BD07B684C
:10557000B3F1804F07D07B68194A934203D07B6810
:10558000184A934208D1FB6823F44073FB603B68E0
:10559000DB68FA681343FB60FB6823F080023B681A
:1055A0005B691343FB607B68FA681A603B689A6822
:1055B0007B68DA623B681A687B689A627B68074A94
:1055C000934203D13B681A697B681A637B680122A6
:1055D0005A6100BF1437BD4680BC7047002C0140A3
:1055E000000400400008004080B487B000AF78603D
:1055F00039607B681B6A23F001027B681A627B6852
:105600001B6A7B617B685B683B617B689B69FB60B5
:10561000FB6823F07003FB60FB6823F00303FB606F
:105620003B681B68FA681343FB607B6923F0020345
:105630007B613B689B687A6913437B617B681C4A8A
:1056400093420CD17B6923F008037B613B68DB68E4
:105650007A6913437B617B6923F004037B617B6878
:10566000134A934211D13B6923F480733B613B6938
:1056700023F400733B613B685B693A6913433B6108
:105680003B689B693A6913433B617B683A695A609E
:105690007B68FA689A613B685A687B685A637B68E2
:1056A0007A691A6200BF1C37BD4680BC704700BFD4
:1056B000002C014080B487B000AF786039607B680F
:1056C0001B6A23F010027B681A627B681B6A7B618D
:1056D0007B685B683B617B689B69FB60FB6823F4CC
:1056E000E043FB60FB6823F44073FB603B681B688E
:1056F0001B02FA681343FB607B6923F020037B6184
:105700003B689B681B017A6913437B617B681D4A78
:1057100093420DD17B6923F080037B613B68DB689A
:105720001B017A6913437B617B6923F040037B6132
:105730007B68144A934213D13B6923F480633B6135
:105740003B6923F400633B613B685B699B003A69FA
:1057500013433B613B689B699B003A6913433B6180
:105760007B683A695A607B68FA689A613B685A6854
:105770007B689A637B687A691A6200BF1C37BD46F2
:1057800080BC7047002C014080B487B000AF7860C7
:1057900039607B681B6A23F480727B681A627B68BD
:1057A0001B6A7B617B685B683B617B68DB69FB60D4
:1057B000FB6823F07003FB60FB6823F00303FB60CE
:1057C0003B681B68FA681343FB607B6923F4007332
:1057D0007B613B689B681B027A6913437B617B6832
:1057E0001D4A93420DD17B6923F400637B613B68C2
:1057F000DB681B027A6913437B617B6923F4806356
:105800007B617B68144A934213D13B6923F4805334
:105810003B613B6923F400533B613B685B691B01BF
:105820003A6913433B613B689B691B013A69134327
:105830003B617B683A695A607B68FA68DA613B6869
:105840005A687B68DA637B687A691A6200BF1C3722
:10585000BD4680BC704700BF002C014080B487B0BB
:1058600000AF786039607B681B6A23F480527B68E4
:105870001A627B681B6A3B617B685B687B617B6843
:10588000DB69FB60FB6823F4E043FB60FB6823F407
:105890004073FB603B681B681B02FA681343FB60A4
:1058A0003B6923F400533B613B689B681B033A69E7
:1058B00013433B617B680F4A934209D17B6923F410
:1058C00080437B613B685B699B017A6913437B6121
:1058D0007B687A695A607B68FA68DA613B685A6863
:1058E0007B681A647B683A691A6200BF1C37BD4640
:1058F00080BC7047002C014080B487B000AFF860D6
:10590000B9607A60FB681B6A7B61FB681B6A23F0E5
:105910000102FB681A62FB689B693B613B6923F0EB
:10592000F0033B617B681B013A6913433B617B6970
:1059300023F00A037B617A69BB6813437B61FB68D0
:105940003A699A61FB687A691A6200BF1C37BD46E2
:1059500080BC704780B487B000AFF860B9607A60EF
:10596000FB681B6A23F01002FB681A62FB689B69E4
:105970007B61FB681B6A3B617B6923F470437B613D
:105980007B681B037A6913437B613B6923F0A003A7
:105990003B61BB681B013A6913433B61FB687A6951
:1059A0009A61FB683A691A6200BF1C37BD4680BC29
:1059B000704780B485B000AF786039607B689B68C1
:1059C000FB60FB6823F07003FB603A68FB681343DD
:1059D00043F00703FB607B68FA689A6000BF1437E6
:1059E000BD4680BC704780B487B000AFF860B96036
:1059F0007A603B60FB689B687B617B6923F47F4333
:105A00007B613B681A027B681A43BB6813437A695F
:105A100013437B61FB687A699A6000BF1C37BD46FF
:105A200080BC704780B487B000AFF860B9607A601E
:105A3000BB6803F01F03012202FA03F37B61FB68DA
:105A40001A6A7B69DB431A40FB681A62FB681A6AB0
:105A5000BB6803F01F03796801FA03F31A43FB687C
:105A60001A6200BF1C37BD4680BC704780B485B049
:105A700000AF786039607B6893F83C30012B01D12E
:105A8000022346E07B68012283F83C207B680222E7
:105A900083F83D207B681B685B68FB607B681B6844
:105AA0009B68BB60FB6823F07003FB603B681B686E
:105AB000FA681343FB607B681B68FA685A607B686E
:105AC0001B68164A93420ED07B681B68B3F1804F67
:105AD00009D07B681B68124A934204D07B681B681C
