:020000040800F2
:1000000000500020D5230008991B00089F1B000802
:10001000A51B0008AB1B0008B11B00080000000076
:10002000000000000000000000000000B71B0008F6
:10003000C31B000800000000CF1B0008DB1B0008EA
:100040001D2400081D2400081D2400081D2400088C
:100050001D2400081D240008E71B00081D240008BB
:100060001D2400081D2400081D2400081D2400086C
:100070001D2400081D2400081D2400081D2400085C
:100080001D2400081D2400081D2400081D2400084C
:100090001D2400081D2400081D2400081D2400083C
:1000A0001D2400081D2400081D2400081D2400082C
:1000B000F51B00081D2400081D2400081D2400084D
:1000C0001D2400081D2400081D2400081D2400080C
:1000D0001D2400081D240008091C00081D24000818
:1000E0001D2400081D2400081D2400080000000035
:1000F0000000000000000000000000000000000000
:0C01000000000000000000005FF808F1A3
:10010C0010B5054C237833B9044B13B10448AFF345
:10011C0000800123237010BD7C0000200000000033
:10012C00F45E000808B5034B1BB103490348AFF359
:10013C00008008BD0000000080000020F45E000874
:10014C0080B58AB000AF07F1180300221A605A601C
:10015C009A60DA60744B9B69734A43F04003936175
:10016C00714B9B6903F040037B617B696E4B9B6910
:10017C006D4A43F0040393616B4B9B6903F00403DA
:10018C003B613B69684B9B69674A43F01003936181
:10019C00654B9B6903F01003FB60FB68624B9B692A
:1001AC00614A43F0080393615F4B9B6903F00803BA
:1001BC00BB60BB685C4B9B695B4A43F0200393615B
:1001CC00594B9B6903F020037B607B6800227021F4
:1001DC00564802F0FEFC00223021554802F0F9FC92
:1001EC0000220321534802F0F4FC00224FF400419A
:1001FC00514802F0EEFC01220121504802F0E9FCCA
:10020C007023BB610123FB6100233B6202237B62F1
:10021C0007F118031946454802F040FB0123BB6166
:10022C00474BFB6100233B6207F118031946424818
:10023C0002F034FB3023BB610123FB6100233B62E2
:10024C0002237B6207F118031946394802F026FB9A
:10025C000323BB610123FB6100233B6202237B620E
:10026C0007F118031946334802F018FB4FF480735A
:10027C00BB610023FB6100233B6207F118031946A5
:10028C002A4802F00BFB40F20143BB610023FB61E7
:10029C0002233B6207F118031946244802F0FEFAC8
:1002AC004FF47043BB610023FB6102233B6207F1F7
:1002BC00180319461F4802F0F1FA4FF47063BB6142
:1002CC000023FB6102233B6207F1180319461B480C
:1002DC0002F0E4FA4FF40043BB610123FB610023FD
:1002EC003B6202237B6207F118031946124802F0A5
:1002FC00D5FA0123BB610123FB6100233B6202237E
:10030C007B6207F1180319460C4802F0C7FA002269
:10031C000021062002F0DBF9062002F0F4F900BF00
:10032C002837BD4680BD00BF0010024000180140B8
:10033C0000100140000C0140000801400014014075
:10034C000000111080B500AF124B134A1A60114B0C
:10035C00124A5A600F4B00229A600E4B0022DA6050
:10036C000C4B4FF480421A610A4B00225A61094B24
:10037C0000229A61074B0022DA61064B00221A62B6
:10038C00044802F057FC0346002B01D001F0C6FBD9
:10039C0000BF80BD9800002000540040A0860100E2
:1003AC0080B588B000AF786007F1100300221A60A6
:1003BC005A609A60DA607B681B68154A934223D1B5
:1003CC00144B9B69134A43F008039361114B9B69CF
:1003DC0003F00803FB60FB68C0233B6112237B61C5
:1003EC000323FB6107F1100319460B4802F056FA80
:1003FC00084BDB69074A43F40013D361054BDB69F7
:10040C0003F40013BB60BB6800BF2037BD4680BD42
:10041C000054004000100240000C014080B582B036
:10042C0000AF01F0F7FF00F0ABF8FFF789FE01F029
:10043C00F5FB01F003FD01F097FD01F039FF01F030
:10044C00B1FCFFF77FFF01F0BFFA0021424804F036
:10045C0033F90C21404804F02FF90C213F4804F0EB
:10046C002BF908213C4804F027F908213B4804F0FB
:10047C0023F90421384804F01FF90421374804F00B
:10048C001BF90021354804F017F90021344804F019
:10049C0013F90421324804F00FF9324B1A782E4B21
:1004AC001B685A632F4B1A782B4B1B681A642D4B05
:1004BC001A782A4B1B681A642A4B1A78264B1B682D
:1004CC00DA63284B1A78254B1B68DA63254B1A78AC
:1004DC00214B1B689A63234B1A78204B1B689A6339
:1004EC00204B1A781D4B1B685A631E4B1A781C4BF9
:1004FC001B685A631A4B1B6800229A6301221A4923
:10050C001A4805F06DF800F093F800F0BBFD00F010
:10051C0049FE00F0ADFF164B1B78012BEED101F01C
:10052C00D1FF7860134B1B78012B03D1114B0022A8
:10053C001A70E3E7104B1B687A68D31A4AF6C87234
:10054C009342DBD90C4A7B6813600C4B01221A7066
:10055C0000F052F8D2E700BF2803002070030020FF
:10056C00980200200400002065020020B80300203F
:10057C00780200207002002074020020710200201A
:10058C0080B590B000AF07F118032822002118465F
:10059C0005F0A2FC3B1D00221A605A609A60DA60DA
:1005AC001A610223BB610123BB621023FB6200238F
:1005BC007B6307F11803184603F03CFB0346002B42
:1005CC0001D001F0ABFA0F237B600023BB6000234A
:1005DC00FB6000233B6100237B613B1D002118461F
:1005EC0003F0AAFD0346002B01D001F097FA00BFDF
:1005FC004037BD4680BD000080B500AF0A4B1B786C
:10060C00012B0FD1084B00221A7000220121074840
:10061C0002F0DFFA322001F05FFF012201210348D2
:10062C0002F0D7FA00BF80BD710200200014014017
:10063C0080B582B000AF4FF480419C4802F0B2FA12
:10064C000346002B47D0012B55D1994B1B78002B1F
:10065C000CD10121012000F041FA01F033FF0346D7
:10066C00944A1360944B00221A700FE0904B1B7845
:10067C00022B0BD10021012000F030FA01F022FFF7
:10068C0003468C4A13608C4B00221A704FF4804145
:10069C00864802F087FA0346012B2ED1844B1B7837
:1006AC00012B03D0824B1B78032B26D1824B1B785A
:1006BC00002B22D101F006FF78607E4B1B687A6814
:1006CC00D31A41F28832934217D97B4B01221A700C
:1006DC0000F016FC11E0764B1B78012B03D1744B08
:1006EC0002221A700BE0724B1B78032B07D1704B54
:1006FC0000221A7003E000BF02E000BF00E000BF60
:10070C004FF480616D4802F04DFA0346002B3FD048
:10071C00012B4DD1664B5B78002B0CD101210220B3
:10072C0000F0DCF9664B00221A7001F0CBFE034698
:10073C00644A13600FE05E4B5B78022B0BD10021F7
:10074C00022000F0CBF95E4B00221A7001F0BAFEC9
:10075C0003465C4A13604FF48061584802F022FA59
:10076C000346012B26D1564B1B78002B22D101F0CE
:10077C00A9FE3860534B1B683A68D31A41F2883291
:10078C00934217D94E4B01221A7000F0B9FB11E0BD
:10079C00474B5B78012B03D1454B02225A700BE07F
:1007AC00434B5B78032B07D1414B00225A7003E07B
:1007BC0000BF02E000BF00E000BF4FF400413B4827
:1007CC0002F0F0F90346002B12D0012B1FD1384B4D
:1007DC009B78002B03D10121032000F07FF9344BCF
:1007EC009B78022B15D10021032000F077F910E043
:1007FC002F4B9B78012B02D12D4B02229A702C4B44
:10080C009B78032B07D12A4B00229A7003E000BF80
:10081C0002E000BF00E000BF4FF48051234802F01B
:10082C00C1F90346002B12D0012B1FD1204BDB78D2
:10083C00002B03D10121042000F050F91C4BDB7874
:10084C00022B15D10021042000F048F910E0184BC0
:10085C00DB78012B02D1164B0222DA70144BDB78B9
:10086C00032B07D1124B0022DA7003E000BF02E029
:10087C0000BF00E000BF4FF48071134802F092F902
:10088C000346002B22D0012B2FD1094B1B79002BB7
:10089C0003D10121052000F021F9054B1B79022B16
:1008AC0025D10021052000F019F920E0000C0140B1
:1008BC00EC00002084020020880200200018014077
:1008CC00890200208C02002000140140794B1B7916
:1008DC00012B02D1774B02221A71764B1B79032B19
:1008EC0007D1744B00221A7103E000BF02E000BF75
:1008FC0000E000BF4FF400516F4802F053F903467B
:10090C00002B12D0012B1FD16A4B5B79002B03D12A
:10091C000121062000F0E2F8664B5B79022B15D121
:10092C000021062000F0DAF810E0624B5B79012B15
:10093C0002D1604B02225A715E4B5B79032B07D1BB
:10094C005C4B00225A7103E000BF02E000BF00E0E4
:10095C0000BF4FF40061594802F024F90346002B04
:10096C0012D0012B1FD1534B9B79002B03D10121AA
:10097C00072000F0B3F84F4B9B79022B15D10021C7
:10098C00072000F0ABF810E04A4B9B79012B02D109
:10099C00484B02229A71474B9B79032B07D1454B4D
:1009AC0000229A7103E000BF02E000BF00E000BF2C
:1009BC00434B1B78012B72D14FF400713F4802F06E
:1009CC00F1F80346002B21D0012B2CD1394BDB79CC
:1009DC00002B2AD1374B0122DA713A4B1B684B2B77
:1009EC0007D8384B1B680A33364A1360364B012242
:1009FC001A70364B1A78364B1B685A63314B1B688E
:100A0C00DBB21946012000F0C9FA0EE0294BDB7964
:100A1C00012B0CD1274B0022DA712E4B1A782C4B60
:100A2C001B685A6303E000BF02E000BF00E000BF98
:100A3C004FF48061214802F0B5F80346002B21D019
:100A4C00012B2ED11B4B1B7A002B2CD1194B0122C5
:100A5C001A721C4B1B68002B07D01A4B1B680A3BE5
:100A6C00184A1360184B01221A70184B1A781A4B3B
:100A7C001B685A63134B1B68DBB21946022000F04B
:100A8C008DFA10E00B4B1B7A012B0ED1094B002277
:100A9C001A72104B1A78104B1B685A6305E000BF92
:100AAC0004E000BF02E000BF00E000BF00BF083759
:100ABC00BD4680BDEC000020000C0140001401403C
:100ACC00F5000020000000207C0200200500002022
:100ADC0070030020040000209802002080B586B02E
:100AEC0004AF03460A46FB711346BB71FB799AB2FD
:100AFC006423029301230193BB1D00931023A021B7
:100B0C00B24802F0DBF90346002B02D1142001F0AD
:100B1C00E3FCFB79013B062B00F28F8101A252F81A
:100B2C0023F000BF4D0B0008AF0B0008110C0008A0
:100B3C00730C0008D50C0008370D0008AB0D00082D
:100B4C00BB79012B14D1A24B01221A70A14B1A783C
:100B5C00A14B1B685A6301220221A04802F039F80C
:100B6C000121012000F0DAF9322001F0B5FC66E138
:100B7C00BB79002B40F06381954B03221A70984B84
:100B8C001A78954B1B685A6300220221934802F095
:100B9C0020F80021012000F0C1F9322001F09CFC6A
:100BAC004DE1BB79012B14D1894B01225A70894B31
:100BBC001A78894B1B681A6401220121874802F0BC
:100BCC0008F80121022000F0A9F9322001F084FC80
:100BDC0037E1BB79002B40F034817D4B03225A70F6
:100BEC007F4B1A787C4B1B681A64002201217B48CE
:100BFC0001F0EFFF0021022000F090F9322001F00B
:100C0C006BFC1EE1BB79012B14D1714B01229A7044
:100C1C00704B1A78734B1B681A64012210217248AE
:100C2C0001F0D7FF0121032000F078F9322001F008
:100C3C0053FC08E1BB79002B40F00581644B032287
:100C4C009A70674B1A78674B1B681A640022102144
:100C5C00654801F0BEFF0021032000F05FF932204F
:100C6C0001F03AFCEFE0BB79012B14D1584B012277
:100C7C00DA70584B1A78584B1B68DA630122202122
:100C8C005A4801F0A6FF0121042000F047F9322058
:100C9C0001F022FCD9E0BB79002B40F0D6804C4B04
:100CAC000322DA704E4B1A784B4B1B68DA63002226
:100CBC0020214E4801F08DFF0021042000F02EF978
:100CCC00322001F009FCC0E0BB79012B14D1404B60
:100CDC0001221A713F4B1A78424B1B68DA630122CE
:100CEC001021424801F075FF0121052000F016F992
:100CFC00322001F0F1FBAAE0BB79002B40F0A78079
:100D0C00334B03221A71364B1A78364B1B68DA6355
:100D1C0000221021354801F05CFF0021052000F075
:100D2C00FDF8322001F0D8FB91E0BB79012B19D1F1
:100D3C00274B01225A71274B1A78274B1B689A6351
:100D4C0001222021284801F044FF0122402126489D
:100D5C0001F03FFF0121062000F0E0F8322001F005
:100D6C00BBFB76E0BB79002B73D1194B03225A7174
:100D7C001B4B1A78184B1B689A63002220211A48C7
:100D8C0001F027FF00224021174801F022FF00212B
:100D9C00062000F0C3F8322001F09EFB59E0BB792D
:100DAC00012B27D10A4B01229A71114B01221A7087
:100DBC00084B1A780B4B1B689A630121072000F033
:100DCC00ADF8322001F088FB45E000BF9800002010
:100DDC00EC0000200500002028030020000C01403E
:100DEC000400002070030020001801400010014096
:100DFC00F5000020BB79002B2DD1194B03229A71E1
:100E0C00184B00221A70184B00221A70174B1A78C4
:100E1C00174B1B689A63154B1A78154B1B685A6352
:100E2C00124B1A78134B1B685A630021072000F0F1
:100E3C0075F8322001F050FB0DE000BF0CE000BF54
:100E4C000AE000BF08E000BF06E000BF04E000BFFE
:100E5C0002E000BF00E000BF00BF0837BD4680BD08
:100E6C00EC000020F50000207C0200200400002093
:100E7C00700300209802002080B582B000AF0346BA
:100E8C00FB80FB88012B12D10B4B1B78012B0BD158
:100E9C00094B00221A70094B1B68094A1268DA6266
:100EAC00074B1B68054AD360044803F02DFB00BFB9
:100EBC000837BD4680BD00BF7C020020E002002048
:100ECC000000002080B582B000AF78600A4803F0C3
:100EDC006DFB00224FF40041084801F07AFE05201A
:100EEC0001F0FAFA01224FF40041044801F071FEBE
:100EFC0000BF0837BD4680BDE0020020000801405D
:100F0C0080B500AF64230A220249034804F0D6FAE4
:100F1C0000BF80BD4C000020B803002080B588B015
:100F2C0000AF03460A46FB711346BB71194A07F121
:100F3C000C0307CA83E807000023BB76FB79062B5A
:100F4C0001D10623BB74FB79BB74BB79BB75002341
:100F5C00FB610023FB760BE0FB7E20333B4413F854
:100F6C00143C1A46FB691344FB61FB7E0133FB7690
:100F7C00FB7E0B2BF0D9FB69BB76BB7EFB7507F1B7
:100F8C000C0164230C22044804F098FA00BF2037AB
:100F9C00BD4680BD0C5F0008B803002090B589B039
:100FAC0000AF03460A46FB711346BB711B4B07F19E
:100FBC0008040FCB07C4238002341B0C23700023BE
:100FCC00BB76FB79BB730023BB740023FB7400233B
:100FDC003B75BB797B750023FB610023FB760BE033
:100FEC00FB7E20333B4413F8183C1A46FB69134430
:100FFC00FB61FB7E0133FB76FB7E0E2BF0D9FB698C
:10100C00BB76BB7EBB7507F1080164230F22044835
:10101C0004F054FA00BF2437BD4690BD185F000899
:10102C00B803002080B582B000AF7860104B1B78FD
:10103C001A46104B1978104B99540D4B1B780133F1
:10104C005A42DBB2D2B258BF5342DAB2084B1A70D2
:10105C000A4B1B780133DAB2084B1A70012205498E
:10106C00074804F0BDFA00BF0837BD4680BD00BF7D
:10107C00F600002065020020FC000020F800002093
:10108C00B803002080B400AF3A4B1B78002B6CD017
:10109C00394B1B781A46394B9A5C394B1A70364BC4
:1010AC001B7801335A42DBB2D2B258BF5342DAB288
:1010BC00314B1A702F4B1B78013BDAB22D4B1A7047
:1010CC002C4B1B78002B03D12E4B1A782A4B1A7001
:1010DC002B4B1A782C4B1A702B4B1B78AA2B16D136
:1010EC002A4B1B78552B12D1294B00221A70294BF5
:1010FC0001221A70264B1B781A46244B1978264B62
:10110C009954234B1B780133DAB2214B1A70214BC3
:10111C001B78012B25D11E4B1B781A46184B1978BE
:10112C001D4B99541A4B1B78052B06D1184B1B7869
:10113C001A46194B9A5C194B1A70154B1B781A46A8
:10114C00164B1B7806339A4205D1124B00221A70AB
:10115C00134B01221A700E4B1B780133DAB20C4B75
:10116C001A70094B1A78094B1A7000BFBD4680BC27
:10117C00704700BFF8000020F7000020FC000020A2
:10118C0065020020F6000020FD010020FC0100207B
:10119C00640200206702002000020020660200208A
:1011AC006802002080B584B000AF9A4B1B78012BED
:1011BC0040F02B810023FB600023BB72954B002277
:1011CC001A700023FB7209E0FB7A934AD35C1A462F
:1011DC00FB681344FB60FB7A0133FB72FA7A8F4B8A
:1011EC001B78013B9A42EFDBFB68BB728B4B1B7885
:1011FC00013B894AD35CBA7A9A4240F00381874B0F
:10120C001B78042B40F2FE80834BDB78002B3FD104
:10121C00834B1B78002B0ED1642308228149824812
:10122C0004F04CF97E4B01221A7001F04BF9034685
:10123C007E4A136023E001F045F978607B4B1B6814
:10124C007A68D31AB3F5FA6F0CD2754B00221A7068
:10125C00642308227349744804F030F9734B1B68FB
:10126C007B600CE06E4B1B78012B08D164230822A9
:10127C006F496D4804F022F96C4B1B687B606D4B19
:10128C0001221A7001F01EF903466B4A1360B9E093
:10129C00614BDB78012B09D1642332226749624808
:1012AC0004F00CF9664B01221A70ABE05A4BDB7858
:1012BC00022B06D16423072262495B4804F0FEF836
:1012CC00A0E0554BDB78032B26D1534B9B79002B9D
:1012DC0002D15D4B02221A704F4B9B79012B03D12B
:1012EC00594B03221A7010E04B4B9B79022B03D104
:1012FC00554B01221A7008E0474B9B79042B04D103
:10130C0000F058F9504B00221A70642307224F4901
:10131C00454804F0D3F875E03F4BDB78062B6BD1D6
:10132C003D4B9B790D2B05D13B4B9B7A184600F01E
:10133C004DF967E0384B9B796F2B05D1364B5B7BB6
:10134C00184600F0B5F95DE0334B9B79702B05D155
:10135C00314B5B7B184600F027FA53E02E4B5B7940
:10136C00082B3CD13A4B1B78012B38D12A4B9B7A5A
:10137C001A46294BDB7A1B021A43274B1B7B1B0497
:10138C001A43254B5B7B1B0613431A46314B1A60E1
:10139C00314B1B781846314B1B682F4A12789B1A1D
:1013AC002F4A127811462F4A12788A1AB3FBF2F39D
:1013BC00284A12682B490978521A02FB03F303449A
:1013CC00294A1360294B01221A70134B9B79264A28
:1013DC001268D2B211461846FFF7E0FD12E00E4B30
:1013EC005B79082B0ED00C4B9B790B4A927A1146E9
:1013FC001846FFF773FB05E0074BDB78082B01D190
:10140C0000F04EFA054B00221A7000BF1037BD4693
:10141C0080BD00BF68020020000200206402002092
:10142C006902002058000020B80300206C02002044
:10143C0060000020700200207402002008000020D0
:10144C00780200203C00002079020020440000209B
:10145C00F5000020800200207E0200206C0000209D
:10146C00680000207D020020000000207C0200208B
:10147C0080B582B000AF00237B60484B1B78012BFA
:10148C0036D101F01FF87860454B1B687A68D31A87
:10149C00322B7ED9424A7B681360424B1B785A0030
:1014AC00414B1B689A633F4B1B78322B03D13F4B4C
:1014BC0001221A7006E03B4B1B78012B02D13B4BEF
:1014CC0000221A70394B1B78002B06D1354B1B7838
:1014DC000133DAB2334B1A705BE0344B1B78012BBF
:1014EC0057D1304B1B78013BDAB22E4B1A7050E0BF
:1014FC002A4B1B78022B23D100F0E4FF7860284B99
:10150C001B687A68D31AFA2B43D9254A7B68136077
:10151C00274B1B78002B07D1254B01221A70224B2D
:10152C001B6864229A6334E0214B1B78012B30D169
:10153C001F4B00221A701C4B1B6814229A6328E064
:10154C00164B1B78032B24D100F0BCFF7860144B96
:10155C001B687A68D31A40F2DC52934219D9104AAC
:10156C007B681360124B1B78002B07D1104B0122A8
:10157C001A700D4B1B6864229A630AE00C4B1B78A3
:10158C00012B06D10A4B00221A70074B1B68142240
:10159C009A6300BF0837BD4680BD00BF79020020AA
:1015AC009002002094020020980200209502002056
:1015BC007A02002080B500AF034B1B6800229A63AF
:1015CC0000F06EF900BF80BD9802002080B588B095
:1015DC0000AF0346FB71344A07F1080307CA83E8DE
:1015EC0007000023FB75FB79BB74BB7C012B1CD162
:1015FC0001210120FFF772FA01210220FFF76EFA98
:10160C0001210320FFF76AFA01210420FFF766FA93
:10161C0001210520FFF762FA01210620FFF75EFA8F
:10162C0001210720FFF75AFA1BE000210120FFF7E8
:10163C0055FA00210220FFF751FA00210320FFF791
:10164C004DFA00210420FFF749FA00210520FFF78D
:10165C0045FA00210620FFF741FA00210720FFF789
:10166C003DFA0023FB610023BB610BE007F108028C
:10167C00BB6913441B781A46FB691344FB61BB69B5
:10168C000133BB61BB690C2BF0D9FB69FB75FB7D8E
:10169C00FB7407F1080164230C22044803F00EFFCD
:1016AC0000BF2037BD4680BD285F0008B80300206E
:1016BC0080B586B004AF0346FB71354AFB791370D5
:1016CC006423029301230193314B009310231522C1
:1016DC00A021304801F0F2FB0346002B02D114206C
:1016EC0000F0FAFE2C4B1B78022B04D1284B1A78F5
:1016FC002A4B1B685A63284B5B78022B04D1244B72
:10170C001A78264B1B681A64234B9B78022B04D146
:10171C001F4B1A78224B1B681A641F4BDB78022B69
:10172C0004D11B4B1A781D4B1B68DA631A4B1B79BF
:10173C00022B04D1164B1A78194B1B68DA63164B23
:10174C005B79022B04D1124B1A78144B1B689A63E9
:10175C00114B9B79022B04D10D4B1A78104B1B6843
:10176C009A630D4BDB79022B04D1094B1A780C4B85
:10177C001B685A63084B1B7A022B04D1044B1A7852
:10178C00084B1B685A6300BF0837BD4680BD00BFBD
:10179C000500002098000020EC0000202803002009
:1017AC00700300209802002080B586B004AF034679
:1017BC00FB71354AFB791370642302930123019367
:1017CC00314B009310231422A021304801F076FBFA
:1017DC000346002B02D1142000F07EFE2C4B1B780C
:1017EC00002B04D1284B1A782A4B1B685A63284BC0
:1017FC005B78002B04D1244B1A78264B1B681A6497
:10180C00234B9B78002B04D11F4B1A78224B1B685F
:10181C001A641F4BDB78002B04D11B4B1A781D4B21
:10182C001B68DA631A4B1B79002B04D1164B1A7800
:10183C00194B1B68DA63164B5B79002B04D1124BE6
:10184C001A78144B1B689A63114B9B79002B04D1AB
:10185C000D4B1A78104B1B689A630D4BDB79002BE0
:10186C0004D1094B1A780C4B1B685A63084B1B7A32
:10187C00002B04D1044B1A78084B1B685A6300BF29
:10188C000837BD4680BD00BF040000209800002032
:10189C00EC00002028030020700300209802002098
:1018AC00B0B596B004AF454B07F110041D460FCDF3
:1018BC000FC40FCD0FC495E80F0007C4238002346A
:1018CC001B0C2370002387F8403000237B6400231B
:1018DC00FB71002387F84330012387F8423024E062
:1018EC0097F842309AB20A23029301230193FB1D0D
:1018FC0000931023A021324801F0DAFB0346002BA1
:10190C000ED1142000F0E8FD97F84330FA794833F3
:10191C003B4403F8402C97F84330013387F84330AD
:10192C0097F84230013387F8423097F84230082B51
:10193C00D6D93B7ABB767B7AFB77BB7A87F8243097
:10194C00FB7A87F829303B7B87F82E307B7B87F836
:10195C003330BB7B87F83830FB7B87F83D30002376
:10196C0087F841300EE097F8413048333B4413F888
:10197C00383C1A467B6C13447B6497F84130013336
:10198C0087F8413097F841302D2BECD97B6C87F8D8
:10199C00403097F8403087F83E3007F1100164234F
:1019AC002F22084803F08AFD002387F840300023DB
:1019BC007B6400BF4837BD46B0BD00BF345F000834
:1019CC0098000020B803002080B586B004AF6423D3
:1019DC000293012301934D4B009310231622A02157
:1019EC004B4801F065FB0346002B02D1322000F07E
:1019FC0073FD464B1B78012B38D0444B01221A70D7
:101A0C000A23029301230193424B009310231422C7
:101A1C00A0213F4801F052FA0346002B02D11420BA
:101A2C0000F05AFD0A230293012301933A4B0093D1
:101A3C0010231522A021364801F040FA0346002B52
:101A4C0002D1142000F048FD64230293012301937A
:101A5C002E4B009310231622A0212D4801F02EFAB4
:101A6C000346002B02D1142000F036FD0A2302930A
:101A7C0001230193274B009310231422A021244807
:101A8C0001F016FB0346002B02D1142000F024FDBC
:101A9C000A230293012301931F4B00931023152259
:101AAC00A0211B4801F004FB0346002B02D114209B
:101ABC0000F012FD0123FB7120E00A2000F00CFD68
:101ACC000023BB71FB799AB20A2302930123019381
:101ADC00BB1D00931023A0210D4801F0E9FA034629
:101AEC00002B08D1142000F0F7FCBA79FB791146D1
:101AFC001846FEF7F3FFFB790133FB71FB79082BDA
:101B0C00DBD900BF00BF0837BD4680BD7B0200207B
:101B1C0098000020040000200500002080B400AFD5
:101B2C0072B600BFFEE7000080B485B000AF154B65
:101B3C009B69144A43F001039361124B9B6903F0B8
:101B4C000103BB60BB680F4BDB690E4A43F080534B
:101B5C00D3610C4BDB6903F080537B607B680A4BD1
:101B6C005B68FB60FB6823F0E063FB60FB6843F0A1
:101B7C000073FB60044AFB68536000BF1437BD461A
:101B8C0080BC7047001002400000014080B400AFE0
:101B9C00FEE780B400AFFEE780B400AFFEE780B490
:101BAC0000AFFEE780B400AFFEE780B400AF00BF2B
:101BBC00BD4680BC704780B400AF00BFBD4680BC42
:101BCC00704780B400AF00BFBD4680BC704780B585
:101BDC0000AF00F065FC00BF80BD80B500AF0120F8
:101BEC0001F010F800BF80BD80B500AF024802F0D4
:101BFC0005FE00BF80BD00BFE002002080B500AF35
:101C0C00024803F01DFD00BF80BD00BFB8030020DB
:101C1C0080B400AF00BFBD4680BC704780B596B0A5
:101C2C0000AF07F1480300221A605A609A60DA602C
:101C3C0007F1400300221A605A6007F124030022C6
:101C4C001A605A609A60DA601A615A619A613B1D97
:101C5C0020220021184604F03FF9504B504A1A60DC
:101C6C004E4B14225A604D4B00229A604B4B64220F
:101C7C00DA604A4B00221A61484B00225A61474BEA
:101C8C0000229A61454802F0EFFB0346002B01D07D
:101C9C00FFF744FF4FF48053BB6407F14803194628
:101CAC003E4802F071FF0346002B01D0FFF736FFD0
:101CBC003A4802F0A9FC0346002B01D0FFF72EFF97
:101CCC0000233B6400237B6407F14003194633482F
:101CDC0003F0E6FA0346002B01D0FFF71FFF602349
:101CEC007B620023BB620023FB6200233B63002367
:101CFC007B630023BB630023FB6307F124030022F7
:101D0C001946264802F082FE0346002B01D0FFF74D
:101D1C0005FF07F1240304221946204802F076FE41
:101D2C000346002B01D0FFF7F9FE07F1240308222C
:101D3C0019461A4802F06AFE0346002B01D0FFF741
:101D4C00EDFE07F124030C221946144802F05EFE46
:101D5C000346002B01D0FFF7E1FE00237B6000233C
:101D6C00BB600023FB6000233B6100237B614FF4CD
:101D7C000053BB6100233B623B1D1946074803F02F
:101D8C00EDFA0346002B01D0FFF7C8FE034800F024
:101D9C00E1F900BF5837BD4680BD00BF9802002056
:101DAC00002C014080B586B000AF07F1080300227B
:101DBC001A605A609A60DA603B4600221A605A60D8
:101DCC001D4B4FF080421A601B4B40F21F325A6081
:101DDC00194B00229A60184B3B22DA60164B0022FA
:101DEC001A61154B80229A61134802F03DFB0346A1
:101DFC00002B01D0FFF792FE4FF48053BB6007F12C
:101E0C00080319460C4802F0BFFE0346002B01D014
:101E1C00FFF784FE00233B6000237B603B461946A2
:101E2C00054803F03DFA0346002B01D0FFF776FE80
:101E3C0000BF1837BD4680BDE002002080B58EB0D3
:101E4C0000AF07F1280300221A605A609A60DA602A
:101E5C0007F1200300221A605A603B1D00221A6011
:101E6C005A609A60DA601A615A619A613C4B3D4A39
:101E7C001A603B4B14225A60394B00229A60384B43
:101E8C006422DA60364B00221A61354B00229A61CB
:101E9C00334802F0E9FA0346002B01D0FFF73EFE6F
:101EAC004FF48053BB6207F1280319462C4802F00B
:101EBC006BFE0346002B01D0FFF730FE284802F0E2
:101ECC00A3FB0346002B01D0FFF728FE00233B6247
:101EDC0000237B6207F120031946214803F0E0F947
:101EEC000346002B01D0FFF719FE60237B60002313
:101EFC00BB600023FB6000237B613B1D0022194665
:101F0C00174802F083FD0346002B01D0FFF706FEB5
:101F1C003B1D04221946124802F078FD0346002BA3
:101F2C0001D0FFF7FBFD3B1D082219460C4802F0BF
:101F3C006DFD0346002B01D0FFF7F0FD3B1D0C227D
:101F4C001946074802F062FD0346002B01D0FFF74B
:101F5C00E5FD034800F0FEF800BF3837BD4680BDF4
:101F6C00280300200004004080B58EB000AF07F1BC
:101F7C00280300221A605A609A60DA6007F1200385
:101F8C0000221A605A603B1D00221A605A609A6047
:101F9C00DA601A615A619A613C4B3D4A1A603B4BBC
:101FAC0014225A60394B00229A60384B6422DA6052
:101FBC00364B00221A61354B00229A61334802F0ED
:101FCC0053FA0346002B01D0FFF7A8FD4FF48053C2
:101FDC00BB6207F1280319462C4802F0D5FD0346D5
:101FEC00002B01D0FFF79AFD284802F00DFB0346A9
:101FFC00002B01D0FFF792FD00233B6200237B6294
:10200C0007F120031946214803F04AF90346002B37
:10201C0001D0FFF783FD60237B600023BB600023AE
:10202C00FB6000237B613B1D00221946174802F020
:10203C00EDFC0346002B01D0FFF770FD3B1D042285
:10204C001946124802F0E2FC0346002B01D0FFF7C0
:10205C0065FD3B1D082219460C4802F0D7FC0346CF
:10206C00002B01D0FFF75AFD3B1D0C2219460748E7
:10207C0002F0CCFC0346002B01D0FFF74FFD0348C8
:10208C0000F068F800BF3837BD4680BD70030020F3
:10209C000008004080B586B000AF78607B681B6894
:1020AC00284A93420CD1284B9B69274A43F400637E
:1020BC009361254B9B6903F400637B617B693CE076
:1020CC007B681B68B3F1804F14D11F4BDB691E4A30
:1020DC0043F00103D3611C4BDB6903F001033B614B
:1020EC003B6900220F211C2000F0F1FA1C2000F0AB
:1020FC000AFB22E07B681B68144A93420CD1124BFA
:10210C00DB69114A43F00203D3610F4BDB6903F027
:10211C000203FB60FB6810E07B681B680C4A93426F
:10212C000BD1094BDB69084A43F00403D361064B1E
:10213C00DB6903F00403BB60BB6800BF1837BD4606
:10214C0080BD00BF002C0140001002400004004084
:10215C000008004080B58CB000AF786007F1140324
:10216C0000221A605A609A60DA607B681B68484AE1
:10217C0093422BD1474B9B69464A43F040039361F2
:10218C00444B9B6903F040033B613B694FF4D443E0
:10219C007B610223BB6102233B6207F114031946E6
:1021AC003D4800F07BFB3D4B5B687B627B6A23F018
:1021BC00C0037B627B6A43F0E0637B627B6A43F023
:1021CC00C0037B62354A7B6A53605CE07B681B68AA
:1021DC00334A93422BD12F4B9B692E4A43F0100369
:1021EC0093612C4B9B6903F01003FB60FB684FF46D
:1021FC0070737B610223BB6102233B6207F1140302
:10220C001946284800F04AFB244B5B68BB62BB6A4A
:10221C0023F44063BB62BB6A43F0E063BB62BB6AFE
:10222C0043F44063BB621D4ABB6A53602BE07B687E
:10223C001B681D4A934226D1164B9B69154A43F0E5
:10224C0020039361134B9B6903F02003BB60BB68B5
:10225C004FF470437B610223BB6102233B6207F1A5
:10226C0014031946114800F019FB0C4B5B68FB6218
:10227C00FB6A43F0E063FB62FB6A43F48053FB624E
:10228C00064AFB6A536000BF3037BD4680BD00BFB5
:10229C00002C0140001002400018014000000140D9
:1022AC0000040040001001400008004000140140F0
:1022BC0080B500AF114B124A1A60104B4FF41652F6
:1022CC005A600E4B00229A600C4B0022DA600B4BCA
:1022DC0000221A61094B0C225A61084B00229A61A8
:1022EC00064B0022DA61054803F09BF80346002BED
:1022FC0001D0FFF713FC00BF80BD00BFB803002066
:10230C000044004080B58AB000AF786007F1140338
:10231C0000221A605A609A60DA607B681B68264A51
:10232C00934245D1254BDB69244A43F40033D361F6
:10233C00224BDB6903F400333B613B691F4B9B6908
:10234C001E4A43F0200393611C4B9B6903F020034E
:10235C00FB60FB6820237B610223BB6103233B6290
:10236C0007F114031946164800F098FA40237B61D4
:10237C000023BB610023FB6107F1140319461048CD
:10238C0000F08CFA0F4B5B687B627B6A43F0E06376
:10239C007B627B6A43F008037B620A4A7B6A536068
:1023AC0000220021262000F092F9262000F0ABF943
:1023BC0000BF2837BD4680BD0044004000100240DD
:1023CC0000140140000001400C480D490D4A002347
:1023DC0002E0D458C4500433C4188C42F9D30A4ACE
:1023EC000A4C002301E013600432A242FBD3FFF736
:1023FC000FFC03F04DFDFEF711F8704700000020B4
:10240C007C000020945F00087C0000200004002069
:10241C00FEE7000080B500AF084B1B68074A43F08D
:10242C0010031360032000F047F90D2000F008F8AA
:10243C00FFF77AFB0023184680BD00BF0020024046
:10244C0080B582B000AF7860124B1A68124B1B78C3
:10245C0019464FF47A73B3FBF1F3B2FBF3F318465E
:10246C0000F05FF90346002B01D001230EE07B68DE
:10247C000F2B0AD8002279684FF0FF3000F027F9B3
:10248C00064A7B681360002300E0012318460837D6
:10249C00BD4680BD70000020780000207400002034
:1024AC0080B400AF054B1B781A46054B1B681344D0
:1024BC00034A136000BFBD4680BC70477800002003
:1024CC00FC03002080B400AF024B1B681846BD46CD
:1024DC0080BC7047FC03002080B584B000AF7860EE
:1024EC00FFF7F0FFB8607B68FB60FB68B3F1FF3F60
:1024FC0005D00A4B1B781A46FB681344FB6000BFDF
:10250C00FFF7E0FF0246BB68D31AFA689A42F7D885
:10251C0000BF00BF1037BD4680BD00BF7800002053
:10252C0080B485B000AF78607B6803F00703FB6074
:10253C000C4BDB68BB60BA684FF6FF031340BB6003
:10254C00FB681A02BB68134343F0BF6343F40033C8
:10255C00BB60044ABB68D36000BF1437BD4680BC67
:10256C00704700BF00ED00E080B400AF044BDB68A7
:10257C001B0A03F007031846BD4680BC704700BF1A
:10258C0000ED00E080B483B000AF0346FB7197F917
:10259C000730002B0BDBFB7903F01F02064997F980
:1025AC0007305B09012000FA02F241F8232000BF3A
:1025BC000C37BD4680BC704700E100E080B483B0AE
:1025CC0000AF03463960FB7197F90730002B0ADB2B
:1025DC003B68DAB20C4997F907301201D2B20B44BE
:1025EC0083F800230AE03B68DAB20849FB7903F070
:1025FC000F03043B1201D2B20B441A7600BF0C3706
:10260C00BD4680BC704700BF00E100E000ED00E07B
:10261C0080B489B000AFF860B9607A60FB6803F0F1
:10262C000703FB61FB69C3F10703042B28BF0423D9
:10263C00BB61FB690433062B02D9FB69033B00E049
:10264C0000237B614FF0FF32BB6902FA03F3DA43DC
:10265C00BB681A407B699A404FF0FF317B6901FAE5
:10266C0003F3D9437B680B40134318462437BD460C
:10267C0080BC704780B582B000AF78607B68013B4E
:10268C00B3F1807F01D301230FE00A4A7B68013B41
:10269C0053600F214FF0FF30FFF790FF054B0022E6
:1026AC009A60044B07221A60002318460837BD466F
:1026BC0080BD00BF10E000E080B582B000AF786054
:1026CC007868FFF72DFF00BF0837BD4680BD80B589
:1026DC0086B000AF0346B9607A60FB7300237B6160
:1026EC00FFF742FF78617A68B9687869FFF790FF65
:1026FC00024697F90F3011461846FFF75FFF00BFEF
:10270C001837BD4680BD80B582B000AF0346FB7163
:10271C0097F907301846FFF735FF00BF0837BD465D
:10272C0080BD80B582B000AF78607868FFF7A2FFFB
:10273C00034618460837BD4680BD80B485B000AF4F
:10274C0078600023FB737B6893F82130022B08D050
:10275C007B6804229A637B68002283F82020012383
:10276C0020E07B681B681A687B681B6822F00E02ED
:10277C001A607B681B681A687B681B6822F0010270
:10278C001A607B681A6C7B68DB6B012101FA02F220
:10279C005A607B68012283F821207B68002283F831
:1027AC002020FB7B18461437BD4680BC70470000C8
:1027BC0080B584B000AF78600023FB737B6893F81E
:1027CC002130022B05D07B6804229A630123FB7312
:1027DC0051E07B681B681A687B681B6822F00E024C
:1027EC001A607B681B681A687B681B6822F0010200
:1027FC001A607B681B68224A934229D07B681B684D
:10280C00204A934222D07B681B681F4A93421AD0FD
:10281C007B681B681D4A934212D07B681B681C4A5C
:10282C0093420AD07B681B681A4A934202D14FF438
:10283C0080130EE04FF080730BE04FF4803308E010
:10284C004FF4805305E04FF4807302E0102300E056
:10285C000123114A53607B68012283F821207B6895
:10286C00002283F820207B685B6B002B03D07B68F5
:10287C005B6B78689847FB7B18461037BD4680BD6C
:10288C00080002401C00024030000240440002409C
:10289C00580002406C0002400000024080B48BB033
:1028AC0000AF7860396000237B6200233B6269E1F2
:1028BC0001227B6A02FA03F3FB613B681B68FA692D
:1028CC001340BB61BA69FB699A4240F058813B687E
:1028DC005B689A4A93425ED0984A934275D8984A5C
:1028EC00934258D0964A93426FD8964A934252D00C
:1028FC00944A934269D8944A93424CD0924A934258
:10290C0063D8924A934246D0904A93425DD8122B98
:10291C002AD8122B59D801A252F823F0A329000867
:10292C007D2900088F290008D1290008D729000823
:10293C00D7290008D7290008D7290008D72900086B
:10294C00D7290008D7290008D7290008D72900085B
:10295C00D7290008D7290008D7290008D72900084B
:10296C008529000899290008794A934213D02CE054
:10297C003B68DB683B6229E03B68DB6804333B6205
:10298C0024E03B68DB6808333B621FE03B68DB6894
:10299C000C333B621AE03B689B68002B02D104238A
:1029AC003B6213E03B689B68012B05D108233B621B
:1029BC007B68FA691A6109E008233B627B68FA6953
:1029CC005A6103E000233B6200E000BFBB69FF2BB0
:1029DC0001D87B6801E07B6804337B61BB69FF2B0A
:1029EC0002D87B6A9B0002E07B6A083B9B003B6140
:1029FC007B691A680F213B6901FA03F3DB431A4028
:102A0C00396A3B6901FA03F31A437B691A603B6824
:102A1C005B6803F08053002B00F0B1804D4B9B6939
:102A2C004C4A43F0010393614A4B9B6903F0010349
:102A3C00BB60BB68484A7B6A9B08023352F8233060
:102A4C00FB607B6A03F003039B000F2202FA03F383
:102A5C00DB43FA681340FB607B68404A934213D017
:102A6C007B683F4A93420DD07B683E4A934207D025
:102A7C007B683D4A934201D1032306E0042304E022
:102A8C00022302E0012300E000237A6A02F0030231
:102A9C0092009340FA681343FB602F497B6A9B08B2
:102AAC000233FA6841F823203B685B6803F48033F7
:102ABC00002B06D02D4B1A682C49BB6913430B60B5
:102ACC0006E02A4B1A68BB69DB43284913400B60AC
:102ADC003B685B6803F40033002B06D0234B5A6829
:102AEC002249BB6913434B6006E0204B5A68BB6913
:102AFC00DB431E4913404B603B685B6803F4801357
:102B0C00002B06D0194B9A681849BB6913438B608C
:102B1C0006E0164B9A68BB69DB43144913408B6083
:102B2C003B685B6803F40013002B21D00F4BDA6871
:102B3C000E49BB691343CB6021E000BF000032108B
:102B4C0000003110000022100000211000001210B3
:102B5C00000011100010024000000140000801406C
:102B6C00000C014000100140001401400004014021
:102B7C000B4BDA68BB69DB4309491340CB607B6ABA
:102B8C0001337B623B681A687B6A22FA03F3002BE1
:102B9C007FF48EAE00BF00BF2C37BD4680BC7047A3
:102BAC000004014080B485B000AF78600B467B8098
:102BBC007B689A687B881340002B02D00123FB733F
:102BCC0001E00023FB73FB7B18461437BD4680BC29
:102BDC00704780B483B000AF78600B467B8013469F
:102BEC007B707B78002B03D07A887B681A6103E0BA
:102BFC007B881A047B681A6100BF0C37BD4680BC09
:102C0C007047000080B582B000AF0346FB80084BD4
:102C1C005A69FB881340002B06D0054AFB88536188
:102C2C00FB881846FEF728F900BF0837BD4680BD63
:102C3C000004014080B584B000AF78607B68002B45
:102C4C0001D101232BE17B6893F83D30DBB2002BE3
:102C5C0006D17B68002283F83C207868FDF7A0FB46
:102C6C007B68242283F83D207B681B681A687B688C
:102C7C001B6822F001021A607B681B681A687B686B
:102C8C001B6842F400421A607B681B681A687B68F8
:102C9C001B6822F400421A6001F0A0FBF8607B680C
:102CAC005B68814A934207D8FB68804A934294BF81
:102CBC0001230023DBB206E0FB687D4A934294BFFC
:102CCC0001230023DBB2002B01D00123E7E0FB68DA
:102CDC00784AA2FB03239B0CBB607B681B685B6878
:102CEC0023F03F017B681B68BA680A435A607B6813
:102CFC001B681B6A23F03F017B685B686A4A93423E
:102D0C0002D8BB68013309E0BB684FF4967202FB32
:102D1C0003F3694AA2FB03239B0901337A68126807
:102D2C000B4313627B681B68DB6923F44F4222F070
:102D3C00FF027B685B685C498B4219D8FB68591EA3
:102D4C007B685B685B00B1FBF3F3591C40F6FC73CA
:102D5C000B40002B0AD0FB68591E7B685B685B003C
:102D6C00B1FBF3F30133C3F30B0351E004234FE046
:102D7C007B689B68002B11D1FB68581E7B685968D7
:102D8C000B465B000B44B0FBF3F30133C3F30B03B3
:102D9C00002B0CBF01230023DBB212E0FB68581E92
:102DAC007B6859680B469B000B4499000B44B0FBA5
:102DBC00F3F30133C3F30B03002B0CBF01230023EC
:102DCC00DBB2002B01D0012322E07B689B68002B37
:102DDC000ED1FB68581E7B6859680B465B000B4490
:102DEC00B0FBF3F30133C3F30B0343F400430FE0E5
:102DFC00FB68581E7B6859680B469B000B44990076
:102E0C000B44B0FBF3F30133C3F30B0343F4404324
:102E1C00796809681343CB617B681B681B6823F0D6
:102E2C00C0017B68DA697B681B6A1A437B681B6884
:102E3C000A431A607B681B689B6823F4034323F0E6
:102E4C00FF037A6811697A68D26811437A6812684C
:102E5C000B4393607B681B68DB6823F0FF017B6886
:102E6C005A697B689B691A437B681B680A43DA6062
:102E7C007B681B681A687B681B6842F001021A6049
:102E8C007B6800221A647B68202283F83D207B68D3
:102E9C0000221A637B68002283F83E200023184628
:102EAC001037BD4680BD00BFA08601007F841E0088
:102EBC00FF083D0083DE1B43D34D621080B588B004
:102ECC0002AFF860084611461A4603467B810B4652
:102EDC003B811346FB80FFF7F5FA7861FB6893F8AA
:102EEC003D30DBB2202B40F0D9807B690093192355
:102EFC0001226D49F86800F0C1FC0346002B01D09B
:102F0C000223CCE0FB6893F83C30012B01D1022367
:102F1C00C5E0FB68012283F83C20FB681B681B683A
:102F2C0003F00103012B07D0FB681B681A68FB68D0
:102F3C001B6842F001021A60FB681B681A68FB6888
:102F4C001B6822F400621A60FB68212283F83D2082
:102F5C00FB68402283F83E20FB6800221A64FB6861
:102F6C003A6A5A62FB68BA8C5A85FB685B8D9AB2D6
:102F7C00FB681A85FB684D4ADA62F8883A897989C8
:102F8C007B690193BB6A00930346F86800F0F8FA7A
:102F9C000346002B52D0012381E07A69B96AF868A4
:102FAC0000F042FD0346002B0DD0FB681B6C042B7C
:102FBC0007D1FB681B681A68FB681B6842F4007237
:102FCC001A6001236BE0FB685B6A1A78FB681B686C
:102FDC001A61FB685B6A5A1CFB685A62FB681B8DA2
:102FEC00013B9AB2FB681A85FB685B8D9BB2013B77
:102FFC009AB2FB685A85FB681B685B6903F0040393
:10300C00042B1BD1FB681B8D002B17D0FB685B6A54
:10301C001A78FB681B681A61FB685B6A5A1CFB68B0
:10302C005A62FB681B8D013B9AB2FB681A85FB68E0
:10303C005B8D9BB2013B9AB2FB685A85FB681B8D7A
:10304C00002BAAD17A69B96AF86800F02EFD034604
:10305C00002B0DD0FB681B6C042B07D1FB681B6885
:10306C001A68FB681B6842F400721A60012316E0B0
:10307C00FB681B681A68FB681B6842F400721A60D4
:10308C00FB68202283F83D20FB68002283F83E2059
:10309C00FB68002283F83C20002300E00223184642
:1030AC001837BD4680BD00BF020010000000FFFFB6
:1030BC0080B58CB002AFF860084611461A4603463C
:1030CC007B810B463B811346FB8000233B62FFF761
:1030DC00F9F97862FB6893F83D30DBB2202B40F0B5
:1030EC0044827B6A0093192301228249F86800F01C
:1030FC00C5FB0346002B01D0022337E2FB6893F893
:10310C003C30012B01D1022330E2FB68012283F811
:10311C003C20FB681B681B6803F00103012B07D0E4
:10312C00FB681B681A68FB681B6842F001021A6096
:10313C00FB681B681A68FB681B6822F400621A6043
:10314C00FB68222283F83D20FB68402283F83E2056
:10315C00FB6800221A64FB683A6B5A62FB68BA8EF1
:10316C005A85FB685B8D9AB2FB681A85FB68624ACC
:10317C00DA62F8883A8979897B6A0193BB6B009390
:10318C000346F86800F092FA0346002B01D00123A5
:10319C00ECE1FB681B8D002B13D10023FB61FB685A
:1031AC001B685B69FB61FB681B689B69FB61FB69C6
:1031BC00FB681B681A68FB681B6842F400721A6093
:1031CC00C0E1FB681B8D012B1ED1FB681B681A68C4
:1031DC00FB681B6822F480621A6072B600BF002381
:1031EC00BB61FB681B685B69BB61FB681B689B6907
:1031FC00BB61BB69FB681B681A68FB681B6842F4FF
:10320C0000721A6062B635E0FB681B8D022B1ED172
:10321C00FB681B681A68FB681B6842F400621A6042
:10322C0072B600BF00237B61FB681B685B697B6126
:10323C00FB681B689B697B617B69FB681B681A6870
:10324C00FB681B6822F480621A6062B612E0FB68AD
:10325C001B681A68FB681B6842F480621A600023C2
:10326C003B61FB681B685B693B61FB681B689B6986
:10327C003B613B6966E1FB681B8D032B00F21F81F0
:10328C00FB681B8D012B23D17A6AB96BF86800F0AF
:10329C004DFC0346002B01D0012367E1FB681B6842
:1032AC001A69FB685B6AD2B21A70FB685B6A5A1CBB
:1032BC00FB685A62FB681B8D013B9AB2FB681A854E
:1032CC00FB685B8D9BB2013B9AB2FB685A8539E176
:1032DC00FB681B8D022B52D17B6A0093BB6B0022C7
:1032EC000649F86800F0CAFA0346002B08D00123FF
:1032FC003CE100BF020010000000FFFF04000100D1
:10330C0072B600BFFB681B681A68FB681B6842F446
:10331C0000721A60FB681B681A69FB685B6AD2B2A0
:10332C001A70FB685B6A5A1CFB685A62FB681B8D3F
:10333C00013B9AB2FB681A85FB685B8D9BB2013B23
:10334C009AB2FB685A8562B600BFFB681B681A69A3
:10335C00FB685B6AD2B21A70FB685B6A5A1CFB682A
:10336C005A62FB681B8D013B9AB2FB681A85FB689D
:10337C005B8D9BB2013B9AB2FB685A85E2E07B6A9B
:10338C000093BB6B00227B49F86800F077FA034688
:10339C00002B01D00123E9E0FB681B681A68FB686D
:1033AC001B6822F480621A6072B600BFFB681B684F
:1033BC001A69FB685B6AD2B21A70FB685B6A5A1CAA
:1033CC00FB685A62FB681B8D013B9AB2FB681A853D
:1033DC00FB685B8D9BB2013B9AB2FB685A85664BCE
:1033EC001B68DB08654AA2FB03231A0A13469B00E1
:1033FC001344DA00D31A3B623B6A013B3B623B6AE3
:10340C00002B18D1FB6800221A63FB68202283F87A
:10341C003D20FB68002283F83E20FB681B6C43F0C8
:10342C002002FB681A6462B600BFFB68002283F8B6
:10343C003C2001239AE0FB681B685B6903F00403E2
:10344C00042BD9D1FB681B681A68FB681B6842F413
:10345C0000721A60FB681B681A69FB685B6AD2B25F
:10346C001A70FB685B6A5A1CFB685A62FB681B8DFE
:10347C00013B9AB2FB681A85FB685B8D9BB2013BE2
:10348C009AB2FB685A8562B600BFFB681B681A6962
:10349C00FB685B6AD2B21A70FB685B6A5A1CFB68E9
:1034AC005A62FB681B8D013B9AB2FB681A85FB685C
:1034BC005B8D9BB2013B9AB2FB685A8542E07A6AFB
:1034CC00B96BF86800F032FB0346002B01D00123E6
:1034DC004CE0FB681B681A69FB685B6AD2B21A7015
:1034EC00FB685B6A5A1CFB685A62FB681B8D013BCC
:1034FC009AB2FB681A85FB685B8D9BB2013B9AB252
:10350C00FB685A85FB681B685B6903F00403042B9A
:10351C0018D1FB681B681A69FB685B6AD2B21A7017
:10352C00FB685B6A5A1CFB685A62FB681B8D013B8B
:10353C009AB2FB681A85FB685B8D9BB2013B9AB211
:10354C00FB685A85FB681B8D002B7FF494AEFB68DF
:10355C00202283F83D20FB68002283F83E20FB6884
:10356C00002283F83C20002300E002231846283771
:10357C00BD4680BD040001007000002089B5F81420
:10358C0080B588B002AFF860084611461A4603466B
:10359C007B810B463B811346FB80FB681B681A68DA
:1035AC00FB681B6842F480721A607B6A00933B6A6A
:1035BC0000224FF00111F86800F060F90346002B6F
:1035CC000DD0FB681B681B6803F48073B3F5807F18
:1035DC0003D1FB684FF400721A6403235FE07B890C
:1035EC00DBB21A46FB681B6802F0FE021A617B6AAA
:1035FC003A6A2D49F86800F098F90346002B01D07F
:10360C0001234CE000237B61FB681B685B697B61D9
:10361C00FB681B689B697B617B697A6A396AF8680D
:10362C0000F002FA0346002B0DD0FB681B6C042B38
:10363C0007D1FB681B681A68FB681B6842F40072B0
:10364C001A6001232BE0FB88012B05D13B89DAB2F0
:10365C00FB681B681A6121E03B891B0A9BB2DAB23A
:10366C00FB681B681A617A6A396AF86800F0DCF941
:10367C000346002B0DD0FB681B6C042B07D1FB6899
:10368C001B681A68FB681B6842F400721A600123FD
:10369C0005E03B89DAB2FB681B681A610023184607
:1036AC001837BD4680BD00BF0200010080B588B050
:1036BC0002AFF860084611461A4603467B810B465A
:1036CC003B811346FB80FB681B681A68FB681B6810
:1036DC0042F480621A60FB681B681A68FB681B68FE
:1036EC0042F480721A607B6A00933B6A00224FF0AE
:1036FC000111F86800F0C2F80346002B0DD0FB68EE
:10370C001B681B6803F48073B3F5807F03D1FB68DF
:10371C004FF400721A640323AAE07B89DBB21A46C9
:10372C00FB681B6802F0FE021A617B6A3A6A524916
:10373C00F86800F0FAF80346002B01D0012397E05B
:10374C0000237B61FB681B685B697B61FB681B6802
:10375C009B697B617B697A6A396AF86800F064F965
:10376C000346002B0DD0FB681B6C042B07D1FB68A8
:10377C001B681A68FB681B6842F400721A6001230C
:10378C0076E0FB88012B05D13B89DAB2FB681B681C
:10379C001A6121E03B891B0A9BB2DAB2FB681B68F9
:1037AC001A617A6A396AF86800F03EF90346002B10
:1037BC000DD0FB681B6C042B07D1FB681B681A68C7
:1037CC00FB681B6842F400721A60012350E03B89CD
:1037DC00DAB2FB681B681A617A6A396AF86800F019
:1037EC0023F90346002B0DD0FB681B6C042B07D16F
:1037FC00FB681B681A68FB681B6842F400721A604D
:10380C00012335E0FB681B681A68FB681B6842F4EF
:10381C0080721A607B6A00933B6A00224FF00111A0
:10382C00F86800F02BF80346002B0DD0FB681B68E2
:10383C001B6803F48073B3F5807F03D1FB684FF4EE
:10384C0000721A64032313E07B89DBB243F001039B
:10385C00DAB2FB681B681A617B6A3A6A0649F86837
:10386C0000F063F80346002B01D0012300E0002395
:10387C0018461837BD4680BD0200010080B584B0E3
:10388C0000AFF860B9603B601346FB7125E03B6804
:10389C00B3F1FF3F21D0FEF715FE0246BB69D31AE8
:1038AC003A689A4202D33B68002B16D1FB6800227F
:1038BC001A63FB68202283F83D20FB68002283F802
:1038CC003E20FB681B6C43F02002FB681A64FB680B
:1038DC00002283F83C20012323E0BB681B0CDBB2E5
:1038EC00012B0DD1FB681B685B69DA43BB68134085
:1038FC009BB2002B0CBF01230023DBB21A460CE059
:10390C00FB681B689B69DA43BB6813409BB2002BB6
:10391C000CBF01230023DBB21A46FB799A42B6D0C6
:10392C00002318461037BD4680BD80B584B000AF6B
:10393C00F860B9607A603B6051E0FB681B685B69BA
:10394C0003F48063B3F5806F23D1FB681B681A689E
:10395C00FB681B6842F400721A60FB681B686FF40A
:10396C0080625A61FB6800221A63FB68202283F88C
:10397C003D20FB68002283F83E20FB681B6C43F063
:10398C000402FB681A64FB68002283F83C200123C4
:10399C0046E07B68B3F1FF3F21D0FEF793FD024672
:1039AC003B68D31A7A689A4202D37B68002B16D1F3
:1039BC00FB6800221A63FB68202283F83D20FB6819
:1039CC00002283F83E20FB681B6C43F02002FB684E
:1039DC001A64FB68002283F83C20012320E0BB68BA
:1039EC001B0CDBB2012B0CD1FB681B685B69DA4347
:1039FC00BB6813409BB2002B14BF01230023DBB226
:103A0C000BE0FB681B689B69DA43BB6813409BB2F5
:103A1C00002B14BF01230023DBB2002B8DD100231C
:103A2C0018461037BD4680BD80B584B000AFF86035
:103A3C00B9607A602DE0F86800F0CEF80346002BF0
:103A4C0001D001232DE0BB68B3F1FF3F21D0FEF77D
:103A5C0039FD02467B68D31ABA689A4202D3BB6816
:103A6C00002B16D1FB6800221A63FB68202283F816
:103A7C003D20FB68002283F83E20FB681B6C43F062
:103A8C002002FB681A64FB68002283F83C200123A7
:103A9C0007E0FB681B685B6903F08003802BCAD1CD
:103AAC00002318461037BD4680BD80B584B000AFEA
:103ABC00F860B9607A602DE0F86800F08DF8034684
:103ACC00002B01D001232DE0BB68B3F1FF3F21D0C7
:103ADC00FEF7F8FC02467B68D31ABA689A4202D306
:103AEC00BB68002B16D1FB6800221A63FB682022EE
:103AFC0083F83D20FB68002283F83E20FB681B6C9A
:103B0C0043F02002FB681A64FB68002283F83C2017
:103B1C00012307E0FB681B685B6903F00403042BBB
:103B2C00CAD1002318461037BD4680BD80B584B07D
:103B3C0000AFF860B9607A6042E0FB681B685B69B3
:103B4C0003F01003102B19D1FB681B686FF01002E7
:103B5C005A61FB6800221A63FB68202283F83D201F
:103B6C00FB68002283F83E20FB681A6CFB681A6421
:103B7C00FB68002283F83C20012329E0FEF7A2FC1D
:103B8C0002467B68D31ABA689A4202D3BB68002BF0
:103B9C0016D1FB6800221A63FB68202283F83D20B3
:103BAC00FB68002283F83E20FB681B6C43F020026C
:103BBC00FB681A64FB68002283F83C20012307E0B1
:103BCC00FB681B685B6903F04003402BB5D10023F5
:103BDC0018461037BD4680BD80B483B000AF786006
:103BEC007B681B685B6903F48063B3F5806F1BD142
:103BFC007B681B686FF480625A617B6800221A63D1
:103C0C007B68202283F83D207B68002283F83E20CD
:103C1C007B681B6C43F004027B681A647B6800228F
:103C2C0083F83C20012300E0002318460C37BD46E6
:103C3C0080BC704780B586B000AF78607B68002B85
:103C4C0001D1012372E27B681B6803F00103002B96
:103C5C0000F08780924B5B6803F00C03042B0CD0B4
:103C6C008F4B5B6803F00C03082B12D18C4B5B68F9
:103C7C0003F48033B3F5803F0BD1894B1B6803F4FD
:103C8C000033002B6CD07B685B68002B68D1012360
:103C9C004CE27B685B68B3F5803F06D1804B1B68B8
:103CAC007F4A43F4803313602EE07B685B68002B03
:103CBC000CD17B4B1B687A4A23F480331360784B0E
:103CCC001B68774A23F4802313601DE07B685B68D4
:103CDC00B3F5A02F0CD1724B1B68714A43F48023AF
:103CEC0013606F4B1B686E4A43F4803313600BE018
:103CFC006B4B1B686A4A23F480331360684B1B6858
:103D0C00674A23F4802313607B685B68002B13D015
:103D1C00FEF7D8FB386108E0FEF7D4FB02463B699E
:103D2C00D31A642B01D9032300E25D4B1B6803F407
:103D3C000033002BF0D014E0FEF7C4FB386108E030
:103D4C00FEF7C0FB02463B69D31A642B01D903234F
:103D5C00ECE1534B1B6803F40033002BF0D100E073
:103D6C0000BF7B681B6803F00203002B63D04C4B35
:103D7C005B6803F00C03002B0BD0494B5B6803F022
:103D8C000C03082B1CD1464B5B6803F48033002BCF
:103D9C0016D1434B1B6803F00203002B05D07B6844
:103DAC001B69012B01D00123C0E13D4B1B6823F0A3
:103DBC00F8027B685B69DB00394913430B603AE01E
:103DCC007B681B69002B20D0364B01221A60FEF752
:103DDC0079FB386108E0FEF775FB02463B69D31AA4
:103DEC00022B01D90323A1E12D4B1B6803F0020325
:103DFC00002BF0D02A4B1B6823F0F8027B685B6920
:103E0C00DB00274913430B6015E0264B00221A6098
:103E1C00FEF758FB386108E0FEF754FB02463B699D
:103E2C00D31A022B01D9032380E11D4B1B6803F02D
:103E3C000203002BF0D17B681B6803F00803002BF6
:103E4C003AD07B689B69002B19D0174B01221A6062
:103E5C00FEF738FB386108E0FEF734FB02463B699D
:103E6C00D31A022B01D9032360E10D4B5B6A03F0DB
:103E7C000203002BF0D0012000F0D8FA1CE00A4B12
:103E8C0000221A60FEF71EFB38610FE0FEF71AFBEA
:103E9C0002463B69D31A022B08D9032346E100BF23
:103EAC00001002400000424280044242924B5B6A86
:103EBC0003F00203002BE9D17B681B6803F00403B9
:103ECC00002B00F0A6800023FB758B4BDB6903F005
:103EDC008053002B0DD1884BDB69874A43F080530C
:103EEC00D361854BDB6903F08053BB60BB68012356
:103EFC00FB75824B1B6803F48073002B18D17F4B2E
:103F0C001B687E4A43F480731360FEF7DBFA38615A
:103F1C0008E0FEF7D7FA02463B69D31A642B01D9A5
:103F2C00032303E1754B1B6803F48073002BF0D063
:103F3C007B68DB68012B06D16F4B1B6A6E4A43F022
:103F4C00010313622DE07B68DB68002B0CD16A4BFC
:103F5C001B6A694A23F001031362674B1B6A664AAA
:103F6C0023F0040313621CE07B68DB68052B0CD187
:103F7C00614B1B6A604A43F0040313625E4B1B6A7D
:103F8C005D4A43F0010313620BE05B4B1B6A5A4A18
:103F9C0023F001031362584B1B6A574A23F00403A6
:103FAC0013627B68DB68002B15D0FEF78BFA386147
:103FBC000AE0FEF787FA02463B69D31A41F28832CF
:103FCC00934201D90323B1E04B4B1B6A03F002036C
:103FDC00002BEED014E0FEF775FA38610AE0FEF71C
:103FEC0071FA02463B69D31A41F28832934201D9E5
:103FFC0003239BE0404B1B6A03F00203002BEED122
:10400C00FB7D012B05D13C4BDB693B4A23F08053F4
:10401C00D3617B68DB69002B00F08780364B5B68D3
:10402C0003F00C03082B61D07B68DB69022B46D1B3
:10403C00334B00221A60FEF745FA386108E0FEF7B0
:10404C0041FA02463B69D31A022B01D903236DE0D6
:10405C00294B1B6803F00073002BF0D17B681B6AA3
:10406C00B3F5803F08D1244B5B6823F400327B68A6
:10407C009B68214913434B601F4B5B6823F47412FC
:10408C007B68196A7B685B6A0B431B4913434B6063
:10409C001B4B01221A60FEF715FA386108E0FEF797
:1040AC0011FA02463B69D31A022B01D903233DE0D6
:1040BC00114B1B6803F00073002BF0D035E0104B54
:1040CC0000221A60FEF7FEF9386108E0FEF7FAF9F3
:1040DC0002463B69D31A022B01D9032326E0064B77
:1040EC001B6803F00073002BF0D11EE07B68DB69CA
:1040FC00012B07D1012319E0001002400070004091
:10410C00600042420B4B5B68FB60FB6803F480323F
:10411C007B681B6A9A4206D1FB6803F470127B68B9
:10412C005B6A9A4201D0012300E00023184618373D
:10413C00BD4680BD0010024080B584B000AF7860F1
:10414C0039607B68002B01D10123D0E06A4B1B68DE
:10415C0003F007033A689A4210D9674B1B6823F0A7
:10416C00070265493B6813430B60634B1B6803F004
:10417C0007033A689A4201D00123B8E07B681B68B8
:10418C0003F00203002B20D07B681B6803F00403B0
:10419C00002B05D0594B5B68584A43F4E0635360DD
:1041AC007B681B6803F00803002B05D0534B5B683E
:1041BC00524A43F460535360504B5B6823F0F00257
:1041CC007B689B684D4913434B607B681B6803F00D
:1041DC000103002B40D07B685B68012B07D1474B58
:1041EC001B6803F40033002B15D101237FE07B689F
:1041FC005B68022B07D1414B1B6803F00073002B4B
:10420C0009D1012373E03D4B1B6803F00203002B23
:10421C0001D101236BE0394B5B6823F003027B680F
:10422C005B68364913434B60FEF74CF9F8600AE0C3
:10423C00FEF748F90246FB68D31A41F288329342E2
:10424C0001D9032353E02D4B5B6803F00C027B6810
:10425C005B689B009A42EBD1274B1B6803F007036A
:10426C003A689A4210D2244B1B6823F00702224969
:10427C003B6813430B60204B1B6803F007033A6841
:10428C009A4201D0012332E07B681B6803F00403DF
:10429C00002B08D0194B5B6823F4E0627B68DB6869
:1042AC00164913434B607B681B6803F00803002B13
:1042BC0009D0124B5B6823F460527B681B69DB00EE
:1042CC000E4913434B6000F021F802460B4B5B6820
:1042DC001B0903F00F030A49CB5C22FA03F3094ACA
:1042EC001360094B1B681846FEF7AAF80023184602
:1042FC001037BD4680BD00BF0020024000100240B8
:10430C00745F0008700000207400002090B48AB024
:10431C0000AF294B3C1D0FCB84E80F0040F201236A
:10432C003B800023FB610023BB6100237B620023E5
:10433C007B6100233B62214B5B68FB61FB6903F0F3
:10434C000C03042B02D0082B03D02BE01C4B3B623C
:10435C002BE0FB699B0C03F00F0328333B4413F851
:10436C00243C7B61FB6903F48033002B12D0134B8C
:10437C005B685B0C03F0010328333B4413F8283CC7
:10438C00BB617B690E4A03FB02F2BB69B2FBF3F320
:10439C007B6204E07B690B4A02FB03F37B627B6A62
:1043AC003B6202E0064B3B6200BF3B6A1846283773
:1043BC00BD4690BC704700BF645F0008001002400F
:1043CC0000127A0000093D0080B400AF024B1B685C
:1043DC001846BD4680BC70477000002080B500AF09
:1043EC00FFF7F2FF0246054B5B681B0A03F007035D
:1043FC000349CB5C22FA03F3184680BD001002403F
:10440C00845F000880B500AFFFF7DEFF0246054B66
:10441C005B68DB0A03F007030349CB5C22FA03F366
:10442C00184680BD00100240845F000880B485B03F
:10443C0000AF78600A4B1B680A4AA2FB03235B0A95
:10444C007A6802FB03F3FB6000BFFB685A1EFA603C
:10445C00002BF9D100BF00BF1437BD4680BC70479C
:10446C0070000020D34D621080B582B000AF786030
:10447C007B68002B01D1012341E07B6893F83D3030
:10448C00DBB2002B06D17B68002283F83C207868D5
:10449C00FDF700FE7B68022283F83D207B681A68DA
:1044AC007B6804331946104600F056FC7B680122E9
:1044BC0083F846207B68012283F83E207B6801222A
:1044CC0083F83F207B68012283F840207B6801221F
:1044DC0083F841207B68012283F842207B6801220B
:1044EC0083F843207B68012283F844207B680122F7
:1044FC0083F845207B68012283F83D200023184671
:10450C000837BD4680BD000080B485B000AF786030
:10451C007B6893F83D30DBB2012B01D001233AE0EC
:10452C007B68022283F83D207B681B68DA687B6815
:10453C001B6842F00102DA607B681B68184A9342E0
:10454C000ED07B681B68B3F1804F09D07B681B6869
:10455C00144A934204D07B681B68134A934211D1CE
:10456C007B681B689B6803F00703FB60FB68062BEA
:10457C0010D07B681B681A687B681B6842F00102CC
:10458C001A6007E07B681B681A687B681B6842F03E
:10459C0001021A60002318461437BD4680BC7047D0
:1045AC00002C0140000400400008004080B483B09F
:1045BC0000AF78607B681B68DA687B681B6822F048
:1045CC000102DA607B681B681A6A41F2111313400E
:1045DC00002B0FD17B681B681A6A40F244431340CE
:1045EC00002B07D17B681B681A687B681B6822F05C
:1045FC0001021A607B68012283F83D2000231846D3
:10460C000C37BD4680BC704780B582B000AF786077
:10461C007B68002B01D1012341E07B6893F83D308E
:10462C00DBB2002B06D17B68002283F83C20786833
:10463C0000F039F87B68022283F83D207B681A6809
:10464C007B6804331946104600F086FB7B68012218
:10465C0083F846207B68012283F83E207B68012288
:10466C0083F83F207B68012283F840207B6801227D
:10467C0083F841207B68012283F842207B68012269
:10468C0083F843207B68012283F844207B68012255
:10469C0083F845207B68012283F83D2000231846CF
:1046AC000837BD4680BD80B483B000AF786000BFD2
:1046BC000C37BD4680BC704780B584B000AF7860C5
:1046CC0039603B68002B09D17B6893F83E30DBB234
:1046DC00012B14BF01230023DBB222E03B68042B27
:1046EC0009D17B6893F83F30DBB2012B14BF012357
:1046FC000023DBB215E03B68082B09D17B6893F8EB
:10470C004030DBB2012B14BF01230023DBB208E0E5
:10471C007B6893F84130DBB2012B14BF01230023DB
:10472C00DBB2002B01D001235EE03B68002B04D1EF
:10473C007B68022283F83E2013E03B68042B04D1F3
:10474C007B68022283F83F200BE03B68082B04D1E6
:10475C007B68022283F8402003E07B68022283F806
:10476C0041207B681B6801223968184600F074FDF3
:10477C007B681B681E4A934207D17B681B685A6C86
:10478C007B681B6842F400425A647B681B68184AB9
:10479C0093420ED07B681B68B3F1804F09D07B68C5
:1047AC001B68144A934204D07B681B68124A9342DC
:1047BC0011D17B681B689B6803F00703FB60FB68E7
:1047CC00062B10D07B681B681A687B681B6842F04C
:1047DC0001021A6007E07B681B681A687B681B681B
:1047EC0042F001021A60002318461037BD4680BD06
:1047FC00002C0140000400400008004080B582B04D
:10480C0000AF78607B681B681B6903F00203022B06
:10481C0022D17B681B68DB6803F00203022B1BD1DF
:10482C007B681B686FF002021A617B6801221A77A1
:10483C007B681B689B6903F00303002B03D078682B
:10484C0000F06FFA05E0786800F062FA786800F022
:10485C0071FA7B6800221A777B681B681B6903F06E
:10486C000403042B22D17B681B68DB6803F0040370
:10487C00042B1BD17B681B686FF004021A617B68E8
:10488C0002221A777B681B689B6903F44073002B28
:10489C0003D0786800F045FA05E0786800F038FA43
:1048AC00786800F047FA7B6800221A777B681B68EF
:1048BC001B6903F00803082B22D17B681B68DB689B
:1048CC0003F00803082B1BD17B681B686FF00802F0
:1048DC001A617B6804221A777B681B68DB6903F01A
:1048EC000303002B03D0786800F01BFA05E078680E
:1048FC0000F00EFA786800F01DFA7B6800221A7737
:10490C007B681B681B6903F01003102B22D17B689A
:10491C001B68DB6803F01003102B1BD17B681B6832
:10492C006FF010021A617B6808221A777B681B688B
:10493C00DB6903F44073002B03D0786800F0F1F9C5
:10494C0005E0786800F0E4F9786800F0F3F97B682A
:10495C0000221A777B681B681B6903F00103012B8B
:10496C000ED17B681B68DB6803F00103012B07D1B8
:10497C007B681B686FF001021A617868FCF7A2FA79
:10498C007B681B681B6903F08003802B0ED17B684E
:10499C001B68DB6803F08003802B07D17B681B68E6
:1049AC006FF080021A61786800F032FD7B681B683A
:1049BC001B6903F04003402B0ED17B681B68DB683E
:1049CC0003F04003402B07D17B681B686FF040025B
:1049DC001A61786800F0B7F97B681B681B6903F0F3
:1049EC002003202B0ED17B681B68DB6803F02003AF
:1049FC00202B07D17B681B686FF020021A61786846
:104A0C0000F0FDFC00BF0837BD4680BD80B584B00A
:104A1C0000AFF860B9607A60FB6893F83C30012B0A
:104A2C0001D10223ACE0FB68012283F83C207B68B7
:104A3C000C2B00F29F8001A252F823F07D4A000853
:104A4C00814B0008814B0008814B0008BD4A0008CF
:104A5C00814B0008814B0008814B0008FF4A00087D
:104A6C00814B0008814B0008814B00083F4B00082C
:104A7C00FB681B68B968184600F0D0F9FB681B6826
:104A8C009A69FB681B6842F008029A61FB681B6814
:104A9C009A69FB681B6822F004029A61FB681B6828
:104AAC009969BB681A69FB681B680A439A6162E0E2
:104ABC00FB681B68B968184600F016FAFB681B689F
:104ACC009A69FB681B6842F400629A61FB681B6878
:104ADC009A69FB681B6822F480629A61FB681B6808
:104AEC009969BB681B691A02FB681B680A439A61C7
:104AFC0041E0FB681B68B968184600F05FFAFB6878
:104B0C001B68DA69FB681B6842F00802DA61FB6813
:104B1C001B68DA69FB681B6822F00402DA61FB6827
:104B2C001B68D969BB681A69FB681B680A43DA61A0
:104B3C0021E0FB681B68B968184600F0A9FAFB680D
:104B4C001B68DA69FB681B6842F40062DA61FB6877
:104B5C001B68DA69FB681B6822F48062DA61FB6807
:104B6C001B68D969BB681B691A02FB681B680A437E
:104B7C00DA6100E000BFFB68002283F83C200023D0
:104B8C0018461037BD4680BD80B584B000AF786044
:104B9C0039607B6893F83C30012B01D10223B3E0E0
:104BAC007B68012283F83C207B68022283F83D203D
:104BBC007B681B689B68FB60FB6823F07703FB60DA
:104BCC00FB6823F47F43FB607B681B68FA689A6080
:104BDC003B681B68B3F5005F3ED0B3F5005F00F295
:104BEC008780B3F5805F00F08580B3F5805F7FD858
:104BFC00702B1AD0702B7BD8602B50D0602B77D8B1
:104C0C00502B3CD0502B73D8402B58D0402B6FD806
:104C1C00302B64D0302B6BD8202B60D0202B67D856
:104C2C00002B5CD0102B5AD062E07B6818683B6874
:104C3C0099683B685A683B68DB6800F0EEFA7B6861
:104C4C001B689B68FB60FB6843F07703FB607B6829
:104C5C001B68FA689A604EE07B6818683B68996834
:104C6C003B685A683B68DB6800F0D7FA7B681B68C6
:104C7C009A687B681B6842F480429A603BE07B68D0
:104C8C0018683B6859683B68DB681A4600F04EFAB6
:104C9C007B681B685021184600F0A5FA2BE07B6856
:104CAC0018683B6859683B68DB681A4600F06CFA78
:104CBC007B681B686021184600F095FA1BE07B6846
:104CCC0018683B6859683B68DB681A4600F02EFA96
:104CDC007B681B684021184600F085FA0BE07B6866
:104CEC001A683B681B681946104600F07CFA02E013
:104CFC0000BF00E000BF7B68012283F83D207B6889
:104D0C00002283F83C20002318461037BD4680BD96
:104D1C0080B483B000AF786000BF0C37BD4680BC58
:104D2C00704780B483B000AF786000BF0C37BD46CD
:104D3C0080BC704780B483B000AF786000BF0C3784
:104D4C00BD4680BC704780B483B000AF786000BFB4
:104D5C000C37BD4680BC704780B485B000AF78601E
:104D6C0039607B681B68FB607B68294A93420BD0D7
:104D7C007B68B3F1804F07D07B68264A934203D0FF
:104D8C007B68254A934208D1FB6823F07003FB60D3
:104D9C003B685B68FA681343FB607B681C4A934270
:104DAC000BD07B68B3F1804F07D07B68194A9342D4
:104DBC0003D07B68184A934208D1FB6823F44073F4
:104DCC00FB603B68DB68FA681343FB60FB6823F00D
:104DDC0080023B685B691343FB607B68FA681A606E
:104DEC003B689A687B68DA623B681A687B689A62EF
:104DFC007B68074A934203D13B681A697B681A6344
:104E0C007B6801225A6100BF1437BD4680BC7047D5
:104E1C00002C0140000400400008004080B487B022
:104E2C0000AF786039607B681B6A23F001027B68F5
:104E3C001A627B681B6A7B617B685B683B617B6881
:104E4C009B69FB60FB6823F07003FB60FB6823F03D
:104E5C000303FB603B681B68FA681343FB607B69C8
:104E6C0023F002037B613B689B687A6913437B6187
:104E7C007B681C4A93420CD17B6923F008037B614D
:104E8C003B68DB687A6913437B617B6923F004031D
:104E9C007B617B68134A934211D13B6923F4807385
:104EAC003B613B6923F400733B613B685B693A6986
:104EBC0013433B613B689B693A6913433B617B68D5
:104ECC003A695A607B68FA689A613B685A687B68F1
:104EDC005A637B687A691A6200BF1C37BD4680BC76
:104EEC00704700BF002C014080B487B000AF7860E1
:104EFC0039607B681B6A23F010027B681A627B683E
:104F0C001B6A7B617B685B683B617B689B69FB60B0
:104F1C00FB6823F4E043FB60FB6823F44073FB6005
:104F2C003B681B681B02FA681343FB607B6923F028
:104F3C0020037B613B689B681B017A6913437B618F
:104F4C007B681D4A93420DD17B6923F080037B6102
:104F5C003B68DB681B017A6913437B617B6923F037
:104F6C0040037B617B68144A934213D13B6923F461
:104F7C0080633B613B6923F400633B613B685B6985
:104F8C009B003A6913433B613B689B699B003A6900
:104F9C0013433B617B683A695A607B68FA689A6193
:104FAC003B685A687B689A637B687A691A6200BFAF
:104FBC001C37BD4680BC7047002C014080B487B0C4
:104FCC0000AF786039607B681B6A23F480727B6861
:104FDC001A627B681B6A7B617B685B683B617B68E0
:104FEC00DB69FB60FB6823F07003FB60FB6823F05C
:104FFC000303FB603B681B68FA681343FB607B6927
:10500C0023F400737B613B689B681B027A69134332
:10501C007B617B681D4A93420DD17B6923F400634D
:10502C007B613B68DB681B027A6913437B617B699C
:10503C0023F480637B617B68144A934213D13B69F0
:10504C0023F480533B613B6923F400533B613B6881
:10505C005B691B013A6913433B613B689B691B010C
:10506C003A6913433B617B683A695A607B68FA681A
:10507C00DA613B685A687B68DA637B687A691A6222
:10508C0000BF1C37BD4680BC704700BF002C0140E0
:10509C0080B487B000AF786039607B681B6A23F4FA
:1050AC0080527B681A627B681B6A3B617B685B6819
:1050BC007B617B68DB69FB60FB6823F4E043FB608E
:1050CC00FB6823F44073FB603B681B681B02FA68A7
:1050DC001343FB603B6923F400533B613B689B68C3
:1050EC001B033A6913433B617B680F4A934209D116
:1050FC007B6923F480437B613B685B699B017A6924
:10510C0013437B617B687A695A607B68FA68DA6161
:10511C003B685A687B681A647B683A691A6200BFFC
:10512C001C37BD4680BC7047002C014080B487B052
:10513C0000AFF860B9607A60FB681B6A7B61FB6842
:10514C001B6A23F00102FB681A62FB689B693B61D6
:10515C003B6923F0F0033B617B681B013A69134305
:10516C003B617B6923F00A037B617A69BB6813435B
:10517C007B61FB683A699A61FB687A691A6200BFC5
:10518C001C37BD4680BC704780B487B000AFF86058
:10519C00B9607A60FB681B6A23F01002FB681A6224
:1051AC00FB689B697B61FB681B6A3B617B6923F431
:1051BC0070437B617B681B037A6913437B613B699A
:1051CC0023F0A0033B61BB681B013A6913433B61AD
:1051DC00FB687A699A61FB683A691A6200BF1C37EE
:1051EC00BD4680BC704780B485B000AF7860396034
:1051FC007B689B68FB60FB6823F07003FB603A687C
:10520C00FB68134343F00703FB607B68FA689A6002
:10521C0000BF1437BD4680BC704780B487B000AF68
:10522C00F860B9607A603B60FB689B687B617B6966
:10523C0023F47F437B613B681A027B681A43BB688B
:10524C0013437A6913437B61FB687A699A6000BFE8
:10525C001C37BD4680BC704780B487B000AFF86087
:10526C00B9607A60BB6803F01F03012202FA03F3F2
:10527C007B61FB681A6A7B69DB431A40FB681A6224
:10528C00FB681A6ABB6803F01F03796801FA03F321
:10529C001A43FB681A6200BF1C37BD4680BC7047BE
:1052AC0080B485B000AF786039607B6893F83C308F
:1052BC00012B01D1022346E07B68012283F83C20BC
:1052CC007B68022283F83D207B681B685B68FB606F
:1052DC007B681B689B68BB60FB6823F07003FB60FA
:1052EC003B681B68FA681343FB607B681B68FA68B1
:1052FC005A607B681B68164A93420ED07B681B6809
:10530C00B3F1804F09D07B681B68124A934204D0DA
:10531C007B681B68104A93420CD1BB6823F0800356
:10532C00BB603B685B68BA681343BB607B681B68F7
:10533C00BA689A607B68012283F83D207B68002262
:10534C0083F83C20002318461437BD4680BC7047B8
:10535C00002C0140000400400008004080B485B0DF
:10536C0000AF786039600023FB607B6893F83C30B9
:10537C00012B01D102233DE07B68012283F83C2004
:10538C00FB6823F0FF023B68DB681343FB60FB68A0
:10539C0023F440723B689B681343FB60FB6823F467
:1053AC0080623B685B681343FB60FB6823F400621C
:1053BC003B681B681343FB60FB6823F480523B681B
:1053CC001B691343FB60FB6823F400523B685B6969
:1053DC001343FB60FB6823F480423B68DB69134397
:1053EC00FB607B681B68FA685A647B68002283F850
:1053FC003C20002318461437BD4680BC704780B44F
:10540C0083B000AF786000BF0C37BD4680BC7047DE
:10541C0080B483B000AF786000BF0C37BD4680BC51
:10542C00704780B582B000AF78607B68002B01D1EB
:10543C0001233FE07B6893F83D30DBB2002B06D1B3
:10544C007B68002283F83C207868FCF75BFF7B6864
:10545C00242283F83D207B681B68DA687B681B6814
:10546C0022F40052DA60786800F084FC7B681B68D8
:10547C001A697B681B6822F490421A617B681B686E
:10548C005A697B681B6822F02A025A617B681B6888
:10549C00DA687B681B6842F40052DA607B68002291
:1054AC001A647B68202283F83D207B68202283F8D5
:1054BC003E20002318460837BD4680BD80B58AB013
:1054CC0002AFF860B9603B601346FB8000237B6140
:1054DC00FB6893F83D30DBB2202B7CD1BB68002BF2
:1054EC0002D0FB88002B01D1012375E0FB6893F8F7
:1054FC003C30012B01D102236EE0FB68012283F8C2
:10550C003C20FB6800221A64FB68212283F83D20B2
:10551C00FCF7D8FF7861FB68FA889A84FB68FA88F4
:10552C00DA84FB689B68B3F5805F08D1FB681B6964
:10553C00002B04D10023FB61BB68BB6103E0BB689B
:10554C00FB610023BB61FB68002283F83C202AE04E
:10555C003B6800937B6900228021F86800F037FAE1
:10556C000346002B01D0032336E0FB69002B0BD143
:10557C00BB691B881A46FB681B68C2F308025A6099
:10558C00BB690233BB6107E0FB691A78FB681B68D7
:10559C005A60FB690133FB61FB68DB8C9BB2013BFE
:1055AC009AB2FB68DA84FB68DB8C9BB2002BCFD100
:1055BC003B6800937B6900224021F86800F007FAF1
:1055CC000346002B01D0032306E0FB68202283F85E
:1055DC003D20002300E0022318462037BD4680BD45
:1055EC0080B584B000AFF860B9601346FB80FB68EF
:1055FC0093F83E30DBB2202B1DD1BB68002B02D0C0
:10560C00FB88002B01D1012316E0FB6893F83C309A
:10561C00012B01D102230FE0FB68012283F83C200F
:10562C00FB6800221A63FB881A46B968F86800F018
:10563C0018FA034600E0022318461037BD4680BD19
:10564C0080B58AB000AF78607B681B681B687B6292
:10565C007B681B68DB683B627B681B685B69FB6172
:10566C000023BB6100237B617B6A03F00F03BB61EA
:10567C00BB69002B0DD17B6A03F02003002B08D0F3
:10568C003B6A03F02003002B03D0786800F0C9FAC2
:10569C007BE1BB69002B00F0B180FB6903F00103D7
:1056AC00002B05D13B6A03F49073002B00F0A6800D
:1056BC007B6A03F00103002B0AD03B6A03F480736E
:1056CC00002B05D07B681B6C43F001027B681A64CD
:1056DC007B6A03F00403002B0AD0FB6903F001037F
:1056EC00002B05D07B681B6C43F002027B681A64AC
:1056FC007B6A03F00203002B0AD0FB6903F0010361
:10570C00002B05D07B681B6C43F004027B681A6489
:10571C007B6A03F00803002B0FD03B6A03F02003D5
:10572C00002B04D1FB6903F00103002B05D07B682F
:10573C001B6C43F008027B681A647B681B6C002BA3
:10574C0000F01E817B6A03F02003002B07D03B6A1C
:10575C0003F02003002B02D0786800F062FA7B681B
:10576C001B685B6903F04003002B14BF012300236B
:10577C00DBB27B617B681B6C03F00803002B02D14E
:10578C007B69002B31D0786800F0A4F97B681B682A
:10579C005B6903F04003002B23D07B681B685A69BC
:1057AC007B681B6822F040025A617B689B6B002B64
:1057BC0013D07B689B6B764A5A637B689B6B18464D
:1057CC00FCF7F6FF0346002B16D07B689B6B5B6BDC
:1057DC007A68926B104698470EE0786800F0E3F810
:1057EC000AE0786800F0DFF806E0786800F0DBF893
:1057FC007B6800221A64C3E000BFC1E07B681B6BAE
:10580C00012B40F0A1807B6A03F01003002B00F009
:10581C009B803B6A03F01003002B00F09580002363
:10582C00FB607B681B681B68FB607B681B685B68A4
:10583C00FB60FB687B681B685B6903F04003002B13
:10584C004ED07B689B6B1B685B683B823B8A002B52
:10585C0000F098807B689B8D3A8A9A4280F0928007
:10586C007B683A8ADA857B689B6B9B69202B2BD0F3
:10587C007B681B68DA687B681B6822F48072DA60CC
:10588C007B681B685A697B681B6822F001025A61AD
:10589C007B681B685A697B681B6822F040025A615E
:1058AC007B68202283F83E207B6800221A637B6889
:1058BC001B68DA687B681B6822F01002DA607B6870
:1058CC009B6B1846FCF739FF7B689A8D7B68DB8DE8
:1058DC009BB2D31A9BB21946786800F06DF851E070
:1058EC007B689A8D7B68DB8D9BB2D31A7B827B683D
:1058FC00DB8D9BB2002B47D07B8A002B44D07B687E
:10590C001B68DA687B681B6822F49072DA607B682B
:10591C001B685A697B681B6822F001025A617B681C
:10592C00202283F83E207B6800221A637B681B6868
:10593C00DA687B681B6822F01002DA607B8A1946F1
:10594C00786800F039F81FE07B6A03F08003002BC5
:10595C0008D03B6A03F08003002B03D0786800F07A
:10596C00F9F812E07B6A03F04003002B0DD03B6A80
:10597C0003F04003002B08D0786800F03AF904E0FB
:10598C0000BF02E000BF00E000BF2837BD4680BD6D
:10599C00395B000880B483B000AF786000BF0C376F
:1059AC00BD4680BC704780B483B000AF786000BF48
:1059BC000C37BD4680BC704780B483B000AF7860B4
:1059CC000B467B8000BF0C37BD4680BC704780B552
:1059DC0084B000AFF860B9603B601346FB712CE0FB
:1059EC00BB69B3F1FF3F28D0BB69002B07D0FCF794
:1059FC0069FD02463B68D31ABA699A421DD2FB680C
:105A0C001B68DA68FB681B6822F4D072DA60FB68EA
:105A1C001B685A69FB681B6822F001025A61FB681B
:105A2C00202283F83D20FB68202283F83E20FB686F
:105A3C00002283F83C2003230FE0FB681B681A68E4
:105A4C00BB681340BA689A420CBF01230023DBB237
:105A5C001A46FB799A42C3D0002318461037BD462C
:105A6C0080BD80B485B000AFF860B9601346FB8090
:105A7C00FB68BA689A62FB68FA889A85FB68FA88B0
:105A8C00DA85FB6800221A64FB68222283F83E2028
:105A9C00FB68002283F83C20FB681B68DA68FB6813
:105AAC001B6842F48072DA60FB681B685A69FB68F9
:105ABC001B6842F001025A61FB681B68DA68FB68DC
:105ACC001B6842F02002DA60002318461437BD46EA
