:020000040800F2
:1000000000500020413C0008053400080B34000873
:1000100011340008173400081D34000800000000E7
:100020000000000000000000000000002334000871
:100030002F340008000000003B340008473400085B
:10004000893C0008893C0008893C0008893C00087C
:10005000893C0008893C000853340008893C0008AA
:10006000893C0008893C0008893C0008893C00085C
:10007000893C0008893C0008893C0008893C00084C
:10008000893C0008893C0008893C0008893C00083C
:10009000893C0008893C0008893C0008893C00082C
:1000A000893C0008893C0008893C0008893C00081C
:1000B00061340008893C0008893C0008893C00083C
:1000C000893C0008893C0008893C0008893C0008FC
:1000D000893C0008893C000875340008893C000808
:1000E000893C0008893C0008893C000800000000A9
:1000F0000000000000000000000000000000000000
:0C01000000000000000000005FF808F1A3
:1001100010B5054C237833B9044B13B10448AFF341
:1001200000800123237010BD70000020000000003B
:10013000FC82000808B5034B1BB103490348AFF329
:10014000008008BD0000000074000020FC82000850
:1001500070B54FF0FF0C4CF4E06C1CEA11541DBF5D
:100160001CEA135594EA0C0F95EA0C0F00F0DEF828
:100170002C4481EA030621EA4C5123EA4C5350EA0D
:10018000013518BF52EA033541F4801143F480135E
:1001900038D0A0FB02CE4FF00005E1FB02E506F0EF
:1001A0000042E0FB03E54FF00006E1FB03569CF044
:1001B000000F18BF4EF0010EA4F1FF04B6F5007F4A
:1001C00064F5407404D25FEA4E0E6D4146EB0606BC
:1001D00042EAC62141EA55514FEAC52040EA5E5045
:1001E0004FEACE2EB4F1FD0C88BFBCF5E06F1ED8EF
:1001F000BEF1004F08BF5FEA500E50F1000041EB26
:10020000045170BD06F0004646EA010140EA0200D2
:1002100081EA0301B4EB5C04C2BFD4EB0C0541EAF4
:10022000045170BD41F480114FF0000E013C00F309
:10023000AB8014F1360FDEBF002001F0004170BD2D
:10024000C4F10004203C35DA0C341BDC04F1140446
:10025000C4F1200500FA05F320FA04F001FA05F2D2
:1002600040EA020001F0004221F0004110EBD3709F
:1002700021FA04F642EB06015EEA430E08BF20EACB
:10028000D37070BDC4F10C04C4F1200500FA04F36E
:1002900020FA05F001FA04F240EA020001F0004100
:1002A00010EBD37041F100015EEA430E08BF20EA73
:1002B000D37070BDC4F1200500FA05F24EEA020EBB
:1002C00020FA04F301FA05F243EA020321FA04F0EA
:1002D00001F0004121FA04F220EA020000EBD370A1
:1002E0005EEA430E08BF20EAD37070BD94F0000FA1
:1002F0000FD101F00046400041EB010111F4801FD5
:1003000008BF013CF7D041EA060195F0000F18BF85
:10031000704703F00046520043EB030313F4801FC1
:1003200008BF013DF7D043EA0603704794EA0C0F7B
:100330000CEA135518BF95EA0C0F0CD050EA410691
:1003400018BF52EA4306D1D181EA030101F000410E
:100350004FF0000070BD50EA410606BF1046194636
:1003600052EA430619D094EA0C0F02D150EA013642
:1003700013D195EA0C0F05D152EA03361CBF104683
:1003800019460AD181EA030101F0004141F0FE4122
:1003900041F470014FF0000070BD41F0FE4141F4A6
:1003A000780170BD81F0004102E000BF83F000439E
:1003B00030B54FEA41044FEA430594EA050F08BF00
:1003C00090EA020F1FBF54EA000C55EA020C7FEAC4
:1003D000645C7FEA655C00F0E2804FEA5454D4EB41
:1003E0005555B8BF6D420CDD2C4480EA020281EA0B
:1003F000030382EA000083EA010180EA020281EA43
:100400000303362D88BF30BD11F0004F4FEA013194
:100410004FF4801C4CEA113102D0404261EB4101A3
:1004200013F0004F4FEA03334CEA133302D0524229
:1004300063EB430394EA050F00F0A780A4F10104E5
:10044000D5F1200E0DDB02FA0EFC22FA05F280181F
:1004500041F1000103FA0EF2801843FA05F3594105
:100460000EE0A5F120050EF1200E012A03FA0EFC84
:1004700028BF4CF0020C43FA05F3C01851EBE371AE
:1004800001F0004507D54FF0000EDCF1000C7EEBCB
:1004900000006EEB0101B1F5801F1BD3B1F5001F09
:1004A0000CD349085FEA30004FEA3C0C04F1010428
:1004B0004FEA445212F5800F80F09A80BCF1004F51
:1004C00008BF5FEA500C50F1000041EB045141EAD3
:1004D000050130BD5FEA4C0C404141EB0101013C9C
:1004E00028BFB1F5801FE9D291F0000F04BF01468B
:1004F0000020B1FA81F308BF2033A3F10B03B3F15D
:1005000020020CDA0C3208DD02F1140CC2F10C02EC
:1005100001FA0CF021FA02F10CE002F11402D8BF4A
:10052000C2F1200C01FA02F120FA0CFCDCBF41EA16
:100530000C019040E41AA2BF01EB0451294330BDE5
:100540006FEA04041F3C1CDA0C340EDC04F11404C2
:10055000C4F1200220FA04F001FA02F340EA030099
:1005600021FA04F345EA030130BDC4F10C04C4F1DF
:10057000200220FA02F001FA04F340EA03002946BF
:1005800030BD21FA04F0294630BD94F0000F83F409
:10059000801306BF81F480110134013D4EE77FEAEC
:1005A000645C18BF7FEA655C29D094EA050F08BF38
:1005B00090EA020F05D054EA000C04BF1946104619
:1005C00030BD91EA030F1EBF0021002030BD5FEA5D
:1005D000545C05D14000494128BF41F0004130BD85
:1005E00014F580043CBF01F5801130BD01F00045D9
:1005F00045F0FE4141F470014FF0000030BD7FEA4C
:10060000645C1ABF194610467FEA655C1CBF0B4646
:10061000024650EA013406BF52EA033591EA030F5D
:1006200041F4002130BD00BF90F0000F04BF002155
:10063000704730B54FF4806404F132044FF0000588
:100640004FF0000150E700BF90F0000F04BF002101
:10065000704730B54FF4806404F1320410F0004567
:1006600048BF40424FF000013EE700BF42004FEA62
:10067000E2014FEA31014FEA02701FBF12F07F43DF
:1006800093F07F4F81F06051704732F07F4208BF96
:10069000704793F07F4F04BF41F40021704730B59D
:1006A0004FF4607401F0004521F000411CE700BFE9
:1006B00050EA010208BF704730B54FF000050AE06C
:1006C00050EA010208BF704730B511F0004502D56D
:1006D000404261EB41014FF4806404F132045FEA6F
:1006E000915C3FF4D8AE4FF003025FEADC0C18BF18
:1006F00003325FEADC0C18BF033202EBDC02C2F10A
:10070000200300FA03FC20FA02F001FA03FE40EA9B
:100710000E0021FA02F11444BDE600BF4A0011D2D6
:1007200012F5001211D20DD56FF47873B3EB62524B
:100730000ED44FEAC12343F0004343EA505323FA57
:1007400002F070474FF00000704750EA013002D1CC
:100750004FF0FF3070474FF00000704780F00040CE
:1007600002E000BF81F0004142001FBF5FEA410389
:1007700092EA030F7FEA226C7FEA236C6AD04FEA89
:100780001262D2EB1363C1BFD218414048404140CE
:10079000B8BF5B42192B88BF704710F0004F40F480
:1007A000000020F07F4018BF404211F0004F41F49C
:1007B000000121F07F4118BF494292EA030F3FD068
:1007C000A2F1010241FA03FC10EB0C00C3F120037B
:1007D00001FA03F100F0004302D5494260EB40000A
:1007E000B0F5000F13D3B0F1807F06D340084FEA75
:1007F000310102F10102FE2A51D2B1F1004F40EB6A
:10080000C25008BF20F0010040EA030070474900D1
:1008100040EB0000013A28BFB0F5000FEDD2B0FA6E
:1008200080FCACF1080CB2EB0C0200FA0CF0AABF91
:1008300000EBC25052421843BCBFD040184370472F
:1008400092F0000F81F4000106BF80F40000013235
:10085000013BB5E74FEA41037FEA226C18BF7FEA0C
:10086000236C21D092EA030F04D092F0000F08BF4E
:100870000846704790EA010F1CBF0020704712F035
:100880007F4F04D1400028BF40F00040704712F174
:1008900000723CBF00F50000704700F0004343F0D9
:1008A000FE4040F4000070477FEA226216BF08460F
:1008B0007FEA23630146420206BF5FEA412390EAD2
:1008C000010F40F4800070474FF0000304E000BFC8
:1008D00010F0004348BF40425FEA000C08BF704779
:1008E00043F0964301464FF000001CE050EA01023D
:1008F00008BF70474FF000030AE000BF50EA010252
:1009000008BF704711F0004302D5404261EB41013E
:100910005FEA010C02BF84460146002043F0B64363
:1009200008BFA3F18053A3F50003BCFA8CF2083A88
:10093000A3EBC25310DB01FA02FC634400FA02FC91
:10094000C2F12002BCF1004F20FA02F243EB020098
:1009500008BF20F00100704702F1200201FA02FCFA
:10096000C2F1200250EA4C0021FA02F243EB0200ED
:1009700008BF20EADC70704780B584B000AF3B1D33
:1009800000221A605A609A60184B194A1A60174B75
:1009900000229A60154B00221A73144B00221A751C
:1009A000124B4FF46022DA61104B00225A600F4B59
:1009B00001221A610D4803F0EFF90346002B01D024
:1009C00002F0E8FC01237B600123BB600023FB6095
:1009D0003B1D1946054803F0A3FC0346002B01D03C
:1009E00002F0D8FC00BF1037BD4680BD8C0000204F
:1009F0000024014080B58AB000AF786007F1180389
:100A000000221A605A609A60DA607B681B681F4A8D
:100A1000934237D11E4B9B691D4A43F40073936187
:100A20001B4B9B6903F400737B617B69184B9B69CB
:100A3000174A43F010039361154B9B6903F01003B1
:100A40003B613B69124B9B69114A43F0040393617C
:100A50000F4B9B6903F00403FB60FB680123BB6140
:100A60000323FB6107F1180319460A4803F0AAFFA4
:100A7000FE23BB610323FB6107F1180319460648F7
:100A800003F0A0FF00BF2837BD4680BD0024014011
:100A900000100240001001400008014080B58AB0FB
:100AA00000AF07F1180300221A605A609A60DA60FA
:100AB000744B9B69734A43F040039361714B9B698C
:100AC00003F040037B617B696E4B9B696D4A43F089
:100AD000100393616B4B9B6903F010033B613B690F
:100AE000684B9B69674A43F004039361654B9B69BC
:100AF00003F00403FB60FB68624B9B69614A43F0AF
:100B0000080393615F4B9B6903F00803BB60BB68FC
:100B10005C4B9B695B4A43F020039361594B9B6993
:100B200003F020037B607B6800227021564804F0AC
:100B3000E4F800223021554804F0DFF800220321B8
:100B4000534804F0DAF800224FF40041514804F011
:100B5000D4F801220121504804F0CFF87023BB6182
:100B60000123FB6100233B6202237B6207F1180330
:100B70001946454803F026FF0123BB61474BFB6143
:100B800000233B6207F118031946424803F01AFF9D
:100B90003023BB610123FB6100233B6202237B62A4
:100BA00007F118031946394803F00CFF0323BB6112
:100BB0000123FB6100233B6202237B6207F11803E0
:100BC0001946334803F0FEFE4FF48073BB610023E7
:100BD000FB6100233B6207F1180319462A4803F022
:100BE000F1FE40F20143BB610023FB6102233B6243
:100BF00007F118031946244803F0E4FE4FF470434C
:100C0000BB610023FB6102233B6207F11803194615
:100C10001F4803F0D7FE4FF47063BB610023FB61F4
:100C200002233B6207F1180319461B4803F0CAFE72
:100C30004FF40043BB610123FB6100233B620223AD
:100C40007B6207F118031946124803F0BBFE01232B
:100C5000BB610123FB6100233B6202237B6207F13E
:100C6000180319460C4803F0ADFE00220F210620A0
:100C700003F0C1FD062003F0DAFD00BF2837BD46B2
:100C800080BD00BF0010024000180140001001406C
:100C9000000C014000080140001401400000211038
:100CA00080B500AF124B134A1A60114B124A5A60BA
:100CB0000F4B00229A600E4B0022DA600C4B4FF46F
:100CC00080421A610A4B00225A61094B00229A6144
:100CD000074B0022DA61064B00221A62044804F036
:100CE0003DF80346002B01D002F054FB00BF80BD4D
:100CF000BC00002000540040A086010080B588B0F0
:100D000000AF786007F1100300221A605A609A6001
:100D1000DA607B681B68154A934223D1144B9B69A8
:100D2000134A43F008039361114B9B6903F00803D6
:100D3000FB60FB68C0233B6112237B610323FB61E3
:100D400007F1100319460B4803F03CFE084BDB6922
:100D5000074A43F40013D361054BDB6903F4001326
:100D6000BB60BB6800BF2037BD4680BD005400405B
:100D700000100240000C014080B582B000AF02F0CC
:100D800085FF00F0B1F8FFF789FE02F083FB02F067
:100D900091FC02F025FD02F0C7FE02F03FFCFFF7D8
:100DA0007FFFFFF7E9FD0021444805F08FFE0C218D
:100DB000424805F08BFE0C21414805F087FE0821D2
:100DC0003E4805F083FE08213D4805F07FFE0421E2
:100DD0003A4805F07BFE0421394805F077FE0021F2
:100DE000374805F073FE0021364805F06FFE0421F8
:100DF000344805F06BFE344B1A78304B1B685A634D
:100E0000314B1A782D4B1B681A642F4B1A782C4BD8
:100E10001B681A642C4B1A78284B1B68DA632A4B20
:100E20001A78274B1B68DA63274B1A78234B1B6809
:100E30009A63254B1A78224B1B689A63234B1A78C6
:100E40001F4B1B685A63214B1A781E4B1B685A6351
:100E50001C4B1B6800229A6302F0D4F901221C4942
:100E60001C4806F0C7FD00F039FF01F053FD01F00A
:100E7000E1FD01F005FF00F087F8174B1B78012B0F
:100E8000ECD102F05BFF7860144B1B78012B03D18F
:100E9000124B00221A70E1E7114B1B687A68D31AD3
:100EA0004AF6C8729342D9D90D4A7B6813600D4B3C
:100EB00001221A7000F0F6FED0E700BFB403002054
:100EC000FC03002024030020010000209F020020DA
:100ED00089020020440400209C020020940200208B
:100EE000980200209502002080B594B000AF07F171
:100EF000280328220021184607F0F8F907F1140307
:100F000000221A605A609A60DA601A613B1D002262
:100F10001A605A609A60DA600223BB620123BB63E5
:100F20001023FB6300237B6407F12803184604F0B9
:100F300015FF0346002B01D002F02CFA0F237B6132
:100F40000023BB610023FB6100233B6200237B6223
:100F500007F114030021184605F082F90346002B1F
:100F600001D002F017FA02237B600023FB603B1DD7
:100F7000184605F00DFB0346002B01D002F00AFADB
:100F800000BF5037BD4680BD80B58CB000AF002398
:100F90007B85012000F072FC03467B85924B1A682A
:100FA0007B8D1344904A1360904B1B78022B20D109
:100FB000012000F063FC03467B857A8D8C4B1B6817
:100FC0009A4208D37A8D8A4B1B68D21A894B1B68C8
:100FD0001344884A13607A8D854B1B689A4208D265
:100FE000834B1A687B8DD21A824B1B681344814A4B
:100FF0001360022000F042FC03467B857A4B5A685E
:101000007B8D1344784A5360784B5B78022B20D158
:10101000022000F033FC03467B857A8D764B1B68FB
:101020009A4208D37A8D744B1B68D21A734B1B6893
:101030001344724A13607A8D6F4B1B689A4208D230
:101040006D4B1A687B8DD21A6C4B1B6813446B4A2C
:101050001360032000F012FC03467B85624B9A6804
:101060007B8D1344604A9360604B9B78022B20D1A8
:10107000032000F003FC03467B857A8D604B1B68E0
:101080009A4208D37A8D5E4B1B68D21A5D4B1B685F
:1010900013445C4A13607A8D594B1B689A4208D2FC
:1010A000574B1A687B8DD21A564B1B681344554A0E
:1010B0001360042000F0E2FB03467B854A4BDA68AC
:1010C0007B8D1344484AD360484BDB78022B20D1F8
:1010D000042000F0D3FB03467B857A8D4A4B1B68C6
:1010E0009A4208D37A8D484B1B68D21A474B1B682B
:1010F0001344464A13607A8D434B1B689A4208D2C8
:10110000414B1A687B8DD21A404B1B6813443F4AEF
:101110001360052000F0B2FB03467B85324B1A6951
:101120007B8D1344304A1361304B1B79022B20D145
:10113000052000F0A3FB03467B857A8D344B1B68AA
:101140009A4208D37A8D324B1B68D21A314B1B68F6
:101150001344304A13607A8D2D4B1B689A4208D293
:101160002B4B1A687B8DD21A2A4B1B681344294AD1
:101170001360062000F082FB03467B851A4B5A69F8
:101180007B8D1344184A5361184B5B79022B20D195
:10119000062000F073FB03467B857A8D1E4B1B688F
:1011A0009A4208D37A8D1C4B1B68D21A1B4B1B68C2
:1011B00013441A4A13607A8D174B1B689A4208D25F
:1011C000154B1A687B8DD21A144B1B681344134AB3
:1011D0001360072000F052FB03467B85024B9A699F
:1011E0007B8D13441CE000BFE402002014010020AA
:1011F000C4020020A4020020C8020020A80200208F
:10120000CC020020AC020020D0020020B00200205E
:10121000D4020020B4020020D8020020B80200202E
:10122000A94A9361A94B9B79022B20D1072000F09A
:1012300025FB03467B857A8DA54B1B689A4208D314
:101240007A8DA34B1B68D21AA24B1B681344A14A88
:1012500013607A8D9E4B1B689A4208D29C4B1A6889
:101260007B8DD21A9B4B1B6813449A4A136008204B
:1012700000F004FB03467B85934BDA697B8D1344B6
:10128000914AD361914BDB79022B20D1082000F0E9
:10129000F5FA03467B857A8D8F4B1B689A4208D3FB
:1012A0007A8D8D4B1B68D21A8C4B1B6813448B4A6A
:1012B00013607A8D884B1B689A4208D2864B1A6855
:1012C0007B8DD21A854B1B681344844A1360844B70
:1012D0001B8801339AB2824B1A80814B1B8841F2E2
:1012E0008832934240F035824FF000037B624FF02A
:1012F00000033B624FF00003FB614FF00003BB6152
:101300004FF000037B614FF000033B614FF000039F
:10131000FB604FF00003BB60724B1B68724AA2FB7C
:1013200003231B0B6F4A1360704B1B686E4AA2FBB2
:1013300003231B0B6D4A13606D4B1B686A4AA2FBAB
:1013400003231B0B6A4A13606A4B1B68664AA2FBA5
:1013500003231B0B674A1360674B1B68624AA2FB9F
:1013600003231B0B644A1360644B1B685E4AA2FB99
:1013700003231B0B614A1360564B1B685A4AA2FB9E
:1013800003231B0B534A1360544B1B68564AA2FBA2
:1013900003231B0B514A1360524B1B681846FFF77F
:1013A00093FA03467B62514B1B681846FFF78CFA91
:1013B00003463B624E4B1B681846FFF785FA03460F
:1013C000FB614C4B1B681846FFF77EFA0346BB6176
:1013D000494B1B681846FFF777FA03467B61474B7A
:1013E0001B681846FFF770FA03463B61394B1B68D0
:1013F0001846FFF769FA0346FB60384B1B6818462E
:10140000FFF762FA0346BB60786AFFF72FF928A35B
:10141000D3E90023FEF79CFE02460B461046194610
:1014200025A3D3E90023FEF7C3FF02460B4610466F
:10143000194623A3D3E90023FEF78AFE02460B4692
:1014400010461946FFF76AF90346264A1360386AC0
:10145000FFF70CF916A3D3E90023FEF779FE024645
:101460000B461046194614A3D3E90023FEF7A0FF4C
:1014700002460B461046194611A3D3E90023FEF796
:1014800067FE02460B4610461946FFF747F903462A
:10149000164A1360F869FFF7E9F805A3D3E90023BA
:1014A000FEF756FE02460B461046194628E000BFDE
:1014B00076711B0DE02D803F6EA301BC0512743FB9
:1014C0000000000000C06C40E40200201401002075
:1014D000DC020020BC020020E0020020C00200204C
:1014E00004030020A40200205917B7D1A80200204D
:1014F000AC020020B0020020B4020020B80200209C
:1015000097A3D3E90023FEF753FF02460B4610468C
:10151000194695A3D3E90023FEF71AFE02460B46AF
:1015200010461946FFF7FAF80346974A1360B86960
:10153000FFF79CF88EA3D3E90023FEF709FE0246CD
:101540000B461046194686A3D3E90023FEF730FF69
:1015500002460B461046194683A3D3E90023FEF743
:10156000F7FD02460B4610461946FFF7D7F803462B
:10157000864A13607869FFF779F87DA3D3E90023E1
:10158000FEF7E6FD02460B461046194674A3D3E962
:101590000023FEF70DFF02460B461046194672A3C4
:1015A000D3E90023FEF7D4FD02460B461046194648
:1015B000FFF7B4F80346764A13603869FFF756F828
:1015C0006BA3D3E90023FEF7C3FD02460B4610468A
:1015D000194663A3D3E90023FEF7EAFE02460B4651
:1015E0001046194660A3D3E90023FEF7B1FD024679
:1015F0000B4610461946FFF791F80346654A1360FB
:10160000F868FFF733F85AA3D3E90023FEF7A0FDEB
:1016100002460B461046194651A3D3E90023FEF7B4
:10162000C7FE02460B46104619464FA3D3E90023D6
:10163000FEF78EFD02460B4610461946FFF76EF880
:101640000346554A1360B868FFF710F84AA3D3E978
:101650000023FEF77DFD02460B461046194648A3BF
:10166000D3E90023FEF7A2FE02460B4610461946B8
:101670003DA3D3E90023FEF76BFD02460B4610465F
:101680001946FFF74BF80346444A136002F056FB35
:101690007860434B1B687A68D31A40F6B73293429E
:1016A00006D93F4A7B68136000F04EF900F090F8CD
:1016B0003C4B1B683C4AA2FB03231B0B3B4A1360B9
:1016C000384B5B68384AA2FB03231B0B384A136074
:1016D000344B9B68344AA2FB03231B0B354A13602F
:1016E000304BDB68304AA2FB03231B0B324A1360EA
:1016F0002C4B1B692C4AA2FB03231B0B2F4A1360A4
:10170000284B5B69284AA2FB03231B0B2C4A13605E
:10171000244B9B69244AA2FB03231B0B294A136019
:10172000204BDB69204AA2FB03231B0B264A1360D4
:10173000264B00221A800023FB6207E0194AFB6A4D
:10174000002142F82310FB6A0133FB62FB6A072B7E
:10175000F4DD00BF3037BD4680BD00BFAFF3008071
:101760006EA301BC0512743F0000000000C06C4075
:1017700076711B0DE02D803FFF21FDF675E08C3F5B
:101780008E06F0164850AC3FAC020020B00200209C
:10179000B4020020B8020020BC020020C0020020D9
:1017A00008030020E40200205917B7D1C40200202A
:1017B000C8020020CC020020D0020020D402002069
:1017C000D8020020DC020020E002002004030020F8
:1017D00080B400AF194B00221A60194B00221A6026
:1017E000184B00221A60184B00221A60174B002277
:1017F0001A60174B00221A60164B00221A60164B13
:1018000000221A60154B00221A60154B00221A6044
:10181000144B00221A60144B00221A60134B002252
:101820001A60134B00221A60124B00221A60124BEE
:1018300000221A6000BFBD4680BC7047A402002091
:10184000A8020020AC020020B0020020B402002058
:10185000B8020020BC020020C0020020C402002008
:10186000C8020020CC020020D0020020D4020020B8
:10187000D8020020DC020020E002002080B586B003
:1018800000AF786007F1080300221A605A609A607E
:1018900000237B617B68082B2FD801A252F823F02C
:1018A000C5180008CB180008D1180008D718000880
:1018B000DD180008E3180008E9180008EF18000810
:1018C000F51800080023BB6018E00123BB6015E099
:1018D0000223BB6012E00323BB600FE00423BB6064
:1018E0000CE00523BB6009E00723BB6006E006238C
:1018F000BB6003E00823BB6000E000BF0123FB6086
:1019000006233B6107F1080319460E4802F008FD63
:101910000346002B01D001F03DFD0A4802F014FB04
:101920000A21084802F0EAFB064802F0EDFC0346F3
:101930007B61044802F0B6FB7B6918461837BD4648
:1019400080BD00BF8C00002080B588B000AF0023B0
:10195000FB740023FB6155233B71AA237B71032396
:10196000BB710723FB7100233B7208237B720223A8
:10197000FB7200233B7304237B730023BB730023A0
:10198000FB736823BB72AC4B1B681B0ADBB23B705A
:10199000A94B1B68DBB27B703B783B747B787B7414
:1019A0000023FB760BE0FB7E20333B4413F81C3C0A
:1019B0001A46FB691344FB61FB7E0133FB76FB7E19
:1019C0000D2BF0D9FB69FB74FB7CBB74391D6423C0
:1019D0000F229A4805F07CFF0023FB740023FB6173
:1019E0006923BB72964B1B681B0ADBB23B70944B9E
:1019F0001B68DBB27B703B783B747B787B74002385
:101A0000BB760BE0BB7E20333B4413F81C3C1A46EC
:101A1000FB691344FB61BB7E0133BB76BB7E0D2BA0
:101A2000F0D9FB69FB74FB7CBB74391D64230F2266
:101A3000824805F04DFF0023FB740023FB616B23FC
:101A4000BB72804B1B681B0ADBB23B707D4B1B6873
:101A5000DBB27B703B783B747B787B7400237B76B6
:101A60000BE07B7E20333B4413F81C3C1A46FB6999
:101A70001344FB617B7E01337B767B7E0D2BF0D99B
:101A8000FB69FB74FB7CBB74391D64230F226B481C
:101A900005F01EFF0023FB740023FB616C23BB7267
:101AA000694B1B681B0ADBB23B70674B1B68DBB2E0
:101AB0007B703B783B747B787B7400233B760BE038
:101AC0003B7E20333B4413F81C3C1A46FB6913440D
:101AD000FB613B7E01333B763B7E0D2BF0D9FB69EE
:101AE000FB74FB7CBB74391D64230F22534805F043
:101AF000EFFE0023FB740023FB616D23BB72534B8D
:101B00001B681B0ADBB23B70504B1B68DBB27B705F
:101B10003B783B747B787B740023FB750BE0FB7D8B
:101B200020333B4413F81C3C1A46FB691344FB6109
:101B3000FB7D0133FB75FB7D0D2BF0D9FB69FB743D
:101B4000FB7CBB74391D64230F223C4805F0C0FEAA
:101B50000023FB740023FB616E23BB723C4B1B68AC
:101B60001B0ADBB23B703A4B1B68DBB27B703B78E5
:101B70003B747B787B740023BB750BE0BB7D20330B
:101B80003B4413F81C3C1A46FB691344FB61BB7DC4
:101B90000133BB75BB7D0D2BF0D9FB69FB74FB7C5E
:101BA000BB74391D64230F22244805F091FE0023E5
:101BB000FB740023FB616F23BB72264B1B681B0A5F
:101BC000DBB23B70234B1B68DBB27B703B783B7412
:101BD0007B787B7400237B750BE07B7D20333B445B
:101BE00013F81C3C1A46FB691344FB617B7D0133EF
:101BF0007B757B7D0D2BF0D9FB69FB74FB7CBB7483
:101C0000391D64230F220D4805F062FE0023FB748A
:101C10000023FB616A23BB720F4B1B681B0ADBB2FC
:101C20003B700D4B1B68DBB27B703B783B747B7861
:101C30007B7400233B751DE0A402002044040020B7
:101C4000A8020020AC020020B0020020B402002054
:101C5000B8020020BC020020C00200203B7D2033DF
:101C60003B4413F81C3C1A46FB691344FB613B7D63
:101C700001333B753B7D0D2BF0D9FB69FB74FB7C7D
:101C8000BB74391D64230F22054805F021FE002393
:101C9000FB740023FB6100BF2037BD4680BD00BF41
:101CA0004404002080B500AF0A4B1B78012B0FD1F4
:101CB000084B00221A7000220121074803F01DF88A
:101CC000322002F045F801220121034803F015F803
:101CD00000BF80BD950200200014014080B582B095
:101CE00000AF4FF48061A04802F0F0FF0346002BE4
:101CF0004AD0012B58D19D4B1B78002B0CD10121D0
:101D0000012000F055FA02F019F80346984A1360D2
:101D1000984B00221A700FE0944B1B78022B0BD1CA
:101D20000021012000F044FA02F008F80346904A2E
:101D30001360904B00221A704FF480618A4802F0C1
:101D4000C5FF0346012B1BD1884B1B78012B03D009
:101D5000864B1B78032B13D1864B1B78002B0FD19E
:101D600001F0ECFF7860824B1B687A68D31A41F26D
:101D70008832934204D97F4B01221A7000F0FAFC9A
:101D80000A2001F0E5FF12E0784B1B78012B03D10C
:101D9000764B02221A7009E0744B1B78032B05D195
:101DA000724B00221A7001E000BF00E000BF4FF448
:101DB0008041714802F08AFF0346002B42D0012B7C
:101DC00050D16A4B5B78002B0CD10121022000F02E
:101DD000EFF96A4B00221A7001F0B0FF0346684A1F
:101DE00013600FE0614B5B78022B0BD100210220C6
:101DF00000F0DEF9614B00221A7001F09FFF0346EC
:101E00005F4A13604FF480415B4802F05FFF034676
:101E1000012B13D1594B1B78002B0FD101F08EFFF2
:101E20003860574B1B683A68D31A41F288329342A4
:101E300004D9524B01221A7000F09CFC0A2001F0D8
:101E400087FF12E0494B5B78012B03D1474B0222FD
:101E50005A7009E0454B5B78032B05D1434B0022B8
:101E60005A7001E000BF00E000BF4FF480514248CB
:101E700002F02CFF0346002B15D0012B22D13B4B47
:101E80009B78002B03D10121032000F091F9374BFF
:101E90009B78022B03D10021032000F089F90A204E
:101EA00001F056FF11E0314B9B78012B02D12F4BF3
:101EB00002229A702D4B9B78032B05D12B4B0022CD
:101EC0009A7001E000BF00E000BF4FF400412A48D3
:101ED00002F0FCFE0346002B15D0012B22D1234B30
:101EE000DB78002B03D10121042000F061F91F4BA6
:101EF000DB78022B03D10021042000F059F90A20DD
:101F000001F026FF11E0194BDB78012B02D1174BB2
:101F10000222DA70154BDB78032B05D1134B00221C
:101F2000DA7001E000BF00E000BF4FF4005112483A
:101F300002F0CCFE0346002B24D0012B31D10B4BF9
:101F40001B79002B03D10121052000F031F9074B4B
:101F50001B79022B03D10021052000F029F90A206A
:101F600001F0F6FE20E000BF00180140140100203F
:101F70000C03002010030020000C0140110300207E
:101F800014030020824B1B79012B02D1804B0222CB
:101F90001A717F4B1B79032B05D17D4B00221A71DF
:101FA00001E000BF00E000BF4FF48071794802F00B
:101FB0008DFE0346002B15D0012B22D1744B5B798B
:101FC000002B03D10121062000F0F2F8704B5B7961
:101FD000022B03D10021062000F0EAF80A2001F0CC
:101FE000B7FE11E06A4B5B79012B02D1684B0222EC
:101FF0005A71674B5B79032B05D1654B00225A71EF
:1020000001E000BF00E000BF4FF40061614802F052
:102010005DFE0346002B16D0012B24D15C4B9B792F
:10202000002B04D10121072000F0C2F807E0584B33
:102030009B79022B03D10021072000F0B9F80A2078
:1020400001F086FE12E0524B9B79012B03D1504BDD
:1020500002229A7109E04E4B9B79032B05D14C4B20
:1020600000229A7101E000BF00E000BF4A4B1B78DC
:10207000012B40F081804FF48061464802F026FE3B
:102080000346002B28D0012B33D1414BDB79002BA9
:1020900031D13F4B0122DA71404B1A78404B1B681B
:1020A0005A63404B1B78632B25D83E4B1B78053376
:1020B000DAB23C4B1A703B4B1B78642B02D9394B7C
:1020C00064221A70374B1B781946012000F028FA59
:1020D0000A2001F03DFE0EE02D4BDB79012B0CD1E7
:1020E0002B4B0022DA71304B1A782D4B1B685A6348
:1020F00003E000BF02E000BF00E000BF4FF400714A
:10210000244802F0E3FD0346002B28D0012B35D1F3
:102110001F4B1B7A002B33D11D4B01221A721F4B10
:102120001A78224B1B685A631E4B1B78012B27D948
:102130001C4B1B78053BDAB21A4B1A70194B1B78F3
:10214000002B02D1174B01221A70164B1B7819462F
:10215000012000F0E5F90A2001F0FAFD10E00C4B37
:102160001B7A012B0ED10A4B00221A720E4B1A78E1
:102170000E4B1B685A6305E000BF04E000BF02E09D
:1021800000BF00E000BF00BF0837BD4680BD00BFF4
:102190001401002000140140110100200200002061
:1021A000240300201001002001000020FC03002077
:1021B00080B586B004AF03460A46FB711346BB7177
:1021C000FB799AB26423029301230193BB1D009310
:1021D0001023A021B14802F005FF0346002B02D1D5
:1021E000142001F0B5FDFB79013B062B00F27E8146
:1021F00001A252F823F000BF152200087722000840
:10220000D92200083B230008B1230008132400084A
:1022100073240008BB79012B14D1A14B01221A7041
:10222000A04B1A78A04B1B681A64012202219F4818
:1022300002F063FD0121012000F0AAFA322001F032
:1022400087FD55E1BB79002B40F05281944B03226E
:102250001A70974B1A78944B1B681A64002202215B
:10226000924802F04AFD0021012000F091FA32204C
:1022700001F06EFD3CE1BB79012B14D1884B0122AA
:102280005A70884B1A78884B1B685A6301220121C7
:10229000864802F032FD0121022000F079FA322056
:1022A00001F056FD26E1BB79002B40F023817C4BE9
:1022B00003225A707E4B1A787B4B1B685A630022AC
:1022C00001217A4802F019FD0021022000F060FA95
:1022D000322001F03DFD0DE1BB79012B14D1704B93
:1022E00001229A706F4B1A786F4B1B68DA630122D8
:1022F0001021704802F001FD0121032000F048FA8E
:10230000322001F025FDF7E0BB79002B40F0F4808E
:10231000634B03229A70664B1A78634B1B68DA632F
:1023200000221021634802F0E8FC0021032000F0A5
:102330002FFA322001F00CFDDEE0BB79012B19D120
:10234000574B0122DA70574B1A785B4B1B681A64A3
:1023500001222021574802F0D0FC0122402155489B
:1023600002F0CBFC0121042000F012FA322001F02F
:10237000EFFCC3E0BB79002B40F0C080484B032248
:10238000DA704B4B1A784C4B1B681A6400224021C0
:10239000484802F0B2FC00222021464802F0ADFC81
:1023A0000021042000F0F4F9322001F0D1FCA5E076
:1023B000BB79012B14D13A4B01221A71394B1A788F
:1023C000394B1B689A63012220213C4802F095FC9E
:1023D0000121052000F0DCF9322001F0B9FC8FE08A
:1023E000BB79002B40F08C802D4B03221A71304BAF
:1023F0001A782D4B1B689A63002220212F4802F087
:102400007CFC0021052000F0C3F9322001F0A0FC83
:1024100076E0BB79012B14D1214B01225A71214B5B
:102420001A78254B1B68DA6301221021234802F039
:1024300064FC0121062000F0ABF9322001F088FC99
:1024400060E0BB79002B5DD1154B03225A71184B0C
:102450001A78194B1B68DA6300221021174802F022
:102460004CFC0021062000F093F9322001F070FCB2
:1024700048E0BB79012B25D1094B01229A7101213A
:10248000072000F085F90E4B1B781946012000F05B
:1024900047F8322001F05CFC36E000BFBC000020B1
:1024A0001401002002000020B4030020000C0140B1
:1024B0000100002000180140FC0300200010014032
:1024C00010010020BB79002B1ED1124B03229A7100
:1024D0000021072000F05CF90F4B1B781946002003
:1024E00000F01EF8322001F033FC0DE000BF0CE0DC
:1024F00000BF0AE000BF08E000BF06E000BF04E044
:1025000000BF02E000BF00E000BF00BF0837BD46CB
:1025100080BD00BF14010020100100200000000059
:1025200080B588B004AF03460A46FB711346BB7101
:10253000574ABB791370BB79013B1846FEF784F804
:102540004FA3D3E90023FDF703FE02460B464EA13D
:10255000D1E90001FDF72AFF02460B461046194655
:10256000FEF7DCF80346DAB24A4B1A70FB793B738C
:10257000BB797B730A2302930223019307F10C03B7
:10258000009310231722A021434802F02BFD03469D
:10259000002B02D1142001F0DBFBFB79012B3ED193
:1025A0003E4B1B78002B11D13C4B01221A703C4B47
:1025B0001A783C4B1B685A63394B1A783A4B1B68A4
:1025C0005A633A4B1A78384B1B689A63BB79642B71
:1025D00012D1374B01221A70364B00221A70364B3B
:1025E00000221A70012001F0B3FB01224FF40041D8
:1025F000324802F082FB3AE0BB79632B37D80022E5
:102600004FF400412D4802F078FB294B01221A704B
:10261000284B01221A70284B01221A7027E0FB79FF
:10262000002B24D11D4B1B78012B11D11B4B0022F9
:102630001A701B4B1A781C4B1B689A63204B1A7834
:10264000184B1B685A631E4B1A78174B1B685A634A
:10265000184B00221A7000224FF40041174802F074
:102660004CFB134B00221A70134B00221A70BB79DB
:10267000184600F0CFF800BF1037BD4680BD00BF40
:10268000666666666666E63F0000000000C052406F
:102690001001002000000020BC00002018030020D2
:1026A0000100002024030020FC0300200200002081
:1026B0001101002013010020120100200008014038
:1026C0009F02002080B582B000AF0346FB80FB88EC
:1026D000012B1FD1114B1B78012B14D10F4B002262
:1026E0001A700F4B1B78042B0DD90D4B1B784B2BFD
:1026F00009D80B4B1A780B4B1B68DA62084B1B7816
:102700001A46084BDA60084B1B78012B02D10548AA
:1027100004F004F900BF0837BD4680BD1201002057
:10272000000000206C0300201301002080B582B05F
:1027300000AF78607B681B68B3F1804F11D10B4804
:1027400004F03EF901224FF40041094802F0D5FAA5
:10275000012001F0FDFA00224FF40041044802F08C
:10276000CCFA00BF0837BD4680BD00BF6C03002017
:102770000008014080B500AF64230A2202490348E3
:1027800005F0A6F800BF80BD4800002044040020EA
:1027900080B588B000AF03460A46FB711346BB7193
:1027A0001A4A07F10C0307CA83E807000023BB7627
:1027B000FB79072B02D16523BB7401E0FB79BB7465
:1027C000BB79BB750023FB610023FB760BE0FB7E2E
:1027D00020333B4413F8143C1A46FB691344FB6155
:1027E000FB7E0133FB76FB7E0B2BF0D9FB69BB76BE
:1027F000BB7EFB7507F10C0164230C22044805F035
:1028000067F800BF2037BD4680BD00BF14830008B5
:102810004404002090B58BB000AF0346FB71234BFE
:1028200007F10C040FCB07C4238002341B0C237068
:10283000002387F82230FB79FB61FB691B0EDBB2BA
:10284000BB75FB691B0CDBB2FB75FB691B0ADBB2BA
:102850003B76FB69DBB27B7600237B62002387F843
:1028600023300EE097F8233028333B4413F81C3C08
:102870001A467B6A13447B6297F82330013387F84A
:10288000233097F823300E2BECD97B6A87F822305F
:1028900097F82230BB7607F10C0164230F2204481D
:1028A00005F016F800BF2C37BD4690BD2083000808
:1028B0004404002080B582B000AF7860104B1B78D4
:1028C0001A46104B1978104B99540D4B1B78013355
:1028D0005A42DBB2D2B258BF5342DAB2084B1A7036
:1028E0000A4B1B780133DAB2084B1A7001220549F2
:1028F000074805F07FF800BF0837BD4680BD00BF20
:102900001D01002089020020200100201F0100205D
:102910004404002080B400AF3A4B1B78002B6CD0ED
:10292000394B1B781A46394B9A5C394B1A70364B27
:102930001B7801335A42DBB2D2B258BF5342DAB2EB
:10294000314B1A702F4B1B78013BDAB22D4B1A70AA
:102950002C4B1B78002B03D12E4B1A782A4B1A7064
:102960002B4B1A782C4B1A702B4B1B78AA2B16D199
:102970002A4B1B78552B12D1294B00221A70294B58
:1029800001221A70264B1B781A46244B1978264BC5
:102990009954234B1B780133DAB2214B1A70214B27
:1029A0001B78012B25D11E4B1B781A46184B197822
:1029B0001D4B99541A4B1B78052B06D1184B1B78CD
:1029C0001A46194B9A5C194B1A70154B1B781A460C
:1029D000164B1B7806339A4205D1124B00221A700F
:1029E000134B01221A700E4B1B780133DAB20C4BD9
:1029F0001A70094B1A78094B1A7000BFBD4680BC8B
:102A0000704700BF1F0100201E0100202001002090
:102A1000890200201D010020210200202002002048
:102A2000880200208B020020240200208A0200205D
:102A30008C02002080B584B000AF814B1B78012B45
:102A400040F0FA800023FB600023BB727C4B002225
:102A50001A700023FB7209E0FB7A7A4AD35C1A46AB
:102A6000FB681344FB60FB7A0133FB72FA7A764B06
:102A70001B78013B9A42EFDBFB68BB72724B1B7801
:102A8000013B704AD35CBA7A9A4240F0D2806E4BD6
:102A90001B78042B40F2CD806A4BDB78002B3FD1B2
:102AA0006A4B1B78002B0ED16423082268496948C1
:102AB00004F00EFF654B01221A7001F03FF9034646
:102AC000654A136023E001F039F97860624B1B68B6
:102AD0007A68D31AB3F5FA6F0CD25C4B00221A70E5
:102AE000642308225A495B4804F0F2FE5A4B1B68E3
:102AF0007B600CE0554B1B78012B08D16423082226
:102B00005649544804F0E4FE534B1B687B60544B19
:102B100001221A7001F012F90346524A136088E04C
:102B2000484BDB78012B09D1642332224E494948B6
:102B300004F0CEFE4D4B01221A707AE0414BDB7857
:102B4000022B06D1642307224949424804F0C0FE03
:102B50006FE03C4BDB78032B26D13A4B9B79002B63
:102B600002D1444B02221A70364B9B79012B03D1C0
:102B7000404B03221A7010E0324B9B79022B03D199
:102B80003C4B01221A7008E02E4B9B79042B04D198
:102B900000F018F9374B00221A70642307223649D7
:102BA0002C4804F095FE44E0264BDB78062B3AD106
:102BB000244B9B790D2B05D1224B9B7A184600F0B4
:102BC0000DF936E01F4B9B796F2B05D11D4B5B7BBD
:102BD000184600F075F92CE01A4B9B79702B05D143
:102BE000184B5B7B184600F0E7F922E0154B9B7908
:102BF0006A2B08D1214B1B78124A527B114618468A
:102C0000FFF78EFC15E00F4B9B79652B02D10D4B26
:102C100007229A710B4B9B790A4A927A1146184601
:102C2000FFF7C6FA05E0074BDB78082B01D100F06F
:102C30003FFA054B00221A7000BF1037BD4680BD19
:102C40008C02002024020020880200208D02002037
:102C50005400002044040020900200205C0000206A
:102C60009402002098020020040000209C02002012
:102C7000380000209D0200204000002011010020AB
:102C800080B582B000AF00237B60484B1B78012BDE
:102C900036D101F053F87860454B1B687A68D31A37
:102CA000322B7ED9424A7B681360424B1B785A0014
:102CB000414B1B689A633F4B1B78322B03D13F4B30
:102CC00001221A7006E03B4B1B78012B02D13B4BD3
:102CD00000221A70394B1B78002B06D1354B1B781C
:102CE0000133DAB2334B1A705BE0344B1B78012BA3
:102CF00057D1304B1B78013BDAB22E4B1A7050E0A3
:102D00002A4B1B78022B23D101F018F87860284B4E
:102D10001B687A68D31AFA2B43D9254A7B6813605B
:102D2000274B1B78002B07D1254B01221A70224B11
:102D30001B6864229A6334E0214B1B78012B30D14D
:102D40001F4B00221A701C4B1B6814229A6328E048
:102D5000164B1B78032B24D100F0F0FF7860144B46
:102D60001B687A68D31A40F2DC52934219D9104A90
:102D70007B681360124B1B78002B07D1104B01228C
:102D80001A700D4B1B6864229A630AE00C4B1B7887
:102D9000012B06D10A4B00221A70074B1B68142224
:102DA0009A6300BF0837BD4680BD00BF9D0200206A
:102DB0001C03002020030020240300202103002006
:102DC0009E02002080B500AF034B1B6800229A636F
:102DD00000F06EF900BF80BD2403002080B588B0EC
:102DE00000AF0346FB71344A07F1080307CA83E8C2
:102DF00007000023FB75FB79BB74BB7C012B1CD146
:102E000001210120FFF7D4F901210220FFF7D0F9B9
:102E100001210320FFF7CCF901210420FFF7C8F9B5
:102E200001210520FFF7C4F901210620FFF7C0F9B1
:102E300001210720FFF7BCF91BE000210120FFF76B
:102E4000B7F900210220FFF7B3F900210320FFF7B3
:102E5000AFF900210420FFF7ABF900210520FFF7AF
:102E6000A7F900210620FFF7A3F900210720FFF7AB
:102E70009FF90023FB610023BB610BE007F108020F
:102E8000BB6913441B781A46FB691344FB61BB6999
:102E90000133BB61BB690C2BF0D9FB69FB75FB7D72
:102EA000FB7407F1080164230C22044804F010FDB0
:102EB00000BF2037BD4680BD308300084404002099
:102EC00080B586B004AF0346FB71354AFB791370B9
:102ED0006423029301230193314B009310231522A5
:102EE000A021304802F07EF80346002B02D11420C6
:102EF00000F02EFF2C4B1B78022B04D1284B1A78A4
:102F00002A4B1B685A63284B5B78022B04D1244B55
:102F10001A78264B1B681A64234B9B78022B04D12A
:102F20001F4B1A78224B1B681A641F4BDB78022B4D
:102F300004D11B4B1A781D4B1B68DA631A4B1B79A3
:102F4000022B04D1164B1A78194B1B68DA63164B07
:102F50005B79022B04D1124B1A78144B1B689A63CD
:102F6000114B9B79022B04D10D4B1A78104B1B6827
:102F70009A630D4BDB79022B04D1094B1A780C4B69
:102F80001B685A63084B1B7A022B04D1044B1A7836
:102F9000084B1B685A6300BF0837BD4680BD00BFA1
:102FA00002000020BC00002014010020B403002017
:102FB000FC0300202403002080B586B004AF034644
:102FC000FB71354AFB79137064230293012301934B
:102FD000314B009310231422A021304802F002F854
:102FE0000346002B02D1142000F0B2FE2C4B1B78BC
:102FF000002B04D1284B1A782A4B1B685A63284BA4
:103000005B78002B04D1244B1A78264B1B681A647A
:10301000234B9B78002B04D11F4B1A78224B1B6843
:103020001A641F4BDB78002B04D11B4B1A781D4B05
:103030001B68DA631A4B1B79002B04D1164B1A78E4
:10304000194B1B68DA63164B5B79002B04D1124BCA
:103050001A78144B1B689A63114B9B79002B04D18F
:103060000D4B1A78104B1B689A630D4BDB79002BC4
:1030700004D1094B1A780C4B1B685A63084B1B7A16
:10308000002B04D1044B1A78084B1B685A6300BF0D
:103090000837BD4680BD00BF01000020BC000020F5
:1030A00014010020B4030020FC03002024030020AE
:1030B000B0B596B004AF504B07F10C041D460FCDD0
:1030C0000FC40FCD0FC495E8070003C4228007F199
:1030D000360300221A605A60002387F8403000232C
:1030E0007B640023FB70002387F84330012387F8BB
:1030F000423024E097F842309AB20A230293012327
:103100000193FB1C00931023A0213C4802F064F8BB
:103110000346002B0ED1142000F01AFE97F843301E
:10312000FA7848333B4403F8442C97F84330013392
:1031300087F8433097F84230013387F8423097F8E8
:103140004230072BD6D900233B800A230293022367
:1031500001933B46009310231722A021274802F039
:103160003BF80346002B02D1142000F0F1FD3B791F
:10317000BB757B79FB76BB7987F82030FB7987F8C4
:1031800025303B7A87F82A307B7A87F82F30BB7A54
:1031900087F83430BB7887F83D30002387F841301A
:1031A0000EE097F8413048333B4413F83C3C1A4654
:1031B0007B6C13447B6497F84130013387F84130CE
:1031C00097F84130322BECD97B6C87F8403097F878
:1031D000403087F83E3007F10C0164233222084862
:1031E00004F076FB002387F8403000237B6400BFA7
:1031F0004837BD46B0BD00BF3C830008BC0000207E
:103200004404002080B586B004AF642302930123F8
:1032100001935C4B009310231622A0215A4801F021
:10322000DBFF0346002B02D1322000F091FD554B0D
:103230001B78012B38D0534B01221A700A230293BA
:1032400001230193514B009310231422A0214E48D7
:1032500001F0C8FE0346002B02D1142000F078FDD7
:103260000A23029301230193494B00931023152253
:10327000A021454801F0B6FE0346002B02D11420E0
:1032800000F066FD64230293012301933D4B0093FC
:1032900010231622A0213C4801F0A4FE0346002B77
:1032A00002D1142000F054FD0A230293012301935C
:1032B000364B009310231422A021334801F08CFFD9
:1032C0000346002B02D1142000F042FD0A23029392
:1032D000012301932E4B009310231522A0212A488D
:1032E00001F07AFF0346002B02D1142000F030FDDC
:1032F0000123FB713DE00A2000F02AFD0023BB7191
:10330000FB799AB20A23029301230193BB1D009318
:103310001023A0211C4801F05FFF0346002B1FD1A2
:10332000142000F015FDFB79072B19D10023BB8079
:103330000A230293022301933B1D009310231722BB
:10334000A021114801F048FF0346002B08D11420AA
:1033500000F0FEFCBB797A7911461846FFF7E0F8D9
:10336000BA79FB7911461846FEF722FFFB79013343
:10337000FB71FB79072BBED900BF00BF0837BD46E4
:1033800080BD00BFA0020020BC0000200100002082
:103390000200002080B400AF72B600BFFEE700005C
:1033A00080B485B000AF154B9B69144A43F001030C
:1033B0009361124B9B6903F00103BB60BB680F4B29
:1033C000DB690E4A43F08053D3610C4BDB6903F099
:1033D00080537B607B680A4B5B68FB60FB6823F073
:1033E000E063FB60FB6843F00073FB60044AFB682A
:1033F000536000BF1437BD4680BC704700100240C8
:103400000000014080B400AFFEE780B400AFFEE7EB
:1034100080B400AFFEE780B400AFFEE780B400AF39
:10342000FEE780B400AF00BFBD4680BC704780B4EB
:1034300000AF00BFBD4680BC704780B400AF00BF86
:10344000BD4680BC704780B500AF00F065FC00BF92
:1034500080BD80B500AF012001F068FC00BF80BDD9
:1034600080B500AF024803F0D3FB00BF80BD00BFB2
:103470006C03002080B500AF024804F0EBFA00BFF7
:1034800080BD00BF4404002080B400AF00BFBD4633
:1034900080BC704780B596B000AF07F148030022AA
:1034A0001A605A609A60DA6007F1400300221A60DD
:1034B0005A6007F1240300221A605A609A60DA60A9
:1034C0001A615A619A613B1D20220021184604F0BE
:1034D0000DFF504B504A1A604E4B14225A604D4B10
:1034E00000229A604B4B6422DA604A4B00221A6138
:1034F000484B00225A61474B00229A61454803F02D
:10350000BDF90346002B01D0FFF744FF4FF4805371
:10351000BB6407F1480319463E4803F03FFD0346EC
:10352000002B01D0FFF736FF3A4803F077FA034645
:10353000002B01D0FFF72EFF00233B6400237B64A8
:1035400007F140031946334804F0B4F80346002B52
:1035500001D0FFF71FFF60237B620023BB620023C3
:10356000FB6200233B6300237B630023BB630023D8
:10357000FB6307F1240300221946264803F050FCA0
:103580000346002B01D0FFF705FF07F124030422B7
:103590001946204803F044FC0346002B01D0FFF7F6
:1035A000F9FE07F12403082219461A4803F038FCF3
:1035B0000346002B01D0FFF7EDFE07F124030C2298
:1035C0001946144803F02CFC0346002B01D0FFF7EA
:1035D000E1FE00237B600023BB600023FB6000232F
:1035E0003B6100237B614FF40053BB6100233B62CE
:1035F0003B1D1946074804F0BBF80346002B01D0D9
:10360000FFF7C8FE034800F0E1F900BF5837BD4698
:1036100080BD00BF24030020002C014080B586B08F
:1036200000AF07F1080300221A605A609A60DA605E
:103630003B4600221A605A601D4B4FF080421A60D0
:103640001B4B40F21F325A60194B00229A60184BF4
:103650006322DA60164B00221A61154B80229A61B0
:10366000134803F00BF90346002B01D0FFF792FE3D
:103670004FF48053BB6007F1080319460C4803F070
:103680008DFC0346002B01D0FFF784FE00233B6036
:1036900000237B603B461946054804F00BF80346BF
:1036A000002B01D0FFF776FE00BF1837BD4680BD66
:1036B0006C03002080B58EB000AF07F12803002214
:1036C0001A605A609A60DA6007F1200300221A60DB
:1036D0005A603B1D00221A605A609A60DA601A61D3
:1036E0005A619A613C4B3D4A1A603B4B14225A6026
:1036F000394B00229A60384B6422DA60364B002244
:103700001A61354B00229A61334803F0B7F803463B
:10371000002B01D0FFF73EFE4FF48053BB6207F150
:10372000280319462C4803F039FC0346002B01D02E
:10373000FFF730FE284803F071F90346002B01D053
:10374000FFF728FE00233B6200237B6207F1200382
:103750001946214803F0AEFF0346002B01D0FFF7C6
:1037600019FE60237B600023BB600023FB60002305
:103770007B613B1D00221946174803F051FB0346AD
:10378000002B01D0FFF706FE3B1D0422194612480C
:1037900003F046FB0346002B01D0FFF7FBFD3B1D6A
:1037A000082219460C4803F03BFB0346002B01D0CE
:1037B000FFF7F0FD3B1D0C221946074803F030FBD4
:1037C0000346002B01D0FFF7E5FD034800F0FEF8AB
:1037D00000BF3837BD4680BDB40300200004004060
:1037E00080B58EB000AF07F1280300221A605A603E
:1037F0009A60DA6007F1200300221A605A603B1DCC
:1038000000221A605A609A60DA601A615A619A61FD
:103810003C4B3D4A1A603B4B14225A60394B002204
:103820009A60384B6422DA60364B00221A61354BBD
:1038300000229A61334803F021F80346002B01D09F
:10384000FFF7A8FD4FF48053BB6207F12803194628
:103850002C4803F0A3FB0346002B01D0FFF79AFD91
:10386000284803F0DBF80346002B01D0FFF792FD58
:1038700000233B6200237B6207F1200319462148A5
:1038800003F018FF0346002B01D0FFF783FD6023F0
:103890007B600023BB600023FB6000237B613B1D3A
:1038A00000221946174803F0BBFA0346002B01D04B
:1038B000FFF770FD3B1D04221946124803F0B0FAD1
:1038C0000346002B01D0FFF765FD3B1D082219467A
:1038D0000C4803F0A5FA0346002B01D0FFF75AFD70
:1038E0003B1D0C221946074803F09AFA0346002BA9
:1038F00001D0FFF74FFD034800F068F800BF3837EC
:10390000BD4680BDFC0300200008004080B586B0A5
:1039100000AF78607B681B68284A93420CD1284B23
:103920009B69274A43F400639361254B9B6903F429
:1039300000637B617B693CE07B681B68B3F1804F6F
:1039400014D11F4BDB691E4A43F00103D3611C4BAA
:10395000DB6903F001033B613B6900220F211C205E
:1039600000F049FF1C2000F062FF22E07B681B682A
:10397000144A93420CD1124BDB69114A43F0020303
:10398000D3610F4BDB6903F00203FB60FB6810E0BF
:103990007B681B680C4A93420BD1094BDB69084AD0
:1039A00043F00403D361064BDB6903F00403BB60FF
:1039B000BB6800BF1837BD4680BD00BF002C01406A
:1039C00000100240000400400008004080B58CB0A8
:1039D00000AF786007F1140300221A605A609A6001
:1039E000DA607B681B68484A93422BD1474B9B693E
:1039F000464A43F040039361444B9B6903F0400304
:103A00003B613B694FF4D4437B610223BB610223DA
:103A10003B6207F1140319463D4800F0D3FF3D4BCC
:103A20005B687B627B6A23F0C0037B627B6A43F046
:103A3000E0637B627B6A43F0C0037B62354A7B6A4A
:103A400053605CE07B681B68334A93422BD12F4B59
:103A50009B692E4A43F0100393612C4B9B6903F042
:103A60001003FB60FB684FF470737B610223BB6142
:103A700002233B6207F114031946284800F0A2FF15
:103A8000244B5B68BB62BB6A23F44063BB62BB6AC6
:103A900043F0E063BB62BB6A43F44063BB621D4A10
:103AA000BB6A53602BE07B681B681D4A934226D19A
:103AB000164B9B69154A43F020039361134B9B6996
:103AC00003F02003BB60BB684FF470437B610223AB
:103AD000BB6102233B6207F114031946114800F051
:103AE00071FF0C4B5B68FB62FB6A43F0E063FB62B7
:103AF000FB6A43F48053FB62064AFB6A536000BFD3
:103B00003037BD4680BD00BF002C01400010024090
:103B10000018014000000140000400400010014076
:103B2000000800400014014080B500AF114B124A5C
:103B30001A60104B4FF416525A600E4B00229A60D6
:103B40000C4B0022DA600B4B00221A61094B0C224D
:103B50005A61084B00229A61064B0022DA6105483F
:103B600003F069FE0346002B01D0FFF713FC00BFF2
:103B700080BD00BF440400200044004080B58AB0EE
:103B800000AF786007F1140300221A605A609A604F
:103B9000DA607B681B68264A934245D1254BDB6976
:103BA000244A43F40033D361224BDB6903F400332E
:103BB0003B613B691F4B9B691E4A43F020039361A5
:103BC0001C4B9B6903F02003FB60FB6820237B6197
:103BD0000223BB6103233B6207F114031946164815
:103BE00000F0F0FE40237B610023BB610023FB61FA
:103BF00007F114031946104800F0E4FE0F4B5B6810
:103C00007B627B6A43F0E0637B627B6A43F008037C
:103C10007B620A4A7B6A536000220021262000F062
:103C2000EAFD262000F003FE00BF2837BD4680BD18
:103C30000044004000100240001401400000014018
:103C40000C480D490D4A002302E0D458C4500433F7
:103C5000C4188C42F9D30A4A0A4C002301E01360CD
:103C60000432A242FBD3FFF70FFC04F01BFBFDF76D
:103C700083F870470000002070000020B083000827
:103C8000700000208C040020FEE7000080B500AF2B
:103C9000084B1B68074A43F010031360032000F031
:103CA0009FFD0D2000F008F8FFF77AFB002318466F
:103CB00080BD00BF0020024080B582B000AF7860B8
:103CC000124B1A68124B1B7819464FF47A73B3FBE8
:103CD000F1F3B2FBF3F3184600F0B7FD0346002BF7
:103CE00001D001230EE07B680F2B0AD800227968EF
:103CF0004FF0FF3000F07FFD064A7B681360002321
:103D000000E0012318460837BD4680BD640000204E
:103D10006C0000206800002080B400AF054B1B78C9
:103D20001A46054B1B681344034A136000BFBD4687
:103D300080BC70476C0000208804002080B400AF75
:103D4000024B1B681846BD4680BC704788040020A3
:103D500080B584B000AF7860FFF7F0FFB8607B6893
:103D6000FB60FB68B3F1FF3F05D00A4B1B781A4696
:103D7000FB681344FB6000BFFFF7E0FF0246BB682F
:103D8000D31AFA689A42F7D800BF00BF1037BD4671
:103D900080BD00BF6C00002080B586B000AF7860A9
:103DA0000023FB7500233B610023BB600023FB6005
:103DB0007B68002B01D10123BEE07B689B68002B50
:103DC0007B689B6A002B09D17B680022DA627B68E2
:103DD000002283F824207868FCF70CFE786800F055
:103DE000F1FB0346FB757B689B6A03F01003002B15
:103DF00040F09980FB7D002B40F095807B689B6AAA
:103E000023F4885323F0020343F002027B689A6292
:103E10007B685A687B68DB691A437B681B7B5B00A5
:103E20001343BA681343BB607B689B68B3F5807F1C
:103E300003D07B689B68012B02D14FF4807300E0B4
:103E400000233A6913433B617B681B7D012B19D129
:103E50007B681B7B002B09D17B689B69013B5A0364
:103E60003B69134343F400633B610BE07B689B6A4F
:103E700043F020027B689A627B68DB6A43F00102B0
:103E80007B68DA627B681B685B6823F469417B6846
:103E90001B683A690A435A607B681B689A68284B1A
:103EA00013407A681268B9680B4393607B689B681B
:103EB000B3F5807F03D07B689B68012B04D17B68BE
:103EC0001B69013B1B05FB607B681B68DB6A23F4F5
:103ED00070017B681B68FA680A43DA627B681B68BA
:103EE0009A68184B1340BA689A420BD17B6800223B
:103EF000DA627B689B6A23F0030343F001027B686C
:103F00009A6218E07B689B6A23F0120343F0100268
:103F10007B689A627B68DB6A43F001027B68DA6245
:103F20000123FB7507E07B689B6A43F010027B6806
:103F30009A620123FB75FB7D18461837BD4680BD8C
:103F4000FDF7E1FFFE0E1FFF80B584B000AF786083
:103F50000023FB737B6893F82430012B01D10223EB
:103F600098E07B68012283F82420786800F0D0FA7A
:103F70000346FB73FB7B002B40F087807B689B6ACA
:103F800023F4407323F0010343F480727B689A6248
:103F90007B681B68414A934205D1414B5B6803F43F
:103FA0007023002B15D17B689B6A23F480127B68F9
:103FB0009A627B681B685B6803F48063002B26D0E1
:103FC0007B689B6A23F4405343F480527B689A6277
:103FD0001DE07B689B6A43F480127B689A627B6871
:103FE0001B682F4A934204D07B681B682B4A93427C
:103FF0000DD12B4B5B6803F48063002B07D07B68EB
:104000009B6A23F4405343F480527B689A627B6836
:104010009B6A03F48053002B06D07B68DB6A23F095
:1040200006027B68DA6202E07B680022DA627B6863
:10403000002283F824207B681B686FF002021A605C
:104040007B681B689B6803F46023B3F5602F13D172
:104050007B681B68114A934205D1114B5B6803F4DE
:104060007023002B08D17B681B689A687B681B68EB
:1040700042F4A0029A600CE07B681B689A687B6837
:104080001B6842F480129A6003E07B68002283F888
:104090002420FB7B18461037BD4680BD0028014018
:1040A0000024014080B584B000AF78600023FB732A
:1040B0007B6893F82430012B01D102231AE07B683E
:1040C000012283F82420786800F07CFA0346FB7311
:1040D000FB7B002B09D17B689B6A23F4885323F078
:1040E000010343F001027B689A627B68002283F837
:1040F0002420FB7B18461037BD4680BD90B587B0A5
:1041000000AF7860396000237B610023FB600023EF
:104110003B61FFF713FE78617B681B689B6803F4C3
:104120008073002B0BD07B689B6A43F020027B6876
:104130009A627B68002283F824200123D3E07B6805
:104140001B685B6803F48073002B31D17B681B68AC
:10415000DB6A03F47003002B2AD121E03B68B3F142
:10416000FF3F1DD03B68002B07D0FFF7E7FD02465D
:104170007B69D31A3A689A4212D27B681B681B6823
:1041800003F00203002B0BD17B689B6A43F004020F
:104190007B689A627B68002283F824200323A2E0D4
:1041A0007B681B681B6803F00203002BD6D070E00D
:1041B0004F4B1C68022002F0A1FA0346B4FBF3F255
:1041C0007B681B6819694B4B0B40002B18D17B682F
:1041D0001B68D968484B0B40002B11D17B681B68CA
:1041E0001969464B0B40002B08D17B681B68D968C6
:1041F000434B0B40002B01D1142320E029231EE068
:104200007B681B6819693D4B0B40002B06D17B680E
:104210001B68D9683A4B0B40002B0DD07B681B689C
:104220001969384B0B40002B08D17B681B68D96893
:10423000344B0B40002B01D1542300E0FC2302FB44
:1042400003F33B6121E03B68B3F1FF3F1AD03B68C9
:10425000002B07D0FFF772FD02467B69D31A3A683C
:104260009A420FD2FB683A699A420BD97B689B6AE3
:1042700043F004027B689A627B68002283F8242062
:10428000032330E0FB680133FB60FB683A699A4224
:10429000D9D87B681B686FF012021A607B689B6A32
:1042A00043F400727B689A627B681B689B6803F426
:1042B0006023B3F5602F15D17B681B7B002B11D1D8
:1042C0007B689B6A23F480727B689A627B689B6A36
:1042D00003F48053002B05D17B689B6A43F00102F5
:1042E0007B689A62002318461C37BD4690BD00BF0C
:1042F0006400002024499224244992009224491207
:10430000922449004992240080B483B000AF7860C1
:104310007B681B68DB6C18460C37BD4680BC704759
:1043200080B485B000AF786039600023FB73002350
:10433000BB607B6893F82430012B01D10223DCE0C1
:104340007B68012283F824203B685B68062B1CD81D
:104350007B681B68596B3B685A6813469B00134483
:10436000053B1F2202FA03F3DB4319403B68186840
:104370003B685A6813469B001344053B00FA03F25E
:104380007B681B680A435A633CE03B685B680C2B04
:104390001CD87B681B68196B3B685A6813469B00E6
:1043A0001344233B1F2202FA03F3DB4319403B680B
:1043B00018683B685A6813469B001344233B00FA75
:1043C00003F27B681B680A431A631BE07B681B6867
:1043D000D96A3B685A6813469B001344413B1F222D
:1043E00002FA03F3DB4319403B6818683B685A68DC
:1043F00013469B001344413B00FA03F27B681B68A1
:104400000A43DA623B681B68092B1CD97B681B686E
:10441000D9683B681A6813465B0013441E3B0722A9
:1044200002FA03F3DB4319403B6898683B681A685B
:1044300013465B0013441E3B00FA03F27B681B68C3
:104440000A43DA6019E07B681B6819693B681A68DF
:1044500013465B001344072202FA03F3DB431940BF
:104460003B6898683B681A6813465B00134400FA7F
:1044700003F27B681B680A431A613B681B68102BB8
:1044800003D03B681B68112B32D17B681B681D4A27
:10449000934225D17B681B689B6803F40003002BC3
:1044A00026D17B681B689A687B681B6842F400020F
:1044B0009A603B681B68102B1AD1134B1B68134A78
:1044C000A2FB03239A0C13469B0013445B00BB60C2
:1044D00002E0BB68013BBB60BB68002BF9D107E081
:1044E0007B689B6A43F020027B689A620123FB731E
:1044F0007B68002283F82420FB7B18461437BD46D6
:1045000080BC7047002401406400002083DE1B4310
:1045100080B584B000AF78600023FB600023BB60EF
:104520007B681B689B6803F00103012B40D07B680C
:104530001B689A687B681B6842F001029A601F4BF7
:104540001B681F4AA2FB03239B0CBB6002E0BB68F5
:10455000013BBB60BB68002BF9D1FFF7EFFBF860B4
:104560001FE0FFF7EBFB0246FB68D31A022B18D9BA
:104570007B681B689B6803F00103012B11D07B68EB
:104580009B6A43F010027B689A627B68DB6A43F0A7
:1045900001027B68DA627B68002283F82420012311
:1045A00007E07B681B689B6803F00103012BD8D1EF
:1045B000002318461037BD4680BD00BF64000020B0
:1045C00083DE1B4380B584B000AF78600023FB60BE
:1045D0007B681B689B6803F00103012B2ED17B686D
:1045E0001B689A687B681B6822F001029A60FFF7DB
:1045F000A5FBF8601BE0FFF7A1FB0246FB68D31A9E
:10460000022B14D97B681B689B6803F00103012B04
:104610000DD17B689B6A43F010027B689A627B68CD
:10462000DB6A43F001027B68DA62012307E07B6802
:104630001B689B6803F00103012BDCD000231846A4
:104640001037BD4680BD000080B485B000AF7860F3
:104650007B6803F00703FB600C4BDB68BB60BA6848
:104660004FF6FF031340BB60FB681A02BB6813439D
:1046700043F0BF6343F40033BB60044ABB68D360BC
:1046800000BF1437BD4680BC704700BF00ED00E09E
:1046900080B400AF044BDB681B0A03F00703184625
:1046A000BD4680BC704700BF00ED00E080B483B021
:1046B00000AF0346FB7197F90730002B0BDBFB794A
:1046C00003F01F02064997F907305B09012000FA41
:1046D00002F241F8232000BF0C37BD4680BC704772
:1046E00000E100E080B483B000AF03463960FB71A5
:1046F00097F90730002B0ADB3B68DAB20C4997F9CF
:1047000007301201D2B20B4483F800230AE03B6861
:10471000DAB20849FB7903F00F03043B1201D2B26D
:104720000B441A7600BF0C37BD4680BC704700BFF3
:1047300000E100E000ED00E080B489B000AFF86077
:10474000B9607A60FB6803F00703FB61FB69C3F1A2
:104750000703042B28BF0423BB61FB690433062B2A
:1047600002D9FB69033B00E000237B614FF0FF327D
:10477000BB6902FA03F3DA43BB681A407B699A40CB
:104780004FF0FF317B6901FA03F3D9437B680B409B
:10479000134318462437BD4680BC704780B582B0AD
:1047A00000AF78607B68013BB3F1807F01D30123C8
:1047B0000FE00A4A7B68013B53600F214FF0FF3046
:1047C000FFF790FF054B00229A60044B07221A6006
:1047D000002318460837BD4680BD00BF10E000E04A
:1047E00080B582B000AF78607868FFF72DFF00BF1A
:1047F0000837BD4680BD80B586B000AF0346B960BE
:104800007A60FB7300237B61FFF742FF78617A686F
:10481000B9687869FFF790FF024697F90F301146A3
:104820001846FFF75FFF00BF1837BD4680BD80B553
:1048300082B000AF0346FB7197F907301846FFF7C7
:1048400035FF00BF0837BD4680BD80B582B000AFE0
:1048500078607868FFF7A2FF034618460837BD4620
:1048600080BD80B485B000AF78600023FB737B68A7
:1048700093F82130022B08D07B6804229A637B686E
:10488000002283F82020012320E07B681B681A683F
:104890007B681B6822F00E021A607B681B681A682E
:1048A0007B681B6822F001021A607B681A6C7B68C7
:1048B000DB6B012101FA02F25A607B68012283F866
:1048C00021207B68002283F82020FB7B18461437C8
:1048D000BD4680BC7047000080B584B000AF7860F2
:1048E0000023FB737B6893F82130022B05D07B6893
:1048F00004229A630123FB7351E07B681B681A68EA
:104900007B681B6822F00E021A607B681B681A68BD
:104910007B681B6822F001021A607B681B68224AD0
:10492000934229D07B681B68204A934222D07B683F
:104930001B681F4A93421AD07B681B681D4A93422A
:1049400012D07B681B681C4A93420AD07B681B68A4
:104950001A4A934202D14FF480130EE04FF0807355
:104960000BE04FF4803308E04FF4805305E04FF440
:10497000807302E0102300E00123114A53607B683A
:10498000012283F821207B68002283F820207B68A5
:104990005B6B002B03D07B685B6B78689847FB7B75
:1049A00018461037BD4680BD080002401C0002407A
:1049B0003000024044000240580002406C000240B7
:1049C0000000024080B48BB000AF786039600023F3
:1049D0007B6200233B6269E101227B6A02FA03F3F6
:1049E000FB613B681B68FA691340BB61BA69FB69EC
:1049F0009A4240F058813B685B689A4A93425ED085
:104A0000984A934275D8984A934258D0964A93420E
:104A10006FD8964A934252D0944A934269D8944AA6
:104A200093424CD0924A934263D8924A934246D0E2
:104A3000904A93425DD8122B2AD8122B59D801A242
:104A400052F823F0BF4A0008994A0008AB4A000810
:104A5000ED4A0008F34A0008F34A0008F34A000848
:104A6000F34A0008F34A0008F34A0008F34A000832
:104A7000F34A0008F34A0008F34A0008F34A000822
:104A8000F34A0008F34A0008A14A0008B54A0008A2
:104A9000794A934213D02CE03B68DB683B6229E003
:104AA0003B68DB6804333B6224E03B68DB68083327
:104AB0003B621FE03B68DB680C333B621AE03B68FB
:104AC0009B68002B02D104233B6213E03B689B6888
:104AD000012B05D108233B627B68FA691A6109E062
:104AE00008233B627B68FA695A6103E000233B625A
:104AF00000E000BFBB69FF2B01D87B6801E07B6849
:104B000004337B61BB69FF2B02D87B6A9B0002E008
:104B10007B6A083B9B003B617B691A680F213B69FC
:104B200001FA03F3DB431A40396A3B6901FA03F3E4
:104B30001A437B691A603B685B6803F08053002B63
:104B400000F0B1804D4B9B694C4A43F001039361E7
:104B50004A4B9B6903F00103BB60BB68484A7B6A10
:104B60009B08023352F82330FB607B6A03F0030397
:104B70009B000F2202FA03F3DB43FA681340FB6049
:104B80007B68404A934213D07B683F4A93420DD0E2
:104B90007B683E4A934207D07B683D4A934201D1ED
:104BA000032306E0042304E0022302E0012300E0E3
:104BB00000237A6A02F0030292009340FA681343DA
:104BC000FB602F497B6A9B080233FA6841F8232077
:104BD0003B685B6803F48033002B06D02D4B1A68CA
:104BE0002C49BB6913430B6006E02A4B1A68BB696A
:104BF000DB43284913400B603B685B6803F40033D8
:104C0000002B06D0234B5A682249BB6913434B60E3
:104C100006E0204B5A68BB69DB431E4913404B60DA
:104C20003B685B6803F48013002B06D0194B9A682D
:104C30001849BB6913438B6006E0164B9A68BB6941
:104C4000DB43144913408B603B685B6803F400133B
:104C5000002B21D00F4BDA680E49BB691343CB60A0
:104C600021E000BF000032100000311000002210CF
:104C7000000021100000121000001110001002406E
:104C80000000014000080140000C014000100140FC
:104C900000140140000401400B4BDA68BB69DB43A0
:104CA00009491340CB607B6A01337B623B681A6819
:104CB0007B6A22FA03F3002B7FF48EAE00BF00BFA5
:104CC0002C37BD4680BC70470004014080B485B0DD
:104CD00000AF78600B467B807B689A687B881340C6
:104CE000002B02D00123FB7301E00023FB73FB7B4D
:104CF00018461437BD4680BC704780B483B000AFFF
:104D000078600B467B8013467B707B78002B03D04A
:104D10007A887B681A6103E07B881A047B681A61D1
:104D200000BF0C37BD4680BC7047000080B582B024
:104D300000AF0346FB80084B5A69FB881340002BE9
:104D400006D0054AFB885361FB881846FDF7BAFC7C
:104D500000BF0837BD4680BD0004014080B584B067
:104D600000AF78607B68002B01D101232BE17B68C9
:104D700093F83D30DBB2002B06D17B68002283F82C
:104D80003C207868FBF7BAFF7B68242283F83D203B
:104D90007B681B681A687B681B6822F001021A6036
:104DA0007B681B681A687B681B6842F400421A60C3
:104DB0007B681B681A687B681B6822F400421A60D3
:104DC00001F0A0FBF8607B685B68814A934207D8DA
:104DD000FB68804A934294BF01230023DBB206E0C4
:104DE000FB687D4A934294BF01230023DBB2002B72
:104DF00001D00123E7E0FB68784AA2FB03239B0C68
:104E0000BB607B681B685B6823F03F017B681B68A5
:104E1000BA680A435A607B681B681B6A23F03F012B
:104E20007B685B686A4A934202D8BB68013309E039
:104E3000BB684FF4967202FB03F3694AA2FB03239B
:104E40009B0901337A6812680B4313627B681B6805
:104E5000DB6923F44F4222F0FF027B685B685C4908
:104E60008B4219D8FB68591E7B685B685B00B1FBFD
:104E7000F3F3591C40F6FC730B40002B0AD0FB687F
:104E8000591E7B685B685B00B1FBF3F30133C3F32E
:104E90000B0351E004234FE07B689B68002B11D18A
:104EA000FB68581E7B6859680B465B000B44B0FBDF
:104EB000F3F30133C3F30B03002B0CBF01230023D7
:104EC000DBB212E0FB68581E7B6859680B469B00FA
:104ED0000B4499000B44B0FBF3F30133C3F30B0312
:104EE000002B0CBF01230023DBB2002B01D00123D8
:104EF00022E07B689B68002B0ED1FB68581E7B6804
:104F000059680B465B000B44B0FBF3F30133C3F36A
:104F10000B0343F400430FE0FB68581E7B6859689D
:104F20000B469B000B4499000B44B0FBF3F3013399
:104F3000C3F30B0343F44043796809681343CB611F
:104F40007B681B681B6823F0C0017B68DA697B689B
:104F50001B6A1A437B681B680A431A607B681B68DC
:104F60009B6823F4034323F0FF037A6811697A688E
:104F7000D26811437A6812680B4393607B681B68A0
:104F8000DB6823F0FF017B685A697B689B691A43E1
:104F90007B681B680A43DA607B681B681A687B6859
:104FA0001B6842F001021A607B6800221A647B6869
:104FB000202283F83D207B6800221A637B68002250
:104FC00083F83E20002318461037BD4680BD00BF41
:104FD000A08601007F841E00FF083D0083DE1B4386
:104FE000D34D621080B588B002AFF8600846114614
:104FF0001A4603467B810B463B811346FB80FEF736
:105000009DFE7861FB6893F83D30DBB2202B40F0C9
:10501000D9807B690093192301226D49F86800F05B
:10502000C1FC0346002B01D00223CCE0FB6893F8BF
:105030003C30012B01D10223C5E0FB68012283F83B
:105040003C20FB681B681B6803F00103012B07D0A1
:10505000FB681B681A68FB681B6842F001021A6053
:10506000FB681B681A68FB681B6822F400621A6000
:10507000FB68212283F83D20FB68402283F83E2014
:10508000FB6800221A64FB683A6A5A62FB68BA8CB1
:105090005A85FB685B8D9AB2FB681A85FB684D4A9E
:1050A000DA62F8883A8979897B690193BB6A00934F
:1050B0000346F86800F0F8FA0346002B52D00123AB
:1050C00081E07A69B96AF86800F042FD0346002B76
:1050D0000DD0FB681B6C042B07D1FB681B681A689A
:1050E000FB681B6842F400721A6001236BE0FB68E6
:1050F0005B6A1A78FB681B681A61FB685B6A5A1C5A
:10510000FB685A62FB681B8D013B9AB2FB681A85EB
:10511000FB685B8D9BB2013B9AB2FB685A85FB68CA
:105120001B685B6903F00403042B1BD1FB681B8D18
:10513000002B17D0FB685B6A1A78FB681B681A6142
:10514000FB685B6A5A1CFB685A62FB681B8D013B5B
:105150009AB2FB681A85FB685B8D9BB2013B9AB2E1
:10516000FB685A85FB681B8D002BAAD17A69B96A46
:10517000F86800F02EFD0346002B0DD0FB681B6C79
:10518000042B07D1FB681B681A68FB681B6842F494
:1051900000721A60012316E0FB681B681A68FB683E
:1051A0001B6842F400721A60FB68202283F83D20DD
:1051B000FB68002283F83E20FB68002283F83C2035
:1051C000002300E0022318461837BD4680BD00BF0B
:1051D000020010000000FFFF80B58CB002AFF86045
:1051E000084611461A4603467B810B463B8113460F
:1051F000FB8000233B62FEF7A1FD7862FB6893F819
:105200003D30DBB2202B40F044827B6A00931923AF
:1052100001228249F86800F0C5FB0346002B01D04B
:10522000022337E2FB6893F83C30012B01D10223C3
:1052300030E2FB68012283F83C20FB681B681B6896
:1052400003F00103012B07D0FB681B681A68FB6899
:105250001B6842F001021A60FB681B681A68FB6851
:105260001B6822F400621A60FB68222283F83D204A
:10527000FB68402283F83E20FB6800221A64FB682A
:105280003A6B5A62FB68BA8E5A85FB685B8D9AB29C
:10529000FB681A85FB68624ADA62F8883A8979897C
:1052A0007B6A0193BB6B00930346F86800F092FAA7
:1052B0000346002B01D00123ECE1FB681B8D002B82
:1052C00013D10023FB61FB681B685B69FB61FB6812
:1052D0001B689B69FB61FB69FB681B681A68FB68BC
:1052E0001B6842F400721A60C0E1FB681B8D012B41
:1052F0001ED1FB681B681A68FB681B6822F4806279
:105300001A6072B600BF0023BB61FB681B685B6953
:10531000BB61FB681B689B69BB61BB69FB681B6861
:105320001A68FB681B6842F400721A6062B635E0C6
:10533000FB681B8D022B1ED1FB681B681A68FB687B
:105340001B6842F400621A6072B600BF00237B61E2
:10535000FB681B685B697B61FB681B689B697B6101
:105360007B69FB681B681A68FB681B6822F4806213
:105370001A6062B612E0FB681B681A68FB681B685B
:1053800042F480621A6000233B61FB681B685B6922
:105390003B61FB681B689B693B613B6966E1FB689D
:1053A0001B8D032B00F21F81FB681B8D012B23D16A
:1053B0007A6AB96BF86800F04DFC0346002B01D007
:1053C000012367E1FB681B681A69FB685B6AD2B25C
:1053D0001A70FB685B6A5A1CFB685A62FB681B8D7B
:1053E000013B9AB2FB681A85FB685B8D9BB2013B5F
:1053F0009AB2FB685A8539E1FB681B8D022B52D1AA
:105400007B6A0093BB6B00220649F86800F0CAFA79
:105410000346002B08D001233CE100BF020010002E
:105420000000FFFF0400010072B600BFFB681B68AC
:105430001A68FB681B6842F400721A60FB681B68FC
:105440001A69FB685B6AD2B21A70FB685B6A5A1C05
:10545000FB685A62FB681B8D013B9AB2FB681A8598
:10546000FB685B8D9BB2013B9AB2FB685A8562B6C2
:1054700000BFFB681B681A69FB685B6AD2B21A70CE
:10548000FB685B6A5A1CFB685A62FB681B8D013B18
:105490009AB2FB681A85FB685B8D9BB2013B9AB29E
:1054A000FB685A85E2E07B6A0093BB6B00227B4974
:1054B000F86800F077FA0346002B01D00123E9E0F9
:1054C000FB681B681A68FB681B6822F480621A601C
:1054D00072B600BFFB681B681A69FB685B6AD2B2D0
:1054E0001A70FB685B6A5A1CFB685A62FB681B8D6A
:1054F000013B9AB2FB681A85FB685B8D9BB2013B4E
:105500009AB2FB685A85664B1B68DB08654AA2FBAA
:1055100003231A0A13469B001344DA00D31A3B6292
:105520003B6A013B3B623B6A002B18D1FB680022BF
:105530001A63FB68202283F83D20FB68002283F871
:105540003E20FB681B6C43F02002FB681A6462B6C5
:1055500000BFFB68002283F83C2001239AE0FB682F
:105560001B685B6903F00403042BD9D1FB681B683B
:105570001A68FB681B6842F400721A60FB681B68BB
:105580001A69FB685B6AD2B21A70FB685B6A5A1CC4
:10559000FB685A62FB681B8D013B9AB2FB681A8557
:1055A000FB685B8D9BB2013B9AB2FB685A8562B681
:1055B00000BFFB681B681A69FB685B6AD2B21A708D
:1055C000FB685B6A5A1CFB685A62FB681B8D013BD7
:1055D0009AB2FB681A85FB685B8D9BB2013B9AB25D
:1055E000FB685A8542E07A6AB96BF86800F032FBD2
:1055F0000346002B01D001234CE0FB681B681A69AD
:10560000FB685B6AD2B21A70FB685B6A5A1CFB6863
:105610005A62FB681B8D013B9AB2FB681A85FB68D6
:105620005B8D9BB2013B9AB2FB685A85FB681B6895
:105630005B6903F00403042B18D1FB681B681A692B
:10564000FB685B6AD2B21A70FB685B6A5A1CFB6823
:105650005A62FB681B8D013B9AB2FB681A85FB6896
:105660005B8D9BB2013B9AB2FB685A85FB681B8D30
:10567000002B7FF494AEFB68202283F83D20FB686A
:10568000002283F83E20FB68002283F83C200023A0
:1056900000E0022318462837BD4680BD0400010003
:1056A0006400002089B5F81480B588B002AFF860B6
:1056B000084611461A4603467B810B463B8113463A
:1056C000FB80FB681B681A68FB681B6842F48072E9
:1056D0001A607B6A00933B6A00224FF00111F86860
:1056E00000F060F90346002B0DD0FB681B681B68B7
:1056F00003F48073B3F5807F03D1FB684FF400722D
:105700001A6403235FE07B89DBB21A46FB681B68DF
:1057100002F0FE021A617B6A3A6A2D49F86800F0CD
:1057200098F90346002B01D001234CE000237B6154
:10573000FB681B685B697B61FB681B689B697B611D
:105740007B697A6A396AF86800F002FA0346002B2E
:105750000DD0FB681B6C042B07D1FB681B681A6813
:10576000FB681B6842F400721A6001232BE0FB887F
:10577000012B05D13B89DAB2FB681B681A6121E075
:105780003B891B0A9BB2DAB2FB681B681A617A6A12
:10579000396AF86800F0DCF90346002B0DD0FB688D
:1057A0001B6C042B07D1FB681B681A68FB681B681D
:1057B00042F400721A60012305E03B89DAB2FB680B
:1057C0001B681A61002318461837BD4680BD00BF0C
:1057D0000200010080B588B002AFF86008461146AB
:1057E0001A4603467B810B463B811346FB80FB68D0
:1057F0001B681A68FB681B6842F480621A60FB68C9
:105800001B681A68FB681B6842F480721A607B6A26
:1058100000933B6A00224FF00111F86800F0C2F8D3
:105820000346002B0DD0FB681B681B6803F48073D4
:10583000B3F5807F03D1FB684FF400721A64032331
:10584000AAE07B89DBB21A46FB681B6802F0FE0205
:105850001A617B6A3A6A5249F86800F0FAF803461E
:10586000002B01D0012397E000237B61FB681B68BC
:105870005B697B61FB681B689B697B617B697A6AFA
:10588000396AF86800F064F90346002B0DD0FB6814
:105890001B6C042B07D1FB681B681A68FB681B682C
:1058A00042F400721A60012376E0FB88012B05D1D7
:1058B0003B89DAB2FB681B681A6121E03B891B0A4D
:1058C0009BB2DAB2FB681B681A617A6A396AF868B7
:1058D00000F03EF90346002B0DD0FB681B6C042B37
:1058E00007D1FB681B681A68FB681B6842F40072EA
:1058F0001A60012350E03B89DAB2FB681B681A6129
:105900007A6A396AF86800F023F90346002B0DD053
:10591000FB681B6C042B07D1FB681B681A68FB68CB
:105920001B6842F400721A60012335E0FB681B68B3
:105930001A68FB681B6842F480721A607B6A0093E5
:105940003B6A00224FF00111F86800F02BF8034683
:10595000002B0DD0FB681B681B6803F48073B3F544
:10596000807F03D1FB684FF400721A64032313E0B5
:105970007B89DBB243F00103DAB2FB681B681A6172
:105980007B6A3A6A0649F86800F063F80346002B20
:1059900001D0012300E0002318461837BD4680BD22
:1059A0000200010080B584B000AFF860B9603B60D0
:1059B0001346FB7125E03B68B3F1FF3F21D0FEF7B2
:1059C000BDF90246BB69D31A3A689A4202D33B68D2
:1059D000002B16D1FB6800221A63FB68202283F893
:1059E0003D20FB68002283F83E20FB681B6C43F0DF
:1059F0002002FB681A64FB68002283F83C20012324
:105A000023E0BB681B0CDBB2012B0DD1FB681B68CC
:105A10005B69DA43BB6813409BB2002B0CBF0123C8
:105A20000023DBB21A460CE0FB681B689B69DA4373
:105A3000BB6813409BB2002B0CBF01230023DBB2D9
:105A40001A46FB799A42B6D0002318461037BD4655
:105A500080BD80B584B000AFF860B9607A603B600B
:105A600051E0FB681B685B6903F48063B3F5806FEA
:105A700023D1FB681B681A68FB681B6842F400723C
:105A80001A60FB681B686FF480625A61FB68002231
:105A90001A63FB68202283F83D20FB68002283F80C
:105AA0003E20FB681B6C43F00402FB681A64FB6831
:105AB000002283F83C20012346E07B68B3F1FF3FDE
:105AC00021D0FEF73BF902463B68D31A7A689A4226
:105AD00002D37B68002B16D1FB6800221A63FB6897
